S01400004D6F746F725F6472697665722E7372656314
S11300000C9444000C9461000C9461000C94610005
S11300100C9461000C9461000C9461000C946100D8
S11300200C9461000C9461000C9461000C946100C8
S11300300C9461000C9461000C9461000C946100B8
S11300400C9461000C9461000C9461000C946100A8
S11300500C9461000C9461000C9461000C94610098
S11300600C9461000C9461005501F2005801F500F4
S11300704F01EF005201F80079017E0183018801EC
S11300808D01920197019C0111241FBECFEFD8E08E
S1130090DEBFCDBF11E0A0E0B1E0E2E9FAE002C0CA
S11300A005900D92AA32B107D9F721E0AAE2B1E096
S11300B001C01D92A133B207E1F70E9463000C94C2
S11300C047050C9400000E9447020E94E7010E9429
S11300D058028EE10E94BC018CE191E09F938F93C2
S11300E00E94690260E081E00E94E20060E082E038
S11300F00E94E20060E083E00E94E20060E084E0AD
S11301000E94E20061E081E00E94E2004FEF51E0D2
S113011060E070E081E00E945D010F900F90FFCFDE
S1130120611110C021E030E0A90102C0440F551F45
S11301308A95E2F7CA01809590912A0189238093D8
S11301402A0110C0613071F421E030E0A90102C03D
S1130150440F551F8A95E2F7CA0190912A01892B11
S113016080932A0180E70E94ED0180912A010E9478
S11301701D020E9414020895CF93DF93D82FC62F37
S113018080EC0E94ED018D2F0E941D02C1110AC056
S113019080E00E941D0280E00E941D0280E10E9416
S11301A01D020BC0C13049F480E10E941D0280E0B1
S11301B00E941D0280E00E941D020E941402DF9131
S11301C0CF910895CF93962F482F50E0FA0131979D
S11301D0E830F10580F4EC5CFF4F0C946302C3E05B
S11301E082E036C0C7E383E30AC0CFE18BE107C0F6
S11301F0C7E086E02DC0853048F5C0E080E092304D
S113020029F0933099F09130C9F408C060E00E945D
S1130210BC0061E08C2F0E94BC004DC061E00E94D4
S1130220BC0060E08C2F0E94BC0045C061E00E94CD
S1130230BC0061E08C2F0E94BC003DC060E00E94C5
S1130240BC0060E08C2F0E94BC0035C0C0E080E0A0
S1130250923029F0933099F09130C9F408C060E0ED
S11302600E94900061E08C2F0E94900024C061E005
S11302700E94900060E08C2F0E9490001CC061E0FE
S11302800E94900061E08C2F0E94900014C060E0F6
S11302900E94900060E08C2F0E9490000CC0C1E08E
S11302A080E0D6CFC5E084E0D3CFCBE28FE2A7CF06
S11302B0C3E187E1A4CFCF910895FF920F931F93D9
S11302C0CF93DF938B01EA016115704110F000E0D8
S11302D010E0C11590E1D90710F0C0E0D0E090E043
S11302E0FC013197E830F10560F5E45CFF4F0C94B4
S11302F063020F2EF6E2FF2EF02D24C00F2EFAE338
S1130300FF2EF02D1FC00F2EFEE0FF2EF02D1AC081
S11303100F2EF2E2FF2EF02D15C00F2EF6E0FF2E69
S1130320F02D10C00F2EFAE0FF2EF02D0BC00F2E73
S1130330FEE3FF2EF02D06C00F2EF2E4FF2EF02D6B
S113034001C0F12C80EC0E94ED018F2D0E941D0252
S1130350802F0E941D02812F0E941D028C2F0E945B
S11303601D028D2F0E941D020E941402DF91CF9165
S11303701F910F91FF900895CF93C82F80EC0E9496
S1130380ED0180E00E941D0280E30E941D020E9494
S1130390140280EC0E94ED018EEF0E941D028C2F4E
S11303A00E941D0280EC0E94ED0180E00E941D026B
S11303B080E20E941D020E94140280E70E94ED0167
S11303C080E00E941D020E941402CF9108951092B1
S11303D0B90088E48093B800089594EA9093BC002F
S11303E0ECEBF0E090819923ECF79091B900987FC1
S11303F0983011F09031A1F48093BB0084E880938D
S1130400BC00ECEBF0E080818823ECF79091B9001C
S1130410987F983139F081E0903429F480E0089590
S113042081E0089580E0089584E98093BC00ECEBBA
S1130430F0E0808184FDFDCF08958093BB0084E8C3
S11304408093BC00ECEBF0E080818823ECF7909182
S1130450B900987F81E0983209F480E00895CF9341
S1130460C82F8A3019F48DE00E942F02E0ECF0E0EE
S1130470808185FFFDCFC093C600CF910895E0EC45
S1130480F0E080818823ECF78091C60008951092F3
S1130490C50087E68093C400E0ECF0E080818D7FA6
S11304A0808386E08093C20088E18093C100089530
S11304B0EBE2F1E08EE091E09383828380E091E0CF
S11304C0918380830895EE0FFF1F0590F491E02D32
S11304D00994A0E0B0E0EFE6F2E00C942005AE0150
S11304E04B5F5F4FFA0161917191AF0180912D01D2
S11304F090912E010E947F02E2E00C943C05ABE057
S1130500B0E0E5E8F2E00C9410056C017B018A018F
S1130510FC0117821682838181FFCCC1CE01019632
S11305203C01F6019381F70193FD859193FF81913D
S11305307F01882309F4BAC1853239F493FD85918A
S113054093FF81917F01853229F4B60190E00E94E6
S11305507604E7CF912C212C312CFFE1F315D8F050
S11305608B3279F038F4803279F08332A1F4232D80
S113057020611DC08D3261F0803369F4232D216028
S113058016C0832D8260382EE32DE4603E2E2AC0EF
S1130590F32DF8601DC037FC2DC020ED280F2A3044
S11305A040F08E32B9F436FC81C1232D2064322E02
S11305B019C036FE06C08AE0989E200D1124922EA2
S11305C011C0EAE02E9E200D1124222EF32DF0629C
S11305D03F2E08C08C3621F4832D8068382E02C04B
S11305E0883641F4F70193FD859193FF81917F0152
S11305F08111B3CF982F9F7D9554933028F40C5FCD
S11306001F4F9FE399830DC0833631F0833771F018
S1130610833509F059C021C0F801808189830E5FB8
S11306201F4F88248394912C530113C02801F2E0B6
S11306304F0E511CF801A080B18036FE03C0692D15
S113064070E002C06FEF7FEFC5010E946B044C01A4
S11306508201F32DFF773F2E16C0280122E0420EBF
S1130660511CF801A080B18036FE03C0692D70E0F2
S113067002C06FEF7FEFC5010E9460044C01F32DAF
S1130680F0683F2E820133FC1BC0822D90E0881657
S11306909906B0F4B60180E290E00E9476042A94B0
S11306A0F4CFF50137FC859137FE81915F01B601E6
S11306B090E00E94760421102A9421E0821A910885
S11306C08114910471F7E8C0843611F0893641F53C
S11306D0F80137FE07C060817181828193810C5FCC
S11306E01F4F08C060817181072E000C880B990B85
S11306F00E5F1F4FF32DFF763F2E97FF09C0909595
S11307008095709561957F4F8F4F9F4FF0683F2E76
S11307102AE030E0A3010E94B204882E861845C066
S1130720853731F4232D2F7EB22E2AE030E025C008
S1130730932D997FB92E8F36C1F018F4883579F04E
S1130740B5C0803719F0883721F0B0C0E92FE061D7
S1130750BE2EB4FE0DC0FB2DF460BF2E09C034FEC6
S11307600AC0292F2660B22E06C028E030E005C05A
S113077020E130E002C020E132E0F801B7FE07C01A
S113078060817181828193810C5F1F4F06C06081FB
S1130790718180E090E00E5F1F4FA3010E94B204BC
S11307A0882E8618FB2DFF773F2E36FE0DC0232D95
S11307B02E7FA22E891458F434FE0BC032FC09C0DB
S11307C0832D8E7EA82E05C0B82CA32C03C0B82C74
S11307D001C0B92CA4FE0FC0FE01E80DF11D8081FB
S11307E0803321F49A2D997EA92E09C0A2FE06C059
S11307F0B394B39404C08A2D867809F0B394A3FC0F
S113080011C0A0FE06C0B21488F4280C922C9B18C8
S11308100EC0B21460F4B60180E290E00E94760447
S1130820B394F7CFB21418F42B1802C0982C212CCF
S1130830A4FE10C0B60180E390E00E947604A2FEFC
S113084017C0A1FC03C088E790E002C088E590E0EF
S1130850B6010CC08A2D867859F0A1FE02C08BE245
S113086001C080E2A7FC8DE2B60190E00E9476040C
S1130870891438F4B60180E390E00E9476049A94D7
S1130880F7CF8A94F301E80DF11D8081B60190E061
S11308900E9476048110F5CF222009F442CEB601DD
S11308A080E290E00E9476042A94F6CFF6018681D5
S11308B0978102C08FEF9FEF2B96E2E10C942C05F9
S11308C0FC010590615070400110D8F78095909517
S11308D08E0F9F1F0895FC0161507040019001101C
S11308E0D8F7809590958E0F9F1F08950F931F93AF
S11308F0CF93DF93FB01238121FD03C08FEF9FEF93
S11309002CC022FF16C046815781248135814217AD
S1130910530744F4A081B1819D012F5F3F4F318380
S113092020838C93268137812F5F3F4F3783268323
S113093014C08B01EC01FB010084F185E02D0995C5
S1130940892BE1F6D80116968D919C911797019603
S113095017969C938E931697CE01DF91CF911F919A
S11309600F910895FA01AA27283051F1203181F11D
S1130970E8946F936E7F6E5F7F4F8F4F9F4FAF4FA3
S1130980B1E03ED0B4E03CD0670F781F891F9A1FB6
S1130990A11D680F791F8A1F911DA11D6A0F711D6A
S11309A0811D911DA11D20D009F468943F912AE076
S11309B0269F11243019305D3193DEF6CF0108955E
S11309C0462F4770405D4193B3E00FD0C9F7F6CF8F
S11309D0462F4F70405D4A3318F0495D31FD405257
S11309E0419302D0A9F7EACFB4E0A69597958795ED
S11309F077956795BA95C9F70097610571050895CC
S1130A009B01AC010A2E0694579547953795279577
S1130A10BA95C9F7620F731F841F951FA01D08950F
S1130A202F923F924F925F926F927F928F929F92FA
S1130A30AF92BF92CF92DF92EF92FF920F931F93E8
S1130A40CF93DF93CDB7DEB7CA1BDB0B0FB6F89499
S1130A50DEBF0FBECDBF09942A88398848885F84D9
S1130A606E847D848C849B84AA84B984C884DF804A
S1130A70EE80FD800C811B81AA81B981CE0FD11D2E
S1130A800FB6F894DEBF0FBECDBFED010895F89404
S1050A90FFCF92
S1130A92000000010000000000003F02000000000E
S1130AA20002000000002F020000000041646166A1
S10D0AB27275697420313433380082
S9030000FC
