:100000000C948B000C94A8000C94A8000C94A800ED
:100010000C94A8000C94A8000C94A8000C94A800C0
:100020000C94A8000C94A8000C94A8000C94A800B0
:100030000C94A8000C94A8000C94A8000C94A800A0
:100040000C94A8000C94A8000C94A8000C94A80090
:100050000C94A8000C94A8000C94A8000C94A80080
:100060000C94A8000C94A80072020F0275021202F0
:100070006C020C026F02150296029B02A002A502FE
:10008000AA02AF02B402B90207634236B79BD8A7EF
:100090001A39685618AEBAAB558C1D3CB7CC5763AD
:1000A000BD6DEDFD753EF6177231BF000000803F5B
:1000B00008000000BE922449123EABAAAA2ABECD77
:1000C000CCCC4C3E00000080BEABAAAAAA3E0000E9
:1000D0000000BF000000803F0000000000084178E1
:1000E000D3BB4387D1133D190E3CC3BD4282AD2B18
:1000F0003E68EC8276BED98FE1A93E4C80EFFFBE10
:1001000001C4FF7F3F00000000006364696E6F70F0
:10011000737578585B0011241FBECFEFD8E0DEBFA7
:10012000CDBF11E0A0E0B1E0E8EBFAE102C005903C
:100130000D92A634B107D9F721E0A6E4B1E001C0E1
:100140001D92AD34B207E1F70E9417010C945A0DCD
:100150000C9400001F93CF93DF93182FEB01DD2346
:1001600054F062E00E94FF0140E050E0BE01812FA8
:100170000E947A020CC061E00E94FF016627772787
:100180006C1B7D0B40E050E0812F0E947A02DF91D2
:10019000CF911F9108958F929F92AF92BF92CF926D
:1001A000DF92EF92FF926B017C0120E030E040E4AF
:1001B00050E40E941E0520E034E54EEA56E40E9419
:1001C000B1044B015C01A7019601C701B6010E9471
:1001D000B10420E833E740EE57E40E94B1049B01EC
:1001E000AC01C501B4010E9480034B015C0120E415
:1001F00033E849E358E4C701B6010E94B1049B010A
:10020000AC01C501B4010E94810320E838E842EC4A
:1002100057E40E9480030E94ED03CB01FF90EF9012
:10022000DF90CF90BF90AF909F908F900895CF9325
:10023000DF9300D0CDB7DEB70E9464030E940403B1
:100240000E9475038FEF8AB980EF87B98FE388B971
:100250001BB883E00E94D9028CE191E00E94310733
:1002600060E081E00E94FF0160E082E00E94FF0107
:1002700060E083E00E94FF0160E084E00E94FF01F3
:1002800060E085E00E94FF0160E086E00E94FF01DF
:1002900060E087E00E94FF0181E090E09A8389831B
:1002A0008AE291E00E943107CE0101969F938F93DD
:1002B00088E391E09F938F930E94610760E070E074
:1002C00080EC9FE30E94CB00BC0185E00E94AA0065
:1002D0000F900F900F900F9000E010E00F2EFBE3B7
:1002E000EF2EF1E0FF2EF02D86B18E3391F50E5CEE
:1002F0001F4F1F930F93FF92EF920E941B072FEF48
:1003000081EE94E0215080409040E1F700C0000071
:1003100086B10F900F900F900F908D33A9F4025378
:1003200011091F930F93FF92EF920E941B072FEF6B
:1003300081EE94E0215080409040E1F700C0000041
:100340000F900F900F900F90B80189810E94AA0022
:10035000CBCF86B18D3341F6E2CF611110C021E0E1
:1003600030E0A90102C0440F551F8A95E2F7CA0187
:1003700080959091460189238093460110C0613099
:1003800071F421E030E0A90102C0440F551F8A95A5
:10039000E2F7CA0190914601892B8093460180E7DC
:1003A0000E940A03809146010E943A030E94310391
:1003B0000895CF93DF93D82FC62F80EC0E940A03B5
:1003C0008D2F0E943A03C1110AC080E00E943A03B7
:1003D00080E00E943A0380E10E943A030BC0C130E2
:1003E00049F480E10E943A0380E00E943A0380E0F1
:1003F0000E943A030E943103DF91CF910895CF9379
:10040000962F482F50E0FA013197E830F10580F43B
:10041000EC5CFF4F0C941507C3E082E036C0C7E3E5
:1004200083E30AC0CFE18BE107C0C7E086E02DC0BF
:10043000853048F5C0E080E0923029F0933099F0A3
:100440009130C9F408C060E00E94D90161E08C2FAE
:100450000E94D9014DC061E00E94D90160E08C2F5B
:100460000E94D90145C061E00E94D90161E08C2F52
:100470000E94D9013DC060E00E94D90160E08C2F4C
:100480000E94D90135C0C0E080E0923029F093305D
:1004900099F09130C9F408C060E00E94AD0161E0BC
:1004A0008C2F0E94AD0124C061E00E94AD0160E08C
:1004B0008C2F0E94AD011CC061E00E94AD0161E083
:1004C0008C2F0E94AD0114C060E00E94AD0160E07D
:1004D0008C2F0E94AD010CC0C1E080E0D6CFC5E0FA
:1004E00084E0D3CFCBE28FE2A7CFC3E187E1A4CFF3
:1004F000CF910895FF920F931F93CF93DF938B01BA
:10050000EA016115704110F000E010E0C11590E1C2
:10051000D90710F0C0E0D0E090E0FC013197E8305E
:10052000F10560F5E45CFF4F0C9415070F2EF6E221
:10053000FF2EF02D24C00F2EFAE3FF2EF02D1FC04A
:100540000F2EFEE0FF2EF02D1AC00F2EF2E2FF2E2E
:10055000F02D15C00F2EF6E0FF2EF02D10C00F2E3F
:10056000FAE0FF2EF02D0BC00F2EFEE3FF2EF02D34
:1005700006C00F2EF2E4FF2EF02D01C0F12C80EC0E
:100580000E940A038F2D0E943A03802F0E943A0393
:10059000812F0E943A038C2F0E943A038D2F0E94D4
:1005A0003A030E943103DF91CF911F910F91FF9089
:1005B0000895CF93C82F80EC0E940A0380E00E9428
:1005C0003A0380E30E943A030E94310380EC0E94C8
:1005D0000A038EEF0E943A038C2F0E943A0380ECAC
:1005E0000E940A0380E00E943A0380E20E943A03DC
:1005F0000E94310380E70E940A0380E00E943A03D0
:100600000E943103CF9108951092B9008CE080933D
:10061000B800089594EA9093BC00ECEBF0E0908170
:100620009923ECF79091B900987F983011F09031B0
:10063000A1F48093BB0084E88093BC00ECEBF0E075
:1006400080818823ECF79091B900987F983139F038
:1006500081E0903429F480E0089581E0089580E0FD
:10066000089584E98093BC00ECEBF0E0808184FD88
:10067000FDCF08958093BB0084E88093BC00ECEB31
:10068000F0E080818823ECF79091B900987F81E0B9
:10069000983209F480E00895CF93C82F8A3019F476
:1006A0008DE00E944C03E0ECF0E0808185FFFDCFFF
:1006B000C093C600CF910895E0ECF0E080818823DC
:1006C000ECF78091C60008951092C50087E68093EC
:1006D000C400E0ECF0E080818D7F808386E0809331
:1006E000C20088E18093C1000895E7E4F1E08EE064
:1006F00091E09383828380E091E0918380830895E9
:100700005058BB27AA270E9498030C9477040E9494
:10071000690438F00E94700420F039F49F3F19F406
:1007200026F40C9466040EF4E095E7FB0C94600448
:10073000E92F0E94880458F3BA17620773078407E9
:10074000950720F079F4A6F50C94AA040EF4E09530
:100750000B2EBA2FA02D0B01B90190010C01CA017B
:10076000A0011124FF27591B99F0593F50F4503E26
:1007700068F11A16F040A22F232F342F4427585F18
:10078000F3CF469537952795A795F0405395C9F730
:100790007EF41F16BA0B620B730B840BBAF09150E8
:1007A000A1F0FF0FBB1F661F771F881FC2F70EC087
:1007B000BA0F621F731F841F48F48795779567955A
:1007C000B795F7959E3F08F0B0CF9395880F08F046
:1007D0009927EE0F9795879508950E94F4036894E2
:1007E000B1110C94AB0408950E94900488F09F57B7
:1007F00098F0B92F9927B751B0F0E1F0660F771F45
:10080000881F991F1AF0BA95C9F714C0B13091F03A
:100810000E94AA04B1E008950C94AA04672F782FCF
:100820008827B85F39F0B93FCCF3869577956795FF
:10083000B395D9F73EF490958095709561957F4F6B
:100840008F4F9F4F0895E89409C097FB3EF4909511
:100850008095709561957F4F8F4F9F4F9923A9F099
:10086000F92F96E9BB279395F69587957795679528
:10087000B795F111F8CFFAF4BB0F11F460FF1BC06C
:100880006F5F7F4F8F4F9F4F16C0882311F096E9FF
:1008900011C0772321F09EE8872F762F05C06623AD
:1008A00071F096E8862F70E060E02AF09A95660F66
:1008B000771F881FDAF7880F9695879597F908951F
:1008C00097F99F6780E870E060E008959FEF80EC03
:1008D000089500240A9416161706180609060895A6
:1008E00000240A9412161306140605060895092E0C
:1008F0000394000C11F4882352F0BB0F40F4BF2B7B
:1009000011F460FF04C06F5F7F4F8F4F9F4F0895BA
:1009100057FD9058440F551F59F05F3F71F04795B0
:10092000880F97FB991F61F09F3F79F08795089595
:10093000121613061406551FF2CF4695F1DF08C0B4
:10094000161617061806991FF1CF869571056105D1
:1009500008940895E894BB2766277727CB0197F979
:1009600008950E94C4040C9477040E94690438F02E
:100970000E94700420F0952311F00C9460040C94F4
:10098000660411240C94AB040E94880470F3959FB4
:10099000C1F3950F50E0551F629FF001729FBB2776
:1009A000F00DB11D639FAA27F00DB11DAA1F649F12
:1009B0006627B00DA11D661F829F2227B00DA11DC5
:1009C000621F739FB00DA11D621F839FA00D611D4B
:1009D000221F749F3327A00D611D231F849F600D6C
:1009E000211D822F762F6A2F11249F5750409AF095
:1009F000F1F088234AF0EE0FFF1FBB1F661F771F21
:100A0000881F91505040A9F79E3F510580F00C94EB
:100A100060040C94AB045F3FE4F3983ED4F38695F6
:100A200077956795B795F795E7959F5FC1F7FE2B8B
:100A3000880F911D9695879597F90895FA01EE0F05
:100A4000FF1F309621053105A1F16115710561F493
:100A50008038BFE39B0749F168949038810561F0C5
:100A60008038BFEF9B0741F099234AF5FF3FE1052E
:100A70003105210519F1E8940894E795D901AA23D5
:100A800029F4AB2FBE2FF85FD0F310C0FF5F70F4D6
:100A9000A695E0F7F73950F019F0FF3A38F49F7750
:100AA0009F930DD00F9007FC9058089546F00C943A
:100AB000660460E070E080E89FE308954FE79F7769
:100AC0005F934F933F932F930E9419062F913F916D
:100AD0004F915F910E94B1040C94760529F416F0B1
:100AE0000C9460040C94AA040C9466040E94900474
:100AF000A8F39638A0F707F80F92E8942BE33AEAA8
:100B000048EB5FE70E94C7040F920F920F924DB718
:100B10005EB70F920E946106E8E8F0E00E94A80527
:100B20004F915F91EF91FF91E595EE1FFF1F49F007
:100B3000FE57E0684427EE0F441FFA95E1F7419510
:100B4000550B0E94DB050F9007FE0C94CF0508950E
:100B5000DF93CF931F930F93FF92EF92DF927B016E
:100B60008C01689406C0DA2EEF010E94C404FE01D5
:100B7000E894A5912591359145915591A6F3EF0102
:100B80000E949803FE019701A801DA9469F7DF90AB
:100B9000EF90FF900F911F91CF91DF9108959B01EE
:100BA000AC0160E070E080E89FE30C9495060C9443
:100BB00060040C9407070E949004D8F39923C9F3AA
:100BC000940F511DA3F39150504094F059F0882395
:100BD00032F0660F771F881F91505040C1F79E3F3B
:100BE00051052CF7880F911D9695879597F90895D3
:100BF0005F3FACF0983E9CF0BB2786957795679554
:100C0000B79508F4B1609395C1F7BB0F58F711F48D
:100C100060FFE8CF6F5F7F4F8F4F9F4FE3CF0C9404
:100C2000AB0416F00C9407070C94660468940C94BB
:100C300060040E949004A8F39923C1F3AEF3DF93FC
:100C4000CF931F930F93FF92C92FDD2788232AF09C
:100C50002197660F771F881FDAF720E030E040E821
:100C60005FEB9FE3883920F0803E38F021968F7744
:100C70000E948103E0EBF0E004C00E948103EDEDEF
:100C8000F0E00E94A8058B01BE01EC01FB2E6F571E
:100C900071097595771F880B990B0E94250428E12F
:100CA00032E741E35FE30E94C404AF2D9801AE0137
:100CB000FF900F911F91CF91DF910E9498030C94A8
:100CC0007704FA01DC01AA0FBB1F9B01AC01BF57DF
:100CD00028F4222733274427507820C0B75190F4B6
:100CE000AB2F0024469537952795011CA395D2F389
:100CF000002071F0220F331F441FB395DAF30ED09A
:100D00000C94800361307105A0E88A07B94630F47D
:100D10009B01AC016627772788279078309621F0D1
:100D2000208331834283538308950E94A9060C9443
:100D300077040E94700458F00E94690440F029F47E
:100D40005F3F29F00C94600451110C94AB040C9497
:100D500066040E94880468F39923B1F3552391F344
:100D6000951B550BBB27AA2762177307840738F01A
:100D70009F5F5F4F220F331F441FAA1FA9F335D077
:100D80000E2E3AF0E0E832D091505040E695001C2B
:100D9000CAF72BD0FE2F29D0660F771F881FBB1FE5
:100DA000261737074807AB07B0E809F0BB0B802DC3
:100DB000BF01FF2793585F4F3AF09E3F510578F0EF
:100DC0000C9460040C94AB045F3FE4F3983ED4F3BE
:100DD000869577956795B795F7959F5FC9F7880FC3
:100DE000911D9695879597F90895E1E0660F771F15
:100DF000881FBB1F621773078407BA0720F0621BA6
:100E0000730B840BBA0BEE1F88F7E09508959F3F94
:100E100031F0915020F4879577956795B795880FB5
:100E2000911D9695879597F90895EE0FFF1F0590F0
:100E3000F491E02D0994A0E0B0E0E1E2F7E00C9439
:100E4000330DAE014B5F5F4FFA0161917191AF01BC
:100E50008091490190914A010E947707E2E00C9449
:100E60004F0D0F931F93CF93DF93E0914901F091C2
:100E70004A01238121FF1BC08C01D0E0C0E0F801B2
:100E800081918F016091490170914A01DB011896AF
:100E9000ED91FC911997882331F00995892B79F30D
:100EA000DFEFCFEFECCF8AE00995892B19F08FEFB8
:100EB0009FEF02C08D2F9C2FDF91CF911F910F913B
:100EC0000895A0E0B0E0E7E6F7E00C94330DAE0142
:100ED0004B5F5F4FFA0161917191AF0180914701C2
:100EE000909148010E94F40AE2E00C944F0DABE0AF
:100EF000B0E0EDE7F7E00C94230D6C017B018A0173
:100F0000FC0117821682838181FFCCC1CE0101963C
:100F10003C01F6019381F70193FD859193FF819147
:100F20007F01882309F4BAC1853239F493FD859194
:100F300093FF81917F01853229F4B60190E00E94F0
:100F40006D0CE7CF912C212C312CFFE1F315D8F05B
:100F50008B3279F038F4803279F08332A1F4232D8A
:100F600020611DC08D3261F0803369F4232D216032
:100F700016C0832D8260382EE32DE4603E2E2AC0F9
:100F8000F32DF8601DC037FC2DC020ED280F2A304E
:100F900040F08E32B9F436FC81C1232D2064322E0C
:100FA00019C036FE06C08AE0989E200D1124922EAC
:100FB00011C0EAE02E9E200D1124222EF32DF062A6
:100FC0003F2E08C08C3621F4832D8068382E02C055
:100FD000883641F4F70193FD859193FF81917F015C
:100FE0008111B3CF982F9F7D9554933028F40C5FD7
:100FF0001F4F9FE399830DC0833631F0833771F023
:10100000833509F059C021C0F801808189830E5FC2
:101010001F4F88248394912C530113C02801F2E0C0
:101020004F0E511CF801A080B18036FE03C0692D1F
:1010300070E002C06FEF7FEFC5010E94240C4C01ED
:101040008201F32DFF773F2E16C0280122E0420EC9
:10105000511CF801A080B18036FE03C0692D70E0FC
:1010600002C06FEF7FEFC5010E94190C4C01F32DF8
:10107000F0683F2E820133FC1BC0822D90E0881661
:101080009906B0F4B60180E290E00E946D0C2A94BB
:10109000F4CFF50137FC859137FE81915F01B601F0
:1010A00090E00E946D0C21102A9421E0821A910890
:1010B0008114910471F7E8C0843611F0893641F546
:1010C000F80137FE07C060817181828193810C5FD6
:1010D0001F4F08C060817181072E000C880B990B8F
:1010E0000E5F1F4FF32DFF763F2E97FF09C090959F
:1010F0008095709561957F4F8F4F9F4FF0683F2E81
:101100002AE030E0A3010E94C20C882E861845C058
:10111000853731F4232D2F7EB22E2AE030E025C012
:10112000932D997FB92E8F36C1F018F4883579F058
:10113000B5C0803719F0883721F0B0C0E92FE061E1
:10114000BE2EB4FE0DC0FB2DF460BF2E09C034FED0
:101150000AC0292F2660B22E06C028E030E005C064
:1011600020E130E002C020E132E0F801B7FE07C024
:1011700060817181828193810C5F1F4F06C0608105
:10118000718180E090E00E5F1F4FA3010E94C20CAE
:10119000882E8618FB2DFF773F2E36FE0DC0232D9F
:1011A0002E7FA22E891458F434FE0BC032FC09C0E5
:1011B000832D8E7EA82E05C0B82CA32C03C0B82C7E
:1011C00001C0B92CA4FE0FC0FE01E80DF11D808105
:1011D000803321F49A2D997EA92E09C0A2FE06C063
:1011E000B394B39404C08A2D867809F0B394A3FC19
:1011F00011C0A0FE06C0B21488F4280C922C9B18D3
:101200000EC0B21460F4B60180E290E00E946D0C52
:10121000B394F7CFB21418F42B1802C0982C212CD9
:10122000A4FE10C0B60180E390E00E946D0CA2FE07
:1012300017C0A1FC03C088E790E002C088E590E0F9
:10124000B6010CC08A2D867859F0A1FE02C08BE24F
:1012500001C080E2A7FC8DE2B60190E00E946D0C17
:10126000891438F4B60180E390E00E946D0C9A94E2
:10127000F7CF8A94F301E80DF11D8081B60190E06B
:101280000E946D0C8110F5CF222009F442CEB601E8
:1012900080E290E00E946D0C2A94F6CFF6018681E0
:1012A000978102C08FEF9FEF2B96E2E10C943F0DE8
:1012B00020FD09C0FC0123FD05C022FF02C073838D
:1012C000628351834083089544FD17C046FD17C0D3
:1012D000AB01BC01DA01FB01AA0FBB1FEE1FFF1F10
:1012E0001094D1F74A0F5B1F6E1F7F1FCB01BA010D
:1012F000660F771F881F991F09C033E001C034E0D3
:10130000660F771F881F991F3150D1F7620F711D2B
:10131000811D911D08950F931F93CF93DF938C012F
:10132000C8010E942F0CEC0197FD08C00E94050C1B
:10133000892BB1F7B801CE010E94A90CCE01DF9133
:10134000CF911F910F9108958F929F92AF92BF926C
:10135000EF92FF920F931F93CF93DF938C01D62FC1
:101360007A01B22E0E942F0C9C0133272B323105BB
:1013700031F02D32310561F48B2D8068B82ED150BB
:1013800011F480E068C0C8010E942F0C97FDF9CFCE
:10139000CB2DCD7F2B2D207309F58033F9F4AA24B2
:1013A000AA94AD0E09F443C0C8010E942F0C97FD0A
:1013B0003EC09C012F7D33272835310549F4C26496
:1013C000D250A9F1C8010E942F0C97FF07C02FC06F
:1013D000B6FE02C0C26001C0C261DA2D812C912C20
:1013E000540120ED280F283080F0C4FF04C0B8015C
:1013F0000E94A90C19C02A3040F0C6FFF8CF2F7DFB
:101400003FEE320F363098F727504C2FC501B4010C
:101410000E9464094B015C01C260D15059F0C801BF
:101420000E942F0C97FFDDCFC1FD04C0AACF812CF5
:10143000912C5401C7FF08C0B094A094909480945C
:10144000811C911CA11CB11C2C2FB501A401C7014A
:101450000E94580981E0DF91CF911F910F91FF9079
:10146000EF90BF90AF909F908F900895A0E2B0E072
:10147000ECE3FAE00C94260D5C01962E7A01F9015A
:101480008E010F5F1F4F680180E2D8011D928A957F
:10149000E9F7D50113968C9080E090E0612C712CD7
:1014A00030E061E070E083FC259183FE21918F01A3
:1014B000522E211103C080E090E092C02E3511F42D
:1014C000009751F1432F50E0481759073CF42D3550
:1014D00059F12D3219F4772009F103C0772009F46E
:1014E0006AC0452D469546954695D601A40FB11D77
:1014F000452D47708B0102C0000F111F4A95E2F77E
:10150000A8015C91452B4C93651459F0561410F4C6
:101510005394E7CF5A94E5CF31E004C07724739415
:1015200001C0712C0196BFCF772019F08E818062A7
:101530008E83311103C08824839417C0F6019E0165
:101540002F5D3F4F8081809581932E173F07D1F704
:10155000F2CFE114F10429F0D7018C93F701319611
:101560007F019A94812C9920F9F0C5010E942F0CDB
:1015700097FD18C0FC01FF2723E0F595E7952A9514
:10158000E1F7EC0DFD1D208130E0AC0147705527DF
:1015900002C0359527954A95E2F720FDDACFB501CF
:1015A0000E94A90C811087CFE114F10411F0D7013A
:1015B0001C92C80115C0422F469546954695D60106
:1015C000A40FB11D422F47708B0102C0000F111FE5
:1015D0004A95E2F7A8015C91452B4C93622EA2CF6D
:1015E000A096EFE00C94420DA0E0B0E0EAEFFAE044
:1015F0000C94260D6C01EB015A01FC011782168236
:10160000512CF601E380FE01E3FC8591E3FE81911C
:10161000182FEF01882309F4EEC090E00E94050C1A
:10162000892B21F0C6010E948B09EBCF153241F4C2
:10163000FE01E3FC1591E3FE1191EF01153281F4F7
:10164000C6010E942F0C97FDD4C0412F50E09C0191
:10165000332724173507A9F2B6010E94A90CCBC085
:101660001A3239F4E3FC1591E3FE1191EF0101E028
:1016700001C000E0F12C20ED210F2A3080F402603F
:101680006F2D70E080E090E040E20E946409F62E49
:10169000FE01E3FC1591E3FE1191EF01ECCF01FF98
:1016A00003C0F11003C0A7C0FF24FA94183619F044
:1016B0001C3651F010C0FE01E3FC1591E3FE1191C0
:1016C000EF01183641F408600460FE01E3FC159157
:1016D000E3FE1191EF01112309F48DC0612F70E039
:1016E0008AE091E00E940E0C892B09F484C000FD71
:1016F00007C0F50180809180C50102965C0102C09F
:10170000812C912C1E3651F4F6014681578160E000
:1017100070E0202FC4010E94580973CF1336A9F43A
:1017200001FD02C0FF24F394C6010E942F0C97FD17
:1017300060C08114910429F0F4018083C4010196F2
:101740004C01FA94F110F0CF50C01B3559F49E01B2
:10175000A4016F2DC6010E94360AEC01892B09F005
:1017600044C03EC0C6010E948B0997FD42C01F368F
:1017700061F128F4143639F1193651F128C01337C4
:1017800071F0153701F123C08114910429F0F4019F
:101790006082C40101964C01FA94FF2071F0C601E9
:1017A0000E942F0C3C0197FD08C00E94050C892B5C
:1017B00059F3B601C3010E94A90C81149104A9F048
:1017C000F401108212C0006203C0006101C0006415
:1017D000202FA4016F2DC6010E94A409811105C00C
:1017E000F6018381807329F406C000FD0ACF53946B
:1017F00008CF552019F0852D90E002C08FEF9FEFA4
:10180000CDB7DEB7EFE00C94420D91110C94200D92
:10181000803219F089508550C8F70895FC01059071
:10182000061621F00020D9F7C00108953197CF01A5
:101830000895FC010590615070400110D8F7809523
:1018400090958E0F9F1F0895FC016150704001908C
:101850000110D8F7809590958E0F9F1F0895CF9314
:10186000DF93EC012B8120FF33C026FF0AC02F7BC2
:101870002B838E819F8101969F838E838A8190E046
:1018800029C022FF0FC0E881F9818081082E000C59
:10189000990B009719F420622B831AC03196F983B3
:1018A000E8830EC0EA85FB85099597FF09C02B8167
:1018B000019611F080E201C080E1822B8B8308C089
:1018C0002E813F812F5F3F4F3F832E83992702C098
:1018D0008FEF9FEFDF91CF9108950F931F93CF93D9
:1018E000DF93FB01238121FD03C08FEF9FEF2CC00D
:1018F00022FF16C046815781248135814217530744
:1019000044F4A081B1819D012F5F3F4F318320833B
:101910008C93268137812F5F3F4F3783268314C0F6
:101920008B01EC01FB010084F185E02D0995892BE9
:10193000E1F6D80116968D919C911797019617960E
:101940009C938E931697CE01DF91CF911F910F91AB
:101950000895FB01238120FF12C026FD10C08F3F98
:101960003FEF930761F082832F7D206423832681DC
:1019700037812150310937832683992708958FEFC6
:101980009FEF0895FA01AA27283051F1203181F103
:10199000E8946F936E7F6E5F7F4F8F4F9F4FAF4F77
:1019A000B1E03ED0B4E03CD0670F781F891F9A1F8A
:1019B000A11D680F791F8A1F911DA11D6A0F711D3E
:1019C000811D911DA11D20D009F468943F912AE04A
:1019D000269F11243019305D3193DEF6CF01089532
:1019E000462F4770405D4193B3E00FD0C9F7F6CF63
:1019F000462F4F70405D4A3318F0495D31FD40522B
:101A0000419302D0A9F7EACFB4E0A69597958795C0
:101A100077956795BA95C9F700976105710508959F
:101A20009B01AC010A2E069457954795379527954B
:101A3000BA95C9F7620F731F841F951FA01D0895E3
:101A40009927882708952F923F924F925F926F9225
:101A50007F928F929F92AF92BF92CF92DF92EF923E
:101A6000FF920F931F93CF93DF93CDB7DEB7CA1BBF
:101A7000DB0B0FB6F894DEBF0FBECDBF09942A88EA
:101A8000398848885F846E847D848C849B84AA8492
:101A9000B984C884DF80EE80FD800C811B81AA811F
:101AA000B981CE0FD11D0FB6F894DEBF0FBECDBFEA
:081AB000ED010895F894FFCF49
:101AB800000000010000000000005C0300000000BE
:101AC8000002000000004C03000000004164616651
:101AD800727569742031343338004D6F746F722019
:101AE8006E756D6265723A002564005370656564B1
:061AF8003A2025640A00FB
:00000001FF
