:100000000C944A000C9467000C9467000C946700F1
:100010000C9467000C9467000C9467000C946700C4
:100020000C9467000C9467000C9467000C946700B4
:100030000C9467000C9467000C9467000C946700A4
:100040000C9467000C9467000C9467000C94670094
:100050000C9467000C9467000C9467000C94670084
:100060000C9467000C9467000602A3010902A60124
:100070000002A0010302A9012A022F023402390260
:100080003E02430248024D026364696E6F707375ED
:1000900078585B0011241FBECFEFD8E0DEBFCDBF84
:1000A00011E0A0E0B1E0E6EBF2E102C005900D92B4
:1000B000A635B107D9F721E0A6E5B1E001C01D9250
:1000C000AD35B207E1F70E948A000C9459090C94EF
:1000D00000001F93CF93DF93182FEB01DD2354F023
:1000E00062E00E94930140E050E0BE01812F0E9437
:1000F0000E020CC061E00E949301662777276C1BFB
:100100007D0B40E050E0812F0E940E02DF91CF91E5
:100110001F910895CF93DF9300D000D0CDB7DEB705
:100120000E94F8020E9498020E9409038FEF8AB988
:1001300080EF87B98FE388B91BB883E00E946D0216
:100140008CE191E00E94300360E081E00E94930125
:1001500060E082E00E94930160E083E00E949301EE
:1001600060E084E00E94930160E085E00E949301DA
:1001700060E086E00E94930160E087E00E949301C6
:1001800081E090E09A8389838AE291E00E943003C3
:10019000CE0101969F938F9388E391E09F938F9375
:1001A0000E9460030F900F900F900F906E0183E0FC
:1001B000C80ED11C0F2EF8E3EF2EF1E0FF2EF02D2C
:1001C0000F2EF2E4AF2EF1E0BF2EF02D77247394C2
:1001D0000F2EFDE48F2EF1E09F2EF02D8BE391E0AA
:1001E0000E943003DF92CF92FF92EF920E94600351
:1001F0000F900F900F900F9000E010E00115110587
:1002000039F1B80189810E9469001F930F93BF9251
:10021000AF920E941A03DF92CF92FF92EF920E9458
:1002200060030E5C1F4F0FB6F894DEBF0FBECDBF4C
:100230000D3A9DE0190714F360E070E089810E9497
:1002400069009F928F920E941A030F900F90C6CF61
:1002500061E070E089810E9469001F927F92BF92E5
:10026000AF920E941A03DF92CF92FF92EF920E9408
:10027000600302E310E00FB6F894DEBF0FBECDBFFF
:10028000BDCF611110C021E030E0A90102C0440FD0
:10029000551F8A95E2F7CA018095909156018923EE
:1002A0008093560110C0613071F421E030E0A90163
:1002B00002C0440F551F8A95E2F7CA01909156017A
:1002C000892B8093560180E70E949E0280915601FF
:1002D0000E94CE020E94C5020895CF93DF93D82FCB
:1002E000C62F80EC0E949E028D2F0E94CE02C1116B
:1002F0000AC080E00E94CE0280E00E94CE0280E12F
:100300000E94CE020BC0C13049F480E10E94CE02AF
:1003100080E00E94CE0280E00E94CE020E94C502D0
:10032000DF91CF910895CF93962F482F50E0FA0197
:100330003197E830F10580F4EC5CFF4F0C94140326
:10034000C3E082E036C0C7E383E30AC0CFE18BE1BC
:1003500007C0C7E086E02DC0853048F5C0E080E0EA
:10036000923029F0933099F09130C9F408C060E0E0
:100370000E946D0161E08C2F0E946D014DC061E013
:100380000E946D0160E08C2F0E946D0145C061E00C
:100390000E946D0161E08C2F0E946D013DC060E004
:1003A0000E946D0160E08C2F0E946D0135C0C0E09D
:1003B00080E0923029F0933099F09130C9F408C070
:1003C00060E00E94410161E08C2F0E94410124C045
:1003D00061E00E94410160E08C2F0E9441011CC03D
:1003E00061E00E94410161E08C2F0E94410114C034
:1003F00060E00E94410160E08C2F0E9441010CC02E
:10040000C1E080E0D6CFC5E084E0D3CFCBE28FE27D
:10041000A7CFC3E187E1A4CFCF910895FF920F93B7
:100420001F93CF93DF938B01EA016115704110F0A8
:1004300000E010E0C11590E1D90710F0C0E0D0E075
:1004400090E0FC013197E830F10560F5E45CFF4F86
:100450000C9414030F2EF6E2FF2EF02D24C00F2E65
:10046000FAE3FF2EF02D1FC00F2EFEE0FF2EF02D21
:100470001AC00F2EF2E2FF2EF02D15C00F2EF6E05F
:10048000FF2EF02D10C00F2EFAE0FF2EF02D0BC026
:100490000F2EFEE3FF2EF02D06C00F2EF2E4FF2EEE
:1004A000F02D01C0F12C80EC0E949E028F2D0E9445
:1004B000CE02802F0E94CE02812F0E94CE028C2F6E
:1004C0000E94CE028D2F0E94CE020E94C502DF91B3
:1004D000CF911F910F91FF900895CF93C82F80EC7B
:1004E0000E949E0280E00E94CE0280E30E94CE0223
:1004F0000E94C50280EC0E949E028EEF0E94CE02F6
:100500008C2F0E94CE0280EC0E949E0280E00E940E
:10051000CE0280E20E94CE020E94C50280E70E94C5
:100520009E0280E00E94CE020E94C502CF910895F3
:100530001092B9008CE08093B800089594EA9093EB
:10054000BC00ECEBF0E090819923ECF79091B900BE
:10055000987F983011F09031A1F48093BB0084E82B
:100560008093BC00ECEBF0E080818823ECF7909165
:10057000B900987F983139F081E0903429F480E017
:10058000089581E0089580E0089584E98093BC0097
:10059000ECEBF0E0808184FDFDCF08958093BB00FB
:1005A00084E88093BC00ECEBF0E080818823ECF7DA
:1005B0009091B900987F81E0983209F480E0089525
:1005C000CF93C82F8A3019F48DE00E94E002E0EC4E
:1005D000F0E0808185FFFDCFC093C600CF910895E4
:1005E000E0ECF0E080818823ECF78091C60008956C
:1005F0001092C50087E68093C400E0ECF0E08081B3
:100600008D7F808386E08093C20088E18093C10063
:100610000895E7E5F1E08EE091E09383828380E046
:1006200091E0918380830895EE0FFF1F0590F49170
:10063000E02D0994A0E0B0E0E0E2F3E00C94320990
:10064000AE014B5F5F4FFA0161917191AF018091F3
:10065000590190915A010E947603E2E00C944E09F0
:100660000F931F93CF93DF93E0915901F0915A01BB
:10067000238121FF1BC08C01D0E0C0E0F8018191F3
:100680008F016091590170915A01DB011896ED912B
:10069000FC911997882331F00995892B79F3DFEFC5
:1006A000CFEFECCF8AE00995892B19F08FEF9FEF00
:1006B00002C08D2F9C2FDF91CF911F910F91089534
:1006C000A0E0B0E0E6E6F3E00C943209AE014B5F47
:1006D0005F4FFA0161917191AF0180915701909143
:1006E00058010E94F306E2E00C944E09ABE0B0E042
:1006F000ECE7F3E00C9422096C017B018A01FC0118
:1007000017821682838181FFCCC1CE0101963C0104
:10071000F6019381F70193FD859193FF81917F010C
:10072000882309F4BAC1853239F493FD859193FF8A
:1007300081917F01853229F4B60190E00E946C0816
:10074000E7CF912C212C312CFFE1F315D8F08B321F
:1007500079F038F4803279F08332A1F4232D2061CE
:100760001DC08D3261F0803369F4232D216016C0E5
:10077000832D8260382EE32DE4603E2E2AC0F32DB7
:10078000F8601DC037FC2DC020ED280F2A3040F046
:100790008E32B9F436FC81C1232D2064322E19C06B
:1007A00036FE06C08AE0989E200D1124922E11C0BC
:1007B000EAE02E9E200D1124222EF32DF0623F2E12
:1007C00008C08C3621F4832D8068382E02C088360C
:1007D00041F4F70193FD859193FF81917F01811190
:1007E000B3CF982F9F7D9554933028F40C5F1F4F03
:1007F0009FE399830DC0833631F0833771F08335E1
:1008000009F059C021C0F801808189830E5F1F4F14
:1008100088248394912C530113C02801F2E04F0ED9
:10082000511CF801A080B18036FE03C0692D70E034
:1008300002C06FEF7FEFC5010E9423084C018201C7
:10084000F32DFF773F2E16C0280122E0420E511CE7
:10085000F801A080B18036FE03C0692D70E002C0AF
:100860006FEF7FEFC5010E9418084C01F32DF0686F
:100870003F2E820133FC1BC0822D90E08816990622
:10088000B0F4B60180E290E00E946C082A94F4CFA4
:10089000F50137FC859137FE81915F01B60190E04B
:1008A0000E946C0821102A9421E0821A9108811478
:1008B000910471F7E8C0843611F0893641F5F801EA
:1008C00037FE07C060817181828193810C5F1F4F69
:1008D00008C060817181072E000C880B990B0E5F98
:1008E0001F4FF32DFF763F2E97FF09C090958095FF
:1008F000709561957F4F8F4F9F4FF0683F2E2AE094
:1009000030E0A3010E94C108882E861845C08537B3
:1009100031F4232D2F7EB22E2AE030E025C0932D16
:10092000997FB92E8F36C1F018F4883579F0B5C0AB
:10093000803719F0883721F0B0C0E92FE061BE2E72
:10094000B4FE0DC0FB2DF460BF2E09C034FE0AC0FA
:10095000292F2660B22E06C028E030E005C020E135
:1009600030E002C020E132E0F801B7FE07C060814C
:100970007181828193810C5F1F4F06C060817181FC
:1009800080E090E00E5F1F4FA3010E94C108882EF7
:100990008618FB2DFF773F2E36FE0DC0232D2E7FB0
:1009A000A22E891458F434FE0BC032FC09C0832DEA
:1009B0008E7EA82E05C0B82CA32C03C0B82C01C075
:1009C000B92CA4FE0FC0FE01E80DF11D808180331B
:1009D00021F49A2D997EA92E09C0A2FE06C0B394D7
:1009E000B39404C08A2D867809F0B394A3FC11C097
:1009F000A0FE06C0B21488F4280C922C9B180EC0DE
:100A0000B21460F4B60180E290E00E946C08B394E6
:100A1000F7CFB21418F42B1802C0982C212CA4FE86
:100A200010C0B60180E390E00E946C08A2FE17C0DF
:100A3000A1FC03C088E790E002C088E590E0B60121
:100A40000CC08A2D867859F0A1FE02C08BE201C04D
:100A500080E2A7FC8DE2B60190E00E946C08891448
:100A600038F4B60180E390E00E946C089A94F7CFC6
:100A70008A94F301E80DF11D8081B60190E00E9497
:100A80006C088110F5CF222009F442CEB60180E235
:100A900090E00E946C082A94F6CFF6018681978137
:100AA00002C08FEF9FEF2B96E2E10C943E0920FDF0
:100AB00009C0FC0123FD05C022FF02C073836283CD
:100AC00051834083089544FD17C046FD17C0AB0114
:100AD000BC01DA01FB01AA0FBB1FEE1FFF1F109420
:100AE000D1F74A0F5B1F6E1F7F1FCB01BA01660F44
:100AF000771F881F991F09C033E001C034E0660FDB
:100B0000771F881F991F3150D1F7620F711D811D0A
:100B1000911D08950F931F93CF93DF938C01C8010C
:100B20000E942E08EC0197FD08C00E940408892B42
:100B3000B1F7B801CE010E94A808CE01DF91CF9194
:100B40001F910F9108958F929F92AF92BF92EF9253
:100B5000FF920F931F93CF93DF938C01D62F7A01CF
:100B6000B22E0E942E089C0133272B32310531F022
:100B70002D32310561F48B2D8068B82ED15011F4DF
:100B800080E068C0C8010E942E0897FDF9CFCB2DE8
:100B9000CD7F2B2D207309F58033F9F4AA24AA9474
:100BA000AD0E09F443C0C8010E942E0897FD3EC057
:100BB0009C012F7D33272835310549F4C264D2507A
:100BC000A9F1C8010E942E0897FF07C02FC0B6FEEA
:100BD00002C0C26001C0C261DA2D812C912C540187
:100BE00020ED280F283080F0C4FF04C0B8010E9417
:100BF000A80819C02A3040F0C6FFF8CF2F7D3FEE7D
:100C0000320F363098F727504C2FC501B4010E949F
:100C100063054B015C01C260D15059F0C8010E94CC
:100C20002E0897FFDDCFC1FD04C0AACF812C912CE7
:100C30005401C7FF08C0B094A09490948094811C84
:100C4000911CA11CB11C2C2FB501A401C7010E944D
:100C5000570581E0DF91CF911F910F91FF90EF90A9
:100C6000BF90AF909F908F900895A0E2B0E0EBE32B
:100C7000F6E00C9425095C01962E7A01F9018E01AB
:100C80000F5F1F4F680180E2D8011D928A95E9F736
:100C9000D50113968C9080E090E0612C712C30E0AF
:100CA00061E070E083FC259183FE21918F01522E3B
:100CB000211103C080E090E092C02E3511F400971E
:100CC00051F1432F50E0481759073CF42D3559F1A5
:100CD0002D3219F4772009F103C0772009F46AC096
:100CE000452D469546954695D601A40FB11D452D37
:100CF00047708B0102C0000F111F4A95E2F7A8014F
:100D00005C91452B4C93651459F0561410F4539490
:100D1000E7CF5A94E5CF31E004C07724739401C043
:100D2000712C0196BFCF772019F08E8180628E835F
:100D3000311103C08824839417C0F6019E012F5DF2
:100D40003F4F8081809581932E173F07D1F7F2CFD7
:100D5000E114F10429F0D7018C93F70131967F015A
:100D60009A94812C9920F9F0C5010E942E0897FDD4
:100D700018C0FC01FF2723E0F595E7952A95E1F7D8
:100D8000EC0DFD1D208130E0AC014770552702C0FD
:100D9000359527954A95E2F720FDDACFB5010E94F7
:100DA000A808811087CFE114F10411F0D7011C923B
:100DB000C80115C0422F469546954695D601A40F09
:100DC000B11D422F47708B0102C0000F111F4A95C1
:100DD000E2F7A8015C91452B4C93622EA2CFA0961E
:100DE000EFE00C944109A0E0B0E0E9EFF6E00C94EC
:100DF00025096C01EB015A01FC0117821682512C66
:100E0000F601E380FE01E3FC8591E3FE8191182F5A
:100E1000EF01882309F4EEC090E00E940408892BBA
:100E200021F0C6010E948A05EBCF153241F4FE0184
:100E3000E3FC1591E3FE1191EF01153281F4C60137
:100E40000E942E0897FDD4C0412F50E09C0133270B
:100E500024173507A9F2B6010E94A808CBC01A32A0
:100E600039F4E3FC1591E3FE1191EF0101E001C0BB
:100E700000E0F12C20ED210F2A3080F402606F2D6C
:100E800070E080E090E040E20E946305F62EFE01F3
:100E9000E3FC1591E3FE1191EF01ECCF01FF03C0DC
:100EA000F11003C0A7C0FF24FA94183619F01C36BD
:100EB00051F010C0FE01E3FC1591E3FE1191EF012A
:100EC000183641F408600460FE01E3FC1591E3FE6E
:100ED0001191EF01112309F48DC0612F70E088E8B2
:100EE00090E00E940D08892B09F484C000FD07C022
:100EF000F50180809180C50102965C0102C0812CC1
:100F0000912C1E3651F4F6014681578160E070E065
:100F1000202FC4010E94570573CF1336A9F401FD99
:100F200002C0FF24F394C6010E942E0897FD60C002
:100F30008114910429F0F4018083C40101964C01CD
:100F4000FA94F110F0CF50C01B3559F49E01A40162
:100F50006F2DC6010E943506EC01892B09F044C0B3
:100F60003EC0C6010E948A0597FD42C01F3661F14E
:100F700028F4143639F1193651F128C0133771F0BD
:100F8000153701F123C08114910429F0F401608226
:100F9000C40101964C01FA94FF2071F0C6010E9431
:100FA0002E083C0197FD08C00E940408892B59F3C4
:100FB000B601C3010E94A80881149104A9F0F401AC
:100FC000108212C0006203C0006101C00064202FC3
:100FD000A4016F2DC6010E94A305811105C0F60171
:100FE0008381807329F406C000FD0ACF539408CF93
:100FF000552019F0852D90E002C08FEF9FEFCDB7FF
:10100000DEB7EFE00C94410991110C941F09803276
:1010100019F089508550C8F70895FC01059006160F
:1010200021F00020D9F7C00108953197CF0108952C
:10103000FC010590615070400110D8F780959095A3
:101040008E0F9F1F0895FC016150704001900110A8
:10105000D8F7809590958E0F9F1F0895CF93DF93BB
:10106000EC012B8120FF33C026FF0AC02F7B2B838E
:101070008E819F8101969F838E838A8190E029C013
:1010800022FF0FC0E881F9818081082E000C990BA6
:10109000009719F420622B831AC03196F983E883F4
:1010A0000EC0EA85FB85099597FF09C02B81019643
:1010B00011F080E201C080E1822B8B8308C02E8179
:1010C0003F812F5F3F4F3F832E83992702C08FEFD1
:1010D0009FEFDF91CF9108950F931F93CF93DF93ED
:1010E000FB01238121FD03C08FEF9FEF2CC022FF66
:1010F00016C046815781248135814217530744F435
:10110000A081B1819D012F5F3F4F318320838C935C
:10111000268137812F5F3F4F3783268314C08B0191
:10112000EC01FB010084F185E02D0995892BE1F6A6
:10113000D80116968D919C911797019617969C93BE
:101140008E931697CE01DF91CF911F910F91089545
:10115000FB01238120FF12C026FD10C08F3F3FEF0F
:10116000930761F082832F7D20642383268137815A
:101170002150310937832683992708958FEF9FEFF8
:101180000895FA01AA27283051F1203181F1E8941D
:101190006F936E7F6E5F7F4F8F4F9F4FAF4FB1E06A
:1011A0003ED0B4E03CD0670F781F891F9A1FA11D65
:1011B000680F791F8A1F911DA11D6A0F711D811D66
:1011C000911DA11D20D009F468943F912AE0269F2B
:1011D00011243019305D3193DEF6CF010895462F8A
:1011E0004770405D4193B3E00FD0C9F7F6CF462F6B
:1011F0004F70405D4A3318F0495D31FD40524193D4
:1012000002D0A9F7EACFB4E0A69597958795779590
:101210006795BA95C9F700976105710508959B0117
:10122000AC010A2E06945795479537952795BA95A0
:10123000C9F7620F731F841F951FA01D089599277A
:10124000882708952F923F924F925F926F927F92DC
:101250008F929F92AF92BF92CF92DF92EF92FF92C6
:101260000F931F93CF93DF93CDB7DEB7CA1BDB0B72
:101270000FB6F894DEBF0FBECDBF09942A88398817
:1012800048885F846E847D848C849B84AA84B9841E
:10129000C884DF80EE80FD800C811B81AA81B9812A
:1012A000CE0FD11D0FB6F894DEBF0FBECDBFED013E
:0612B0000895F894FFCF41
:1012B60000000001000000000000F0020000000035
:1012C600000200000000E0020000000041646166C8
:1012D600727569742031343338004D6F746F722023
:1012E6006E756D6265723A0025640053746172749E
:1012F6003F0053706565643A2025640A00537065A3
:0613060065643A2030008E
:00000001FF
