S01400004D6F746F725F6472697665722E7372656314
S11300000C944A000C9467000C9467000C946700ED
S11300100C9467000C9467000C9467000C946700C0
S11300200C9467000C9467000C9467000C946700B0
S11300300C9467000C9467000C9467000C946700A0
S11300400C9467000C9467000C9467000C94670090
S11300500C9467000C9467000C9467000C94670080
S11300600C9467000C9467001202AF011502B201F0
S11300700C02AC010F02B50136023B0240024502FC
S11300804A024F02540259026364696E6F707375B9
S113009078585B0011241FBECFEFD8E0DEBFCDBF80
S11300A011E0A0E0B1E0EAE4F7E102C005900D92AE
S11300B0A436B107D9F721E0A4E6B1E001C01D924E
S11300C0AB36B207E1F70E94C5000C94A30B0C9465
S11300D000001F93CF93DF93182FEB01DD2354F01F
S11300E062E00E949F0140E050E0BE01812F0E9427
S11300F01A020CC061E00E949F01662777276C1BDF
S11301007D0B40E050E0812F0E941A02DF91CF91D5
S11301101F910895CF92DF92EF92FF926B017C01C1
S113012020E030E0A9010E948D03181664F01F92AC
S11301301F928CE191E09F938F930E9464050F902E
S11301400F900F900F9020E030E0A901C701B60195
S11301500E94EC04181694F420E030ED47EF55ECBF
S1130160C701B6010E94F10420E030EA4FE755E4EC
S11301700E9421030E940404CB0102C080E090E0AD
S1130180FF90EF90DF90CF900895CF93DF9300D04E
S113019000D0CDB7DEB70E9404030E94A4020E94DF
S11301A015038FEF8AB980EF87B98FE388B91BB83D
S11301B083E00E94790288E291E00E947A0560E07F
S11301C081E00E949F0160E082E00E949F0160E064
S11301D083E00E949F0160E084E00E949F0160E050
S11301E085E00E949F0160E086E00E949F0160E03C
S11301F087E00E949F0181E090E09A83898386E3EF
S113020091E00E947A05CE0101969F938F9384E436
S113021091E09F938F930E94AA050F900F900F90E7
S11302200F906E0183E0C80ED11C0F2EF4E4EF2E64
S1130230F1E0FF2EF02D0BE511E087E491E00E9440
S11302407A05DF92CF92FF92EF920E94AA056B810A
S11302507C81072E000C880B990B0E943C0420E043
S113026030E048EC52E40E9492034B015C010E948E
S11302708A009F938F931F930F930E946405C50177
S1130280B4010E948A00BC0189810E9469000FB6F2
S1130290F894DEBF0FBECDBFD0CF611110C021E0F6
S11302A030E0A90102C0440F551F8A95E2F7CA0144
S11302B080959091640189238093640110C061301A
S11302C071F421E030E0A90102C0440F551F8A9562
S11302D0E2F7CA0190916401892B8093640180E75D
S11302E00E94AA02809164010E94DA020E94D10253
S11302F00895CF93DF93D82FC62F80EC0E94AA02D3
S11303008D2F0E94DA02C1110AC080E00E94DA0235
S113031080E00E94DA0280E10E94DA020BC0C13060
S113032049F480E10E94DA0280E00E94DA0280E06F
S11303300E94DA020E94D102DF91CF910895CF93F7
S1130340962F482F50E0FA013197E830F10580F4F8
S1130350EC5CFF4F0C945E05C3E082E036C0C7E35B
S113036083E30AC0CFE18BE107C0C7E086E02DC07C
S1130370853048F5C0E080E0923029F0933099F060
S11303809130C9F408C060E00E94790161E08C2FCB
S11303900E9479014DC061E00E94790160E08C2FD8
S11303A00E94790145C061E00E94790161E08C2FCF
S11303B00E9479013DC060E00E94790160E08C2FC9
S11303C00E94790135C0C0E080E0923029F093307A
S11303D099F09130C9F408C060E00E944D0161E0D9
S11303E08C2F0E944D0124C061E00E944D0160E009
S11303F08C2F0E944D011CC061E00E944D0161E000
S11304008C2F0E944D0114C060E00E944D0160E0F9
S11304108C2F0E944D010CC0C1E080E0D6CFC5E016
S113042084E0D3CFCBE28FE2A7CFC3E187E1A4CFAF
S1130430CF910895FF920F931F93CF93DF938B0176
S1130440EA016115704110F000E010E0C11590E17F
S1130450D90710F0C0E0D0E090E0FC013197E8301B
S1130460F10560F5E45CFF4F0C945E050F2EF6E297
S1130470FF2EF02D24C00F2EFAE3FF2EF02D1FC007
S11304800F2EFEE0FF2EF02D1AC00F2EF2E2FF2EEB
S1130490F02D15C00F2EF6E0FF2EF02D10C00F2EFC
S11304A0FAE0FF2EF02D0BC00F2EFEE3FF2EF02DF1
S11304B006C00F2EF2E4FF2EF02D01C0F12C80ECCB
S11304C00E94AA028F2D0E94DA02802F0E94DA0273
S11304D0812F0E94DA028C2F0E94DA028D2F0E9453
S11304E0DA020E94D102DF91CF911F910F91FF9008
S11304F00895CF93C82F80EC0E94AA0280E00E9446
S1130500DA0280E30E94DA020E94D10280EC0E94A7
S1130510AA028EEF0E94DA028C2F0E94DA0280EC8B
S11305200E94AA0280E00E94DA0280E20E94DA02BB
S11305300E94D10280E70E94AA0280E00E94DA02AF
S11305400E94D102CF9108951092B9008CE080935B
S1130550B800089594EA9093BC00ECEBF0E090812D
S11305609923ECF79091B900987F983011F090316D
S1130570A1F48093BB0084E88093BC00ECEBF0E032
S113058080818823ECF79091B900987F983139F0F5
S113059081E0903429F480E0089581E0089580E0BA
S11305A0089584E98093BC00ECEBF0E0808184FD45
S11305B0FDCF08958093BB0084E88093BC00ECEBEE
S11305C0F0E080818823ECF79091B900987F81E076
S11305D0983209F480E00895CF93C82F8A3019F433
S11305E08DE00E94EC02E0ECF0E0808185FFFDCF1D
S11305F0C093C600CF910895E0ECF0E08081882399
S1130600ECF78091C60008951092C50087E68093A8
S1130610C400E0ECF0E080818D7F808386E08093ED
S1130620C20088E18093C1000895E5E6F1E08EE020
S113063091E09383828380E091E0918380830895A5
S11306405058BB27AA270E9438030C94B2040E9476
S1130650A40438F00E94AB0420F039F49F3F19F44D
S113066026F40C94A1040EF4E095E7FB0C949B048F
S1130670E92F0E94C30458F3BA176207730784076B
S1130680950720F079F4A6F50C94E5040EF4E095B2
S11306900B2EBA2FA02D0B01B90190010C01CA0138
S11306A0A0011124FF27591B99F0593F50F4503EE3
S11306B068F11A16F040A22F232F342F4427585FD5
S11306C0F3CF469537952795A795F0405395C9F7ED
S11306D07EF41F16BA0B620B730B840BBAF09150A5
S11306E0A1F0FF0FBB1F661F771F881FC2F70EC044
S11306F0BA0F621F731F841F48F487957795679517
S1130700B795F7959E3F08F0B0CF9395880F08F002
S11307109927EE0F9795879508950E94770408F41A
S113072081E008950E94A6030C94B2040E94AB04D5
S113073058F00E94A40440F029F45F3F29F00C947F
S11307409B0451110C94E6040C94A1040E94C3046C
S113075068F39923B1F3552391F3951B550BBB27EC
S1130760AA2762177307840738F09F5F5F4F220F31
S1130770331F441FAA1FA9F335D00E2E3AF0E0E828
S113078032D091505040E695001CCAF72BD0FE2F72
S113079029D0660F771F881FBB1F26173707480706
S11307A0AB07B0E809F0BB0B802DBF01FF279358BE
S11307B05F4F3AF09E3F510578F00C949B040C94E3
S11307C0E6045F3FE4F3983ED4F386957795679506
S11307D0B795F7959F5FC9F7880F911D96958795F3
S11307E097F90895E1E0660F771F881FBB1F621712
S11307F073078407BA0720F0621B730B840BBA0BD0
S1130800EE1F88F7E09508950E940B046894B111D7
S11308100C94E60408950E94CB0488F09F5798F046
S1130820B92F9927B751B0F0E1F0660F771F881FF1
S1130830991F1AF0BA95C9F714C0B13091F00E940B
S1130840E504B1E008950C94E504672F782F882718
S1130850B85F39F0B93FCCF3869577956795B39532
S1130860D9F73EF490958095709561957F4F8F4FA1
S11308709F4F0895E89409C097FB3EF490958095A6
S1130880709561957F4F8F4F9F4F9923A9F0F92F52
S113089096E9BB279395F695879577956795B795D0
S11308A0F111F8CFFAF4BB0F11F460FF1BC06F5FB6
S11308B07F4F8F4F9F4F16C0882311F096E911C0C8
S11308C0772321F09EE8872F762F05C0662371F0E9
S11308D096E8862F70E060E02AF09A95660F771FFD
S11308E0881FDAF7880F9695879597F90895990FD9
S11308F00008550FAA0BE0E8FEEF16161706E807E6
S1130900F907C0F012161306E407F50798F0621B06
S1130910730B840B950B39F40A2661F0232B242BDB
S1130920252B21F408950A2609F4A140A6958FEFFA
S1130930811D811D089597F99F6780E870E060E04C
S113094008959FEF80EC089500240A941616170664
S113095018060906089500240A94121613061406AC
S113096005060895092E0394000C11F4882352F00F
S1130970BB0F40F4BF2B11F460FF04C06F5F7F4FC7
S11309808F4F9F4F089557FD9058440F551F59F0AE
S11309905F3F71F04795880F97FB991F61F09F3F68
S11309A079F087950895121613061406551FF2CF91
S11309B04695F1DF08C0161617061806991FF1CFE1
S11309C086957105610508940895E894BB27662708
S11309D07727CB0197F908950E94770408F48FEFE5
S11309E008950E9404050C94B2040E94A40438F0F3
S11309F00E94AB0420F0952311F00C949B040C94FA
S1130A00A10411240C94E6040E94C30470F3959F7E
S1130A10C1F3950F50E0551F629FF001729FBB27F1
S1130A20F00DB11D639FAA27F00DB11DAA1F649F8D
S1130A306627B00DA11D661F829F2227B00DA11D40
S1130A40621F739FB00DA11D621F839FA00D611DC6
S1130A50221F749F3327A00D611D231F849F600DE7
S1130A60211D822F762F6A2F11249F5750409AF010
S1130A70F1F088234AF0EE0FFF1FBB1F661F771F9C
S1130A80881F91505040A9F79E3F510580F00C9467
S1130A909B040C94E6045F3FE4F3983ED4F38695FC
S1130AA077956795B795F795E7959F5FC1F7FE2B07
S1130AB0880F911D9695879597F90895EE0FFF1F5E
S1130AC00590F491E02D0994A0E0B0E0EAE6F5E0A9
S1130AD00C947C0BAE014B5F5F4FFA0161917191F5
S1130AE0AF0180916701909168010E94C005E2E026
S1130AF00C94980B0F931F93CF93DF93E0916701AE
S1130B00F0916801238121FF1BC08C01D0E0C0E07B
S1130B10F80181918F016091670170916801DB0197
S1130B201896ED91FC911997882331F00995892B3A
S1130B3079F3DFEFCFEFECCF8AE00995892B19F039
S1130B408FEF9FEF02C08D2F9C2FDF91CF911F91CC
S1130B500F910895A0E0B0E0E0EBF5E00C947C0B7D
S1130B60AE014B5F5F4FFA0161917191AF018091CA
S1130B706501909166010E943D09E2E00C94980B96
S1130B80ABE0B0E0E6ECF5E00C946C0B6C017B019F
S1130B908A01FC0117821682838181FFCCC1CE01B8
S1130BA001963C01F6019381F70193FD859193FF32
S1130BB081917F01882309F4BAC1853239F493FD08
S1130BC0859193FF81917F01853229F4B60190E0EC
S1130BD00E94B60AE7CF912C212C312CFFE1F315AA
S1130BE0D8F08B3279F038F4803279F08332A1F482
S1130BF0232D20611DC08D3261F0803369F4232DD3
S1130C00216016C0832D8260382EE32DE4603E2ED1
S1130C102AC0F32DF8601DC037FC2DC020ED280F2D
S1130C202A3040F08E32B9F436FC81C1232D206481
S1130C30322E19C036FE06C08AE0989E200D11247B
S1130C40922E11C0EAE02E9E200D1124222EF32DA7
S1130C50F0623F2E08C08C3621F4832D8068382E34
S1130C6002C0883641F4F70193FD859193FF819189
S1130C707F018111B3CF982F9F7D9554933028F431
S1130C800C5F1F4F9FE399830DC0833631F0833788
S1130C9071F0833509F059C021C0F801808189833E
S1130CA00E5F1F4F88248394912C530113C0280195
S1130CB0F2E04F0E511CF801A080B18036FE03C053
S1130CC0692D70E002C06FEF7FEFC5010E946D0ACD
S1130CD04C018201F32DFF773F2E16C0280122E03C
S1130CE0420E511CF801A080B18036FE03C0692D6C
S1130CF070E002C06FEF7FEFC5010E94620A4C01F1
S1130D00F32DF0683F2E820133FC1BC0822D90E04E
S1130D1088169906B0F4B60180E290E00E94B60A03
S1130D202A94F4CFF50137FC859137FE81915F0158
S1130D30B60190E00E94B60A21102A9421E0821A9A
S1130D4091088114910471F7E8C0843611F0893652
S1130D5041F5F80137FE07C060817181828193817A
S1130D600C5F1F4F08C060817181072E000C880B37
S1130D70990B0E5F1F4FF32DFF763F2E97FF09C08F
S1130D8090958095709561957F4F8F4F9F4FF06838
S1130D903F2E2AE030E0A3010E940B0B882E861818
S1130DA045C0853731F4232D2F7EB22E2AE030E062
S1130DB025C0932D997FB92E8F36C1F018F488354C
S1130DC079F0B5C0803719F0883721F0B0C0E92F29
S1130DD0E061BE2EB4FE0DC0FB2DF460BF2E09C031
S1130DE034FE0AC0292F2660B22E06C028E030E067
S1130DF005C020E130E002C020E132E0F801B7FE96
S1130E0007C060817181828193810C5F1F4F06C08E
S1130E106081718180E090E00E5F1F4FA3010E940A
S1130E200B0B882E8618FB2DFF773F2E36FE0DC048
S1130E30232D2E7FA22E891458F434FE0BC032FCCD
S1130E4009C0832D8E7EA82E05C0B82CA32C03C008
S1130E50B82C01C0B92CA4FE0FC0FE01E80DF11D91
S1130E608081803321F49A2D997EA92E09C0A2FE97
S1130E7006C0B394B39404C08A2D867809F0B39461
S1130E80A3FC11C0A0FE06C0B21488F4280C922C56
S1130E909B180EC0B21460F4B60180E290E00E9488
S1130EA0B60AB394F7CFB21418F42B1802C0982CD6
S1130EB0212CA4FE10C0B60180E390E00E94B60A83
S1130EC0A2FE17C0A1FC03C088E790E002C088E539
S1130ED090E0B6010CC08A2D867859F0A1FE02C0BC
S1130EE08BE201C080E2A7FC8DE2B60190E00E9493
S1130EF0B60A891438F4B60180E390E00E94B60A79
S1130F009A94F7CF8A94F301E80DF11D8081B6011C
S1130F1090E00E94B60A8110F5CF222009F442CE57
S1130F20B60180E290E00E94B60A2A94F6CFF60158
S1130F308681978102C08FEF9FEF2B96E2E10C949C
S1130F40880B20FD09C0FC0123FD05C022FF02C05F
S1130F507383628351834083089544FD17C046FD23
S1130F6017C0AB01BC01DA01FB01AA0FBB1FEE1FC6
S1130F70FF1F1094D1F74A0F5B1F6E1F7F1FCB0119
S1130F80BA01660F771F881F991F09C033E001C09B
S1130F9034E0660F771F881F991F3150D1F7620F15
S1130FA0711D811D911D08950F931F93CF93DF939E
S1130FB08C01C8010E94780AEC0197FD08C00E94C8
S1130FC04E0A892BB1F7B801CE010E94F20ACE0174
S1130FD0DF91CF911F910F9108958F929F92AF92BD
S1130FE0BF92EF92FF920F931F93CF93DF938C01E5
S1130FF0D62F7A01B22E0E94780A9C0133272B3215
S1131000310531F02D32310561F48B2D8068B82E15
S1131010D15011F480E068C0C8010E94780A97FD9D
S1131020F9CFCB2DCD7F2B2D207309F58033F9F427
S1131030AA24AA94AD0E09F443C0C8010E94780AF8
S113104097FD3EC09C012F7D33272835310549F497
S1131050C264D250A9F1C8010E94780A97FF07C060
S11310602FC0B6FE02C0C26001C0C261DA2D812C5D
S1131070912C540120ED280F283080F0C4FF04C0C7
S1131080B8010E94F20A19C02A3040F0C6FFF8CF16
S11310902F7D3FEE320F363098F727504C2FC50185
S11310A0B4010E94AD074B015C01C260D15059F0FC
S11310B0C8010E94780A97FFDDCFC1FD04C0AACF02
S11310C0812C912C5401C7FF08C0B094A094909433
S11310D08094811C911CA11CB11C2C2FB501A4016E
S11310E0C7010E94A10781E0DF91CF911F910F9169
S11310F0FF90EF90BF90AF909F908F900895A0E2E3
S1131100B0E0E5E8F8E00C946F0B5C01962E7A01F0
S1131110F9018E010F5F1F4F680180E2D8011D9213
S11311208A95E9F7D50113968C9080E090E0612CC4
S1131130712C30E061E070E083FC259183FE219105
S11311408F01522E211103C080E090E092C02E3511
S113115011F4009751F1432F50E0481759073CF41C
S11311602D3559F12D3219F4772009F103C0772078
S113117009F46AC0452D469546954695D601A40FB7
S1131180B11D452D47708B0102C0000F111F4A95F8
S1131190E2F7A8015C91452B4C93651459F0561461
S11311A010F45394E7CF5A94E5CF31E004C0772488
S11311B0739401C0712C0196BFCF772019F08E81F2
S11311C080628E83311103C08824839417C0F60192
S11311D09E012F5D3F4F8081809581932E173F079D
S11311E0D1F7F2CFE114F10429F0D7018C93F70180
S11311F031967F019A94812C9920F9F0C5010E94BF
S1131200780A97FD18C0FC01FF2723E0F595E795C0
S11312102A95E1F7EC0DFD1D208130E0AC0147700B
S1131220552702C0359527954A95E2F720FDDACF78
S1131230B5010E94F20A811087CFE114F10411F084
S1131240D7011C92C80115C0422F46954695469574
S1131250D601A40FB11D422F47708B0102C0000FAD
S1131260111F4A95E2F7A8015C91452B4C93622E1D
S1131270A2CFA096EFE00C948B0BA0E0B0E0E3E4E7
S1131280F9E00C946F0B6C01EB015A01FC0117821D
S11312901682512CF601E380FE01E3FC8591E3FE06
S11312A08191182FEF01882309F4EEC090E00E9489
S11312B04E0A892B21F0C6010E94D407EBCF1532C8
S11312C041F4FE01E3FC1591E3FE1191EF011532A7
S11312D081F4C6010E94780A97FDD4C0412F50E0E2
S11312E09C01332724173507A9F2B6010E94F20A9C
S11312F0CBC01A3239F4E3FC1591E3FE1191EF01EE
S113130001E001C000E0F12C20ED210F2A3080F42F
S113131002606F2D70E080E090E040E20E94AD0733
S1131320F62EFE01E3FC1591E3FE1191EF01ECCFE3
S113133001FF03C0F11003C0A7C0FF24FA941836BC
S113134019F01C3651F010C0FE01E3FC1591E3FEC8
S11313501191EF01183641F408600460FE01E3FCCA
S11313601591E3FE1191EF01112309F48DC0612F52
S113137070E088E890E00E94570A892B09F484C041
S113138000FD07C0F50180809180C50102965C01D3
S113139002C0812C912C1E3651F4F60146815781EE
S11313A060E070E0202FC4010E94A10773CF1336C0
S11313B0A9F401FD02C0FF24F394C6010E94780A37
S11313C097FD60C08114910429F0F4018083C40165
S11313D001964C01FA94F110F0CF50C01B3559F42A
S11313E09E01A4016F2DC6010E947F08EC01892B88
S11313F009F044C03EC0C6010E94D40797FD42C014
S11314001F3661F128F4143639F1193651F128C028
S1131410133771F0153701F123C08114910429F0B9
S1131420F4016082C40101964C01FA94FF2071F02A
S1131430C6010E94780A3C0197FD08C00E944E0A2A
S1131440892B59F3B601C3010E94F20A8114910455
S1131450A9F0F401108212C0006203C0006101C04F
S11314600064202FA4016F2DC6010E94ED07811195
S113147005C0F6018381807329F406C000FD0ACFFC
S1131480539408CF552019F0852D90E002C08FEFBA
S11314909FEFCDB7DEB7EFE00C948B0B91110C945A
S11314A0690B803219F089508550C8F70895FC0102
S11314B00590061621F00020D9F7C0010895319750
S11314C0CF010895FC010590615070400110D8F7D8
S11314D0809590958E0F9F1F0895FC016150704078
S11314E001900110D8F7809590958E0F9F1F089555
S11314F0CF93DF93EC012B8120FF33C026FF0AC07A
S11315002F7B2B838E819F8101969F838E838A817B
S113151090E029C022FF0FC0E881F9818081082E64
S1131520000C990B009719F420622B831AC0319692
S1131530F983E8830EC0EA85FB85099597FF09C006
S11315402B81019611F080E201C080E1822B8B8314
S113155008C02E813F812F5F3F4F3F832E83992701
S113156002C08FEF9FEFDF91CF9108950F931F93E8
S1131570CF93DF93FB01238121FD03C08FEF9FEF06
S11315802CC022FF16C04681578124813581421721
S1131590530744F4A081B1819D012F5F3F4F3183F4
S11315A020838C93268137812F5F3F4F3783268397
S11315B014C08B01EC01FB010084F185E02D099539
S11315C0892BE1F6D80116968D919C911797019677
S11315D017969C938E931697CE01DF91CF911F910E
S11315E00F910895FB01238120FF12C026FD10C036
S11315F08F3F3FEF930761F082832F7D2064238325
S1131600268137812150310937832683992708950C
S11316108FEF9FEF0895FA01AA27283051F1203166
S113162081F1E8946F936E7F6E5F7F4F8F4F9F4F72
S1131630AF4FB1E03ED0B4E03CD0670F781F891FB4
S11316409A1FA11D680F791F8A1F911DA11D6A0F82
S1131650711D811D911DA11D20D009F468943F9135
S11316602AE0269F11243019305D3193DEF6CF0134
S11316700895462F4770405D4193B3E00FD0C9F7FA
S1131680F6CF462F4F70405D4A3318F0495D31FD67
S11316904052419302D0A9F7EACFB4E0A6959795BA
S11316A0879577956795BA95C9F700976105710590
S11316B008959B01AC010A2E0694579547953795DA
S11316C02795BA95C9F7620F731F841F951FA01D34
S11316D008959927882708952F923F924F925F92F9
S11316E06F927F928F929F92AF92BF92CF92DF922E
S11316F0EF92FF920F931F93CF93DF93CDB7DEB793
S1131700CA1BDB0B0FB6F894DEBF0FBECDBF099426
S11317102A88398848885F846E847D848C849B847D
S1131720AA84B984C884DF80EE80FD800C811B818B
S1131730AA81B981CE0FD11D0FB6F894DEBF0FBEBA
S10D1740CDBFED010895F894FFCF2A
S113174A00000001000000000000FC02000000008C
S113175A000200000000EC02000000004F757470E3
S113176A75743A2025640A00416461667275697465
S113177A2031343338004D6F746F72206E756D6288
S113178A65723A00256400496E70757420616E2092
S113179A5250532076616C75653A005350453A208D
S10717AA25640A00A4
S9030000FC
