S01400004D6F746F725F6472697665722E7372656314
S11300000C944A000C9467000C9467000C946700ED
S11300100C9467000C9467000C9467000C946700C0
S11300200C9467000C9467000C9467000C946700B0
S11300300C9467000C9467000C9467000C946700A0
S11300400C9467000C9467000C9467000C94670090
S11300500C9467000C9467000C9467000C94670080
S11300600C9467000C946700FE019B0101029E0141
S1130070F8019801FB01A101220227022C0231029E
S113008036023B02400245026364696E6F70737509
S113009078585B0011241FBECFEFD8E0DEBFCDBF80
S11300A011E0A0E0B1E0EEE8F6E102C005900D92A7
S11300B0A235B107D9F721E0A2E5B1E001C01D9254
S11300C0A935B207E1F70E94C1000C94450B0C94CA
S11300D000001F93CF93DF93182FEB01DD2354F01F
S11300E062E00E948B0140E050E0BE01812F0E943B
S11300F006020CC061E00E948B01662777276C1B07
S11301007D0B40E050E0812F0E940602DF91CF91E9
S11301101F910895CF92DF92EF92FF926B017C01C1
S113012020E030E0A9010E947903181644F08CE124
S113013091E09F938F930E9406050F900F9020E00B
S113014030E0A901C701B6010E946604181694F4B0
S113015020E030ED47EF55ECC701B6010E946B0477
S113016020E030EA4FE755E40E940D030E947E032D
S1130170CB0102C080E090E0FF90EF90DF90CF9041
S11301800895CF93DF9300D000D0CDB7DEB70E949F
S1130190F0020E9490020E9401038FEF8AB980EF5F
S11301A087B98FE388B91BB883E00E94650286E2B1
S11301B091E00E941C0560E081E00E948B0160E0F8
S11301C082E00E948B0160E083E00E948B0160E08A
S11301D084E00E948B0160E085E00E948B0160E076
S11301E086E00E948B0160E087E00E948B0181E041
S11301F090E09C838B8384E391E00E941C05CE01F4
S113020003969F938F9382E491E09F938F930E9430
S11302104C051A8219820F900F900F900F90CE0107
S113022001966C0102E411E00F2EF4E6EF2EF12C9E
S1130230F02D85E491E00E941C05DF92CF921F937C
S11302400F930E944C0589819A81B7010E94D804BA
S1130250072E000C880B990B0E94B6030E948A009B
S1130260BC018B810E9469000F900F900F900F903A
S1130270E0CF611110C021E030E0A90102C0440FB9
S1130280551F8A95E2F7CA018095909152018923FE
S11302908093520110C0613071F421E030E0A90173
S11302A002C0440F551F8A95E2F7CA01909152018A
S11302B0892B8093520180E70E949602809152011B
S11302C00E94C6020E94BD020895CF93DF93D82FE7
S11302D0C62F80EC0E9496028D2F0E94C602C11187
S11302E00AC080E00E94C60280E00E94C60280E14B
S11302F00E94C6020BC0C13049F480E10E94C602CC
S113030080E00E94C60280E00E94C6020E94BD02F4
S1130310DF91CF910895CF93962F482F50E0FA01A3
S11303203197E830F10580F4EC5CFF4F0C94EC0459
S1130330C3E082E036C0C7E383E30AC0CFE18BE1C8
S113034007C0C7E086E02DC0853048F5C0E080E0F6
S1130350923029F0933099F09130C9F408C060E0EC
S11303600E94650161E08C2F0E9465014DC061E02F
S11303700E94650160E08C2F0E94650145C061E028
S11303800E94650161E08C2F0E9465013DC060E020
S11303900E94650160E08C2F0E94650135C0C0E0B9
S11303A080E0923029F0933099F09130C9F408C07C
S11303B060E00E94390161E08C2F0E94390124C061
S11303C061E00E94390160E08C2F0E9439011CC059
S11303D061E00E94390161E08C2F0E94390114C050
S11303E060E00E94390160E08C2F0E9439010CC04A
S11303F0C1E080E0D6CFC5E084E0D3CFCBE28FE28A
S1130400A7CFC3E187E1A4CFCF910895FF920F93C3
S11304101F93CF93DF938B01EA016115704110F0B4
S113042000E010E0C11590E1D90710F0C0E0D0E081
S113043090E0FC013197E830F10560F5E45CFF4F92
S11304400C94EC040F2EF6E2FF2EF02D24C00F2E98
S1130450FAE3FF2EF02D1FC00F2EFEE0FF2EF02D2D
S11304601AC00F2EF2E2FF2EF02D15C00F2EF6E06B
S1130470FF2EF02D10C00F2EFAE0FF2EF02D0BC032
S11304800F2EFEE3FF2EF02D06C00F2EF2E4FF2EFA
S1130490F02D01C0F12C80EC0E9496028F2D0E9459
S11304A0C602802F0E94C602812F0E94C6028C2F92
S11304B00E94C6028D2F0E94C6020E94BD02DF91D7
S11304C0CF911F910F91FF900895CF93C82F80EC87
S11304D00E94960280E00E94C60280E30E94C60247
S11304E00E94BD0280EC0E9496028EEF0E94C6021A
S11304F08C2F0E94C60280EC0E94960280E00E942B
S1130500C60280E20E94C6020E94BD0280E70E94E9
S1130510960280E00E94C6020E94BD02CF91089517
S11305201092B9008CE08093B800089594EA9093F7
S1130530BC00ECEBF0E090819923ECF79091B900CA
S1130540987F983011F09031A1F48093BB0084E837
S11305508093BC00ECEBF0E080818823ECF7909171
S1130560B900987F983139F081E0903429F480E023
S1130570089581E0089580E0089584E98093BC00A3
S1130580ECEBF0E0808184FDFDCF08958093BB0007
S113059084E88093BC00ECEBF0E080818823ECF7E6
S11305A09091B900987F81E0983209F480E0089531
S11305B0CF93C82F8A3019F48DE00E94D802E0EC62
S11305C0F0E0808185FFFDCFC093C600CF910895F0
S11305D0E0ECF0E080818823ECF78091C600089578
S11305E01092C50087E68093C400E0ECF0E08081BF
S11305F08D7F808386E08093C20088E18093C10070
S11306000895E3E5F1E08EE091E09383828380E056
S113061091E09183808308955058BB27AA270E94B4
S113062024030C942C040E941E0438F00E94250418
S113063020F039F49F3F19F426F40C941B040EF4B3
S1130640E095E7FB0C941504E92F0E943D0458F350
S1130650BA17620773078407950720F079F4A6F5A3
S11306600C945F040EF4E0950B2EBA2FA02D0B0111
S1130670B90190010C01CA01A0011124FF27591BE3
S113068099F0593F50F4503E68F11A16F040A22FE9
S1130690232F342F4427585FF3CF4695379527955A
S11306A0A795F0405395C9F77EF41F16BA0B620B59
S11306B0730B840BBAF09150A1F0FF0FBB1F661FA0
S11306C0771F881FC2F70EC0BA0F621F731F841FE3
S11306D048F4879577956795B795F7959E3F08F009
S11306E0B0CF9395880F08F09927EE0F97958795CB
S11306F008950E94F10308F481E008950E9485039F
S11307006894B1110C94600408950E94450488F023
S11307109F5798F0B92F9927B751B0F0E1F0660FC1
S1130720771F881F991F1AF0BA95C9F714C0B13002
S113073091F00E945F04B1E008950C945F04672F68
S1130740782F8827B85F39F0B93FCCF38695779531
S11307506795B395D9F73EF490958095709561951A
S11307607F4F8F4F9F4F0895E89409C097FB3EF445
S113077090958095709561957F4F8F4F9F4F9923EA
S1130780A9F0F92F96E9BB279395F6958795779568
S11307906795B795F111F8CFFAF4BB0F11F460FF28
S11307A01BC06F5F7F4F8F4F9F4F16C0882311F080
S11307B096E911C0772321F09EE8872F762F05C094
S11307C0662371F096E8862F70E060E02AF09A952F
S11307D0660F771F881FDAF7880F9695879597F924
S11307E00895990F0008550FAA0BE0E8FEEF1616BE
S11307F01706E807F907C0F012161306E407F50711
S113080098F0621B730B840B950B39F40A2661F084
S1130810232B242B252B21F408950A2609F4A14027
S1130820A6958FEF811D811D089597F99F6780E834
S113083070E060E008959FEF80EC089500240A942E
S11308401616170618060906089500240A941216A7
S11308501306140605060895092E0394000C11F4DA
S1130860882352F0BB0F40F4BF2B11F460FF04C087
S11308706F5F7F4F8F4F9F4F089557FD9058440FE0
S1130880551F59F05F3F71F04795880F97FB991FEB
S113089061F09F3F79F087950895121613061406A8
S11308A0551FF2CF4695F1DF08C016161706180635
S11308B0991FF1CF86957105610508940895E89410
S11308C0BB2766277727CB0197F908950E94F10388
S11308D008F48FEF08950E947E040C942C040E9467
S11308E01E0438F00E94250420F0952311F00C9486
S11308F015040C941B0411240C9460040E943D0400
S113090070F3959FC1F3950F50E0551F629FF0015E
S1130910729FBB27F00DB11D639FAA27F00DB11D77
S1130920AA1F649F6627B00DA11D661F829F222700
S1130930B00DA11D621F739FB00DA11D621F839F87
S1130940A00D611D221F749F3327A00D611D231F5D
S1130950849F600D211D822F762F6A2F11249F57AB
S113096050409AF0F1F088234AF0EE0FFF1FBB1FAE
S1130970661F771F881F91505040A9F79E3F51056D
S113098080F00C9415040C9460045F3FE4F3983EEB
S1130990D4F3869577956795B795F795E7959F5F17
S11309A0C1F7FE2B880F911D9695879597F90895A9
S11309B097FB072E16F4009407D077FD09D00E9408
S11309C0F20407FC05D03EF4909581959F4F08955D
S11309D0709561957F4F0895EE0FFF1F0590F49178
S11309E0E02D0994AA1BBB1B51E107C0AA1FBB1F22
S11309F0A617B70710F0A61BB70B881F991F5A95A7
S1130A00A9F780959095BC01CD010895A0E0B0E0D0
S1130A10ECE0F5E00C941E0BAE014B5F5F4FFA0166
S1130A2061917191AF0180915501909156010E949D
S1130A306205E2E00C943A0B0F931F93CF93DF937C
S1130A40E0915501F0915601238121FF1BC08C01D7
S1130A50D0E0C0E0F80181918F016091550170915F
S1130A605601DB011896ED91FC911997882331F01A
S1130A700995892B79F3DFEFCFEFECCF8AE0099565
S1130A80892B19F08FEF9FEF02C08D2F9C2FDF91E0
S1130A90CF911F910F910895A0E0B0E0E2E5F5E059
S1130AA00C941E0BAE014B5F5F4FFA016191719183
S1130AB0AF0180915301909154010E94DF08E2E05C
S1130AC00C943A0BABE0B0E0E8E6F5E00C940E0BC6
S1130AD06C017B018A01FC0117821682838181FFEC
S1130AE0CCC1CE0101963C01F6019381F70193FD3F
S1130AF0859193FF81917F01882309F4BAC18532DE
S1130B0039F493FD859193FF81917F01853229F416
S1130B10B60190E00E94580AE7CF912C212C312C89
S1130B20FFE1F315D8F08B3279F038F4803279F0A4
S1130B308332A1F4232D20611DC08D3261F08033F6
S1130B4069F4232D216016C0832D8260382EE32D95
S1130B50E4603E2E2AC0F32DF8601DC037FC2DC082
S1130B6020ED280F2A3040F08E32B9F436FC81C1D2
S1130B70232D2064322E19C036FE06C08AE0989ECA
S1130B80200D1124922E11C0EAE02E9E200D112476
S1130B90222EF32DF0623F2E08C08C3621F4832DD3
S1130BA08068382E02C0883641F4F70193FD8591A0
S1130BB093FF81917F018111B3CF982F9F7D95542D
S1130BC0933028F40C5F1F4F9FE399830DC0833645
S1130BD031F0833771F0833509F059C021C0F80131
S1130BE0808189830E5F1F4F88248394912C530145
S1130BF013C02801F2E04F0E511CF801A080B1800F
S1130C0036FE03C0692D70E002C06FEF7FEFC501AF
S1130C100E940F0A4C018201F32DFF773F2E16C06C
S1130C20280122E0420E511CF801A080B18036FE5A
S1130C3003C0692D70E002C06FEF7FEFC5010E9411
S1130C40040A4C01F32DF0683F2E820133FC1BC0D3
S1130C50822D90E088169906B0F4B60180E290E007
S1130C600E94580A2A94F4CFF50137FC859137FE87
S1130C7081915F01B60190E00E94580A21102A94E4
S1130C8021E0821A91088114910471F7E8C0843636
S1130C9011F0893641F5F80137FE07C06081718192
S1130CA0828193810C5F1F4F08C060817181072E80
S1130CB0000C880B990B0E5F1F4FF32DFF763F2E10
S1130CC097FF09C090958095709561957F4F8F4FE0
S1130CD09F4FF0683F2E2AE030E0A3010E94AD0A46
S1130CE0882E861845C0853731F4232D2F7EB22EE9
S1130CF02AE030E025C0932D997FB92E8F36C1F0BC
S1130D0018F4883579F0B5C0803719F0883721F0A8
S1130D10B0C0E92FE061BE2EB4FE0DC0FB2DF4601F
S1130D20BF2E09C034FE0AC0292F2660B22E06C089
S1130D3028E030E005C020E130E002C020E132E0EC
S1130D40F801B7FE07C060817181828193810C5FD5
S1130D501F4F06C06081718180E090E00E5F1F4FDD
S1130D60A3010E94AD0A882E8618FB2DFF773F2E23
S1130D7036FE0DC0232D2E7FA22E891458F434FE86
S1130D800BC032FC09C0832D8E7EA82E05C0B82C62
S1130D90A32C03C0B82C01C0B92CA4FE0FC0FE01C3
S1130DA0E80DF11D8081803321F49A2D997EA92EBE
S1130DB009C0A2FE06C0B394B39404C08A2D8678F9
S1130DC009F0B394A3FC11C0A0FE06C0B21488F4C9
S1130DD0280C922C9B180EC0B21460F4B60180E269
S1130DE090E00E94580AB394F7CFB21418F42B1869
S1130DF002C0982C212CA4FE10C0B60180E390E020
S1130E000E94580AA2FE17C0A1FC03C088E790E024
S1130E1002C088E590E0B6010CC08A2D867859F0AE
S1130E20A1FE02C08BE201C080E2A7FC8DE2B60104
S1130E3090E00E94580A891438F4B60180E390E0E7
S1130E400E94580A9A94F7CF8A94F301E80DF11D91
S1130E508081B60190E00E94580A8110F5CF2220CB
S1130E6009F442CEB60180E290E00E94580A2A9426
S1130E70F6CFF6018681978102C08FEF9FEF2B9604
S1130E80E2E10C942A0B20FD09C0FC0123FD05C0FE
S1130E9022FF02C07383628351834083089544FD1B
S1130EA017C046FD17C0AB01BC01DA01FB01AA0F54
S1130EB0BB1FEE1FFF1F1094D1F74A0F5B1F6E1F5D
S1130EC07F1FCB01BA01660F771F881F991F09C0C6
S1130ED033E001C034E0660F771F881F991F31503B
S1130EE0D1F7620F711D811D911D08950F931F93FA
S1130EF0CF93DF938C01C8010E941A0AEC0197FD7D
S1130F0008C00E94F009892BB1F7B801CE010E94F4
S1130F10940ACE01DF91CF911F910F9108958F9282
S1130F209F92AF92BF92EF92FF920F931F93CF9332
S1130F30DF938C01D62F7A01B22E0E941A0A9C01EB
S1130F4033272B32310531F02D32310561F48B2DED
S1130F508068B82ED15011F480E068C0C8010E94A6
S1130F601A0A97FDF9CFCB2DCD7F2B2D207309F5D0
S1130F708033F9F4AA24AA94AD0E09F443C0C8013D
S1130F800E941A0A97FD3EC09C012F7D3327283505
S1130F90310549F4C264D250A9F1C8010E941A0A69
S1130FA097FF07C02FC0B6FE02C0C26001C0C26175
S1130FB0DA2D812C912C540120ED280F283080F05B
S1130FC0C4FF04C0B8010E94940A19C02A3040F03A
S1130FD0C6FFF8CF2F7D3FEE320F363098F72750FB
S1130FE04C2FC501B4010E944F074B015C01C26044
S1130FF0D15059F0C8010E941A0A97FFDDCFC1FDF4
S113100004C0AACF812C912C5401C7FF08C0B0940E
S1131010A09490948094811C911CA11CB11C2C2F31
S1131020B501A401C7010E94430781E0DF91CF917C
S11310301F910F91FF90EF90BF90AF909F908F9072
S11310400895A0E2B0E0E7E2F8E00C94110B5C0133
S1131050962E7A01F9018E010F5F1F4F680180E21D
S1131060D8011D928A95E9F7D50113968C9080E0FA
S113107090E0612C712C30E061E070E083FC2591FC
S113108083FE21918F01522E211103C080E090E054
S113109092C02E3511F4009751F1432F50E04817B8
S11310A059073CF42D3559F12D3219F4772009F103
S11310B003C0772009F46AC0452D469546954695A8
S11310C0D601A40FB11D452D47708B0102C0000F3E
S11310D0111F4A95E2F7A8015C91452B4C936514C6
S11310E059F0561410F45394E7CF5A94E5CF31E0F5
S11310F004C07724739401C0712C0196BFCF77206C
S113110019F08E8180628E83311103C08824839408
S113111017C0F6019E012F5D3F4F8081809581931A
S11311202E173F07D1F7F2CFE114F10429F0D701CC
S11311308C93F70131967F019A94812C9920F9F0D0
S1131140C5010E941A0A97FD18C0FC01FF2723E07D
S1131150F595E7952A95E1F7EC0DFD1D208130E02A
S1131160AC014770552702C0359527954A95E2F79B
S113117020FDDACFB5010E94940A811087CFE114D3
S1131180F10411F0D7011C92C80115C0422F4695F5
S113119046954695D601A40FB11D422F47708B0189
S11311A002C0000F111F4A95E2F7A8015C91452B7C
S11311B04C93622EA2CFA096EFE00C942D0BA0E0EE
S11311C0B0E0E5EEF8E00C94110B6C01EB015A0170
S11311D0FC0117821682512CF601E380FE01E3FC28
S11311E08591E3FE8191182FEF01882309F4EEC065
S11311F090E00E94F009892B21F0C6010E94760735
S1131200EBCF153241F4FE01E3FC1591E3FE11919D
S1131210EF01153281F4C6010E941A0A97FDD4C069
S1131220412F50E09C01332724173507A9F2B6015A
S11312300E94940ACBC01A3239F4E3FC1591E3FE00
S11312401191EF0101E001C000E0F12C20ED210F2C
S11312502A3080F402606F2D70E080E090E040E27C
S11312600E944F07F62EFE01E3FC1591E3FE119157
S1131270EF01ECCF01FF03C0F11003C0A7C0FF24AE
S1131280FA94183619F01C3651F010C0FE01E3FC34
S11312901591E3FE1191EF01183641F408600460E2
S11312A0FE01E3FC1591E3FE1191EF01112309F412
S11312B08DC0612F70E088E890E00E94F909892BC5
S11312C009F484C000FD07C0F50180809180C50148
S11312D002965C0102C0812C912C1E3651F4F60159
S11312E04681578160E070E0202FC4010E944307CB
S11312F073CF1336A9F401FD02C0FF24F394C60191
S11313000E941A0A97FD60C08114910429F0F40127
S11313108083C40101964C01FA94F110F0CF50C0BF
S11313201B3559F49E01A4016F2DC6010E942108AA
S1131330EC01892B09F044C03EC0C6010E94760727
S113134097FD42C01F3661F128F4143639F119367D
S113135051F128C0133771F0153701F123C08114FE
S1131360910429F0F4016082C40101964C01FA94BD
S1131370FF2071F0C6010E941A0A3C0197FD08C0C3
S11313800E94F009892B59F3B601C3010E94940A03
S113139081149104A9F0F401108212C0006203C008
S11313A0006101C00064202FA4016F2DC6010E94BA
S11313B08F07811105C0F6018381807329F406C06B
S11313C000FD0ACF539408CF552019F0852D90E0E5
S11313D002C08FEF9FEFCDB7DEB7EFE00C942D0B7B
S11313E091110C940B0B803219F089508550C8F779
S11313F00895FC010590061621F00020D9F7C001DC
S113140008953197CF010895FC0105906150704013
S11314100110D8F7809590958E0F9F1F0895FC01B9
S11314206150704001900110D8F7809590958E0F0F
S11314309F1F0895CF93DF93EC012B8120FF33C0CE
S113144026FF0AC02F7B2B838E819F8101969F8369
S11314508E838A8190E029C022FF0FC0E881F98140
S11314608081082E000C990B009719F420622B83BD
S11314701AC03196F983E8830EC0EA85FB85099585
S113148097FF09C02B81019611F080E201C080E131
S1131490822B8B8308C02E813F812F5F3F4F3F8378
S11314A02E83992702C08FEF9FEFDF91CF9108958C
S11314B00F931F93CF93DF93FB01238121FD03C07F
S11314C08FEF9FEF2CC022FF16C0468157812481E5
S11314D035814217530744F4A081B1819D012F5FE8
S11314E03F4F318320838C93268137812F5F3F4F79
S11314F03783268314C08B01EC01FB010084F18542
S1131500E02D0995892BE1F6D80116968D919C91D1
S11315101797019617969C938E931697CE01DF9199
S1131520CF911F910F910895FB01238120FF12C0D9
S113153026FD10C08F3F3FEF930761F082832F7D1C
S11315402064238326813781215031093783268300
S1131550992708958FEF9FEF0895FA01AA2728305D
S113156051F1203181F1E8946F936E7F6E5F7F4F6C
S11315708F4F9F4FAF4FB1E03ED0B4E03CD0670FE8
S1131580781F891F9A1FA11D680F791F8A1F911D3B
S1131590A11D6A0F711D811D911DA11D20D009F48B
S11315A068943F912AE0269F11243019305D3193CD
S11315B0DEF6CF010895462F4770405D4193B3E0B6
S11315C00FD0C9F7F6CF462F4F70405D4A3318F05D
S11315D0495D31FD4052419302D0A9F7EACFB4E00E
S11315E0A6959795879577956795BA95C9F70097C6
S11315F06105710508959B01AC010A2E0694579567
S1131600479537952795BA95C9F7620F731F841FBD
S1131610951FA01D08959927882708952F923F921A
S11316204F925F926F927F928F929F92AF92BF92EE
S1131630CF92DF92EF92FF920F931F93CF93DF939A
S1131640CDB7DEB7CA1BDB0B0FB6F894DEBF0FBEF7
S1131650CDBF09942A88398848885F846E847D8444
S11316608C849B84AA84B984C884DF80EE80FD8046
S11316700C811B81AA81B981CE0FD11D0FB6F894BC
S1111680DEBF0FBECDBFED010895F894FFCF7D
S113168E00000001000000000000E802000000005D
S113169E000200000000D802000000004F757470B4
S11316AE75743A2030004164616672756974203134
S11316BE343338004D6F746F72206E756D626572BF
S11316CE3A002564004D6F746F7220737065656403
S10516DE3A00CC
S9030000FC
