S01400004D6F746F725F6472697665722E7372656314
S11300000C944A000C9467000C9467000C946700ED
S11300100C9467000C9467000C9467000C946700C0
S11300200C9467000C9467000C9467000C946700B0
S11300300C9467000C9467000C9467000C946700A0
S11300400C9467000C9467000C9467000C94670090
S11300500C9467000C9467000C9467000C94670080
S11300600C9467000C946700AD014A01B0014D0186
S1130070A7014701AA015001D101D601DB01E0012A
S1130080E501EA01EF01F4016364696E6F70737551
S113009078585B0011241FBECFEFD8E0DEBFCDBF80
S11300A011E0A0E0B1E0E6EBFCE002C005900D92A7
S11300B0A834B107D9F721E0A8E4B1E001C01D924A
S11300C0AF34B207E1F70E948A000C9459060C94ED
S11300D000001F93CF93DF93182FEB01DD2354F01F
S11300E061E00E943A0140E050E0BE01812F0E948D
S11300F0B5010CC062E00E943A01662777276C1BA9
S11301007D0B40E050E0812F0E94B501DF91CF913B
S11301101F910895CF93DF9300D000D0CDB7DEB701
S11301200E949F020E943F020E94B00283E00E944C
S113013014028CE191E00E94C10260E081E00E941F
S11301403A0160E082E00E943A0160E083E00E94AC
S11301503A0160E084E00E943A0160E085E00E9498
S11301603A0160E086E00E943A0160E087E00E9484
S11301703A0181E090E09C838B838AE291E00E94C3
S1130180C102CE0103969F938F9388E391E09F93DE
S11301908F930E94F1020F900F900F900F90CE0159
S11301A001967C0108E311E08BE391E00E94C10217
S11301B0FF92EF921F930F930E94F10269817A815B
S11301C08B810E9469000F900F900F900F90ECCFDD
S11301D0611110C021E030E0A90102C0440F551F95
S11301E08A95E2F7CA01809590914801892380930A
S11301F0480110C0613071F421E030E0A90102C06F
S1130200440F551F8A95E2F7CA0190914801892B42
S11302108093480180E70E944502809148010E9432
S113022075020E946C020895CF93DF93D82FC62FD6
S113023080EC0E9445028D2F0E947502C1110AC0F4
S113024080E00E94750280E00E94750280E10E94B5
S113025075020BC0C13049F480E10E94750280E050
S11302600E94750280E00E9475020E946C02DF9178
S1130270CF910895CF93962F482F50E0FA013197EC
S1130280E830F10580F4EC5CFF4F0C94BB02C3E052
S113029082E036C0C7E383E30AC0CFE18BE107C045
S11302A0C7E086E02DC0853048F5C0E080E092309C
S11302B029F0933099F09130C9F408C060E00E94AD
S11302C0140161E08C2F0E9414014DC061E00E9472
S11302D0140160E08C2F0E94140145C061E00E946B
S11302E0140161E08C2F0E9414013DC060E00E9463
S11302F0140160E08C2F0E94140135C0C0E080E03E
S1130300923029F0933099F09130C9F408C060E03C
S11303100E94E80061E08C2F0E94E80024C061E0A4
S11303200E94E80060E08C2F0E94E8001CC061E09D
S11303300E94E80061E08C2F0E94E80014C060E095
S11303400E94E80060E08C2F0E94E8000CC0C1E02D
S113035080E0D6CFC5E084E0D3CFCBE28FE2A7CF55
S1130360C3E187E1A4CFCF910895FF920F931F9328
S1130370CF93DF938B01EA016115704110F000E027
S113038010E0C11590E1D90710F0C0E0D0E090E092
S1130390FC013197E830F10560F5E45CFF4F0C9403
S11303A0BB020F2EF6E2FF2EF02D24C00F2EFAE32F
S11303B0FF2EF02D1FC00F2EFEE0FF2EF02D1AC0D1
S11303C00F2EF2E2FF2EF02D15C00F2EF6E0FF2EB9
S11303D0F02D10C00F2EFAE0FF2EF02D0BC00F2EC3
S11303E0FEE3FF2EF02D06C00F2EF2E4FF2EF02DBB
S11303F001C0F12C80EC0E9445028F2D0E947502F1
S1130400802F0E947502812F0E9475028C2F0E94FA
S113041075028D2F0E9475020E946C02DF91CF91AC
S11304201F910F91FF900895CF93C82F80EC0E94E5
S1130430450280E00E94750280E30E9475020E94DA
S11304406C0280EC0E9445028EEF0E9475028C2F94
S11304500E94750280EC0E94450280E00E947502B1
S113046080E20E9475020E946C0280E70E944502AD
S113047080E00E9475020E946C02CF910895109250
S1130480B9008CE08093B800089594EA9093BC007E
S1130490ECEBF0E090819923ECF79091B900987F10
S11304A0983011F09031A1F48093BB0084E88093DC
S11304B0BC00ECEBF0E080818823ECF79091B9006C
S11304C0987F983139F081E0903429F480E00895E0
S11304D081E0089580E0089584E98093BC00ECEB0A
S11304E0F0E0808184FDFDCF08958093BB0084E813
S11304F08093BC00ECEBF0E080818823ECF79091D2
S1130500B900987F81E0983209F480E00895CF9390
S1130510C82F8A3019F48DE00E948702E0ECF0E0E5
S1130520808185FFFDCFC093C600CF910895E0EC94
S1130530F0E080818823ECF78091C6000895109242
S1130540C50087E68093C400E0ECF0E080818D7FF5
S1130550808386E08093C20088E18093C10008957F
S1130560E9E4F1E08EE091E09383828380E091E01E
S1130570918380830895EE0FFF1F0590F491E02D81
S113058009940F931F93CF93DF93E0914B01F09164
S11305904C01238121FF1BC08C01D0E0C0E0F80195
S11305A081918F0160914B0170914C01DB01189690
S11305B0ED91FC911997882331F00995892B79F3F2
S11305C0DFEFCFEFECCF8AE00995892B19F08FEF9D
S11305D09FEF02C08D2F9C2FDF91CF911F910F9120
S11305E00895A0E0B0E0E7EFF2E00C943206AE012B
S11305F04B5F5F4FFA0161917191AF0180914901A5
S113060090914A010E94A304E2E00C944E0620FD5E
S113061009C0FC0123FD05C022FF02C0738362836D
S113062051834083089544FD17C046FD17C0AB01B4
S1130630BC01DA01FB01AA0FBB1FEE1FFF1F1094C0
S1130640D1F74A0F5B1F6E1F7F1FCB01BA01660FE4
S1130650771F881F991F09C033E001C034E0660F7B
S1130660771F881F991F3150D1F7620F711D811DAB
S1130670911D08950F931F93CF93DF938C01C801AD
S11306800E94C805EC0197FD08C00E94B405892B9F
S1130690B1F7B801CE010E940606CE01DF91CF91D9
S11306A01F910F9108958F929F92AF92BF92EF92F4
S11306B0FF920F931F93CF93DF938C01D62F7A0170
S11306C0B22E0E94C8059C0133272B32310531F02C
S11306D02D32310561F48B2D8068B82ED15011F480
S11306E080E068C0C8010E94C80597FDF9CFCB2DF2
S11306F0CD7F2B2D207309F58033F9F4AA24AA9415
S1130700AD0E09F443C0C8010E94C80597FD3EC060
S11307109C012F7D33272835310549F4C264D2501A
S1130720A9F1C8010E94C80597FF07C02FC0B6FEF3
S113073002C0C26001C0C261DA2D812C912C540127
S113074020ED280F283080F0C4FF04C0B8010E94B7
S1130750060619C02A3040F0C6FFF8CF2F7D3FEEC1
S1130760320F363098F727504C2FC501B4010E9440
S113077013034B015C01C260D15059F0C8010E94BF
S1130780C80597FFDDCFC1FD04C0AACF812C912CF1
S11307905401C7FF08C0B094A09490948094811C25
S11307A0911CA11CB11C2C2FB501A401C7010E94EE
S11307B0070381E0DF91CF911F910F91FF90EF909C
S11307C0BF90AF909F908F900895A0E2B0E0EBEEC1
S11307D0F3E00C9425065C01962E7A01F9018E0152
S11307E00F5F1F4F680180E2D8011D928A95E9F7D7
S11307F0D50113968C9080E090E0612C712C30E050
S113080061E070E083FC259183FE21918F01522EDB
S1130810211103C080E090E092C02E3511F40097BE
S113082051F1432F50E0481759073CF42D3559F145
S11308302D3219F4772009F103C0772009F46AC036
S1130840452D469546954695D601A40FB11D452DD7
S113085047708B0102C0000F111F4A95E2F7A801EF
S11308605C91452B4C93651459F0561410F4539431
S1130870E7CF5A94E5CF31E004C07724739401C0E4
S1130880712C0196BFCF772019F08E8180628E8300
S1130890311103C08824839417C0F6019E012F5D93
S11308A03F4F8081809581932E173F07D1F7F2CF78
S11308B0E114F10429F0D7018C93F70131967F01FB
S11308C09A94812C9920F9F0C5010E94C80597FDDE
S11308D018C0FC01FF2723E0F595E7952A95E1F779
S11308E0EC0DFD1D208130E0AC014770552702C09E
S11308F0359527954A95E2F720FDDACFB5010E9498
S11309000606811087CFE114F10411F0D7011C927F
S1130910C80115C0422F469546954695D601A40FA9
S1130920B11D422F47708B0102C0000F111F4A9561
S1130930E2F7A8015C91452B4C93622EA2CFA096BE
S1130940EFE00C944106A0E0B0E0E9EAF4E00C9496
S113095025066C01EB015A01FC0117821682512C09
S1130960F601E380FE01E3FC8591E3FE8191182FFB
S1130970EF01882309F4EEC090E00E94B405892BAE
S113098021F0C6010E943A03EBCF153241F4FE0177
S1130990E3FC1591E3FE1191EF01153281F4C601D8
S11309A00E94C80597FDD4C0412F50E09C01332715
S11309B024173507A9F2B6010E940606CBC01A32E5
S11309C039F4E3FC1591E3FE1191EF0101E001C05C
S11309D000E0F12C20ED210F2A3080F402606F2D0D
S11309E070E080E090E040E20E941303F62EFE01E6
S11309F0E3FC1591E3FE1191EF01ECCF01FF03C07D
S1130A00F11003C0A7C0FF24FA94183619F01C365D
S1130A1051F010C0FE01E3FC1591E3FE1191EF01CA
S1130A20183641F408600460FE01E3FC1591E3FE0E
S1130A301191EF01112309F48DC0612F70E088E852
S1130A4090E00E94BD05892B09F484C000FD07C015
S1130A50F50180809180C50102965C0102C0812C61
S1130A60912C1E3651F4F6014681578160E070E006
S1130A70202FC4010E94070373CF1336A9F401FD8C
S1130A8002C0FF24F394C6010E94C80597FD60C00C
S1130A908114910429F0F4018083C40101964C016E
S1130AA0FA94F110F0CF50C01B3559F49E01A40103
S1130AB06F2DC6010E94E503EC01892B09F044C0A7
S1130AC03EC0C6010E943A0397FD42C01F3661F141
S1130AD028F4143639F1193651F128C0133771F05E
S1130AE0153701F123C08114910429F0F4016082C7
S1130AF0C40101964C01FA94FF2071F0C6010E94D2
S1130B00C8053C0197FD08C00E94B405892B59F320
S1130B10B601C3010E94060681149104A9F0F401F0
S1130B20108212C0006203C0006101C00064202F63
S1130B30A4016F2DC6010E945303811105C0F60163
S1130B408381807329F406C000FD0ACF539408CF33
S1130B50552019F0852D90E002C08FEF9FEFCDB79F
S1130B60DEB7EFE00C94410691110C941F0680321D
S1130B7019F089508550C8F70895FC0105900616B0
S1130B8021F00020D9F7C00108953197CF010895CD
S1130B90CF93DF93EC012B8120FF33C026FF0AC0E3
S1130BA02F7B2B838E819F8101969F838E838A81E5
S1130BB090E029C022FF0FC0E881F9818081082ECE
S1130BC0000C990B009719F420622B831AC03196FC
S1130BD0F983E8830EC0EA85FB85099597FF09C070
S1130BE02B81019611F080E201C080E1822B8B837E
S1130BF008C02E813F812F5F3F4F3F832E8399276B
S1130C0002C08FEF9FEFDF91CF910895FB01238105
S1130C1020FF12C026FD10C08F3F3FEF930761F005
S1130C2082832F7D206423832681378121503109DB
S1130C3037832683992708958FEF9FEF0895992787
S1130C40882708952F923F924F925F926F927F92DE
S1130C508F929F92AF92BF92CF92DF92EF92FF92C8
S1130C600F931F93CF93DF93CDB7DEB7CA1BDB0B74
S1130C700FB6F894DEBF0FBECDBF09942A88398819
S1130C8048885F846E847D848C849B84AA84B98420
S1130C90C884DF80EE80FD800C811B81AA81B9812C
S1130CA0CE0FD11D0FB6F894DEBF0FBECDBFED0140
S1090CB00895F894FFCF43
S1130CB60000000100000000000097020000000090
S1130CC60002000000008702000000004164616623
S1130CD6727569742031343338004D6F746F722025
S1130CE66E756D6265723A002564004D6F746F729D
S10B0CF62073706565643A0087
S9030000FC
