:100000000C944A000C9467000C9467000C946700F1
:100010000C9467000C9467000C9467000C946700C4
:100020000C9467000C9467000C9467000C946700B4
:100030000C9467000C9467000C9467000C946700A4
:100040000C9467000C9467000C9467000C94670094
:100050000C9467000C9467000C9467000C94670084
:100060000C9467000C946700B6015301B901560166
:10007000B0015001B3015901DA01DF01E401E901E6
:10008000EE01F301F801FD016364696E6F70737531
:1000900078585B0011241FBECFEFD8E0DEBFCDBF84
:1000A00011E0A0E0B1E0E8ECFCE002C005900D92A8
:1000B000A834B107D9F721E0A8E4B1E001C01D924E
:1000C000AF34B207E1F70E948A000C9462060C94E8
:1000D00000001F93CF93DF93182FEB01DD2354F023
:1000E00062E00E94430140E050E0BE01812F0E9487
:1000F000BE010CC061E00E944301662777276C1B9C
:100100007D0B40E050E0812F0E94BE01DF91CF9136
:100110001F910895CF93DF9300D000D0CDB7DEB705
:100120000E94A8020E9448020E94B9028FEF8AB979
:1001300080EF87B98FE388B91BB883E00E941D0266
:100140008CE191E00E94CA0260E081E00E944301DC
:1001500060E082E00E94430160E083E00E9443018E
:1001600060E084E00E94430160E085E00E9443017A
:1001700060E086E00E94430160E087E00E94430166
:1001800081E090E09C838B838AE291E00E94CA0226
:10019000CE0103969F938F9388E391E09F938F9373
:1001A0000E94FA021A8219820F900F900F900F90FE
:1001B000CE0101967C0108E311E08BE391E00E94FF
:1001C000CA02FF92EF921F930F930E94FA02698175
:1001D0007A818B810E9469000F900F900F900F9091
:1001E000ECCF611110C021E030E0A90102C0440F42
:1001F000551F8A95E2F7CA0180959091480189239D
:100200008093480110C0613071F421E030E0A90111
:1002100002C0440F551F8A95E2F7CA019091480128
:10022000892B8093480180E70E944E02809148010B
:100230000E947E020E9475020895CF93DF93D82F0B
:10024000C62F80EC0E944E028D2F0E947E02C111AB
:100250000AC080E00E947E0280E00E947E0280E16F
:100260000E947E020BC0C13049F480E10E947E02F0
:1002700080E00E947E0280E00E947E020E94750261
:10028000DF91CF910895CF93962F482F50E0FA0138
:100290003197E830F10580F4EC5CFF4F0C94C40218
:1002A000C3E082E036C0C7E383E30AC0CFE18BE15D
:1002B00007C0C7E086E02DC0853048F5C0E080E08B
:1002C000923029F0933099F09130C9F408C060E081
:1002D0000E941D0161E08C2F0E941D014DC061E054
:1002E0000E941D0160E08C2F0E941D0145C061E04D
:1002F0000E941D0161E08C2F0E941D013DC060E045
:100300000E941D0160E08C2F0E941D0135C0C0E0DD
:1003100080E0923029F0933099F09130C9F408C010
:1003200060E00E94F10061E08C2F0E94F10024C087
:1003300061E00E94F10060E08C2F0E94F1001CC07F
:1003400061E00E94F10061E08C2F0E94F10014C076
:1003500060E00E94F10060E08C2F0E94F1000CC070
:10036000C1E080E0D6CFC5E084E0D3CFCBE28FE21E
:10037000A7CFC3E187E1A4CFCF910895FF920F9358
:100380001F93CF93DF938B01EA016115704110F049
:1003900000E010E0C11590E1D90710F0C0E0D0E016
:1003A00090E0FC013197E830F10560F5E45CFF4F27
:1003B0000C94C4020F2EF6E2FF2EF02D24C00F2E57
:1003C000FAE3FF2EF02D1FC00F2EFEE0FF2EF02DC2
:1003D0001AC00F2EF2E2FF2EF02D15C00F2EF6E000
:1003E000FF2EF02D10C00F2EFAE0FF2EF02D0BC0C7
:1003F0000F2EFEE3FF2EF02D06C00F2EF2E4FF2E8F
:10040000F02D01C0F12C80EC0E944E028F2D0E9435
:100410007E02802F0E947E02812F0E947E028C2FFE
:100420000E947E028D2F0E947E020E947502DF9143
:10043000CF911F910F91FF900895CF93C82F80EC1B
:100440000E944E0280E00E947E0280E30E947E02B3
:100450000E94750280EC0E944E028EEF0E947E0286
:100460008C2F0E947E0280EC0E944E0280E00E944F
:100470007E0280E20E947E020E94750280E70E9456
:100480004E0280E00E947E020E947502CF91089584
:100490001092B9008CE08093B800089594EA90938C
:1004A000BC00ECEBF0E090819923ECF79091B9005F
:1004B000987F983011F09031A1F48093BB0084E8CC
:1004C0008093BC00ECEBF0E080818823ECF7909106
:1004D000B900987F983139F081E0903429F480E0B8
:1004E000089581E0089580E0089584E98093BC0038
:1004F000ECEBF0E0808184FDFDCF08958093BB009C
:1005000084E88093BC00ECEBF0E080818823ECF77A
:100510009091B900987F81E0983209F480E00895C5
:10052000CF93C82F8A3019F48DE00E949002E0EC3E
:10053000F0E0808185FFFDCFC093C600CF91089584
:10054000E0ECF0E080818823ECF78091C60008950C
:100550001092C50087E68093C400E0ECF0E0808153
:100560008D7F808386E08093C20088E18093C10004
:100570000895E9E4F1E08EE091E09383828380E0E6
:1005800091E0918380830895EE0FFF1F0590F49111
:10059000E02D09940F931F93CF93DF93E0914B01CC
:1005A000F0914C01238121FF1BC08C01D0E0C0E001
:1005B000F80181918F0160914B0170914C01DB0139
:1005C0001896ED91FC911997882331F00995892BA4
:1005D00079F3DFEFCFEFECCF8AE00995892B19F0A3
:1005E0008FEF9FEF02C08D2F9C2FDF91CF911F9136
:1005F0000F910895A0E0B0E0E0E0F3E00C943B063A
:10060000AE014B5F5F4FFA0161917191AF01809133
:10061000490190914A010E94AC04E2E00C94570613
:1006200020FD09C0FC0123FD05C022FF02C0738329
:10063000628351834083089544FD17C046FD17C06F
:10064000AB01BC01DA01FB01AA0FBB1FEE1FFF1FAC
:100650001094D1F74A0F5B1F6E1F7F1FCB01BA01A9
:10066000660F771F881F991F09C033E001C034E06F
:10067000660F771F881F991F3150D1F7620F711DC8
:10068000811D911D08950F931F93CF93DF938C01CC
:10069000C8010E94D105EC0197FD08C00E94BD056C
:1006A000892BB1F7B801CE010E940F06CE01DF9170
:1006B000CF911F910F9108958F929F92AF92BF9209
:1006C000EF92FF920F931F93CF93DF938C01D62F5E
:1006D0007A01B22E0E94D1059C0133272B323105BD
:1006E00031F02D32310561F48B2D8068B82ED15058
:1006F00011F480E068C0C8010E94D10597FDF9CFD0
:10070000CB2DCD7F2B2D207309F58033F9F4AA244E
:10071000AA94AD0E09F443C0C8010E94D10597FD0B
:100720003EC09C012F7D33272835310549F4C26432
:10073000D250A9F1C8010E94D10597FF07C02FC070
:10074000B6FE02C0C26001C0C261DA2D812C912CBC
:10075000540120ED280F283080F0C4FF04C0B801F8
:100760000E940F0619C02A3040F0C6FFF8CF2F7D37
:100770003FEE320F363098F727504C2FC501B401A9
:100780000E941C034B015C01C260D15059F0C801AA
:100790000E94D10597FFDDCFC1FD04C0AACF812CF7
:1007A000912C5401C7FF08C0B094A09490948094F9
:1007B000811C911CA11CB11C2C2FB501A401C701E7
:1007C0000E94100381E0DF91CF911F910F91FF9064
:1007D000EF90BF90AF909F908F900895A0E2B0E00F
:1007E000E4EFF3E00C942E065C01962E7A01F901F9
:1007F0008E010F5F1F4F680180E2D8011D928A951C
:10080000E9F7D50113968C9080E090E0612C712C73
:1008100030E061E070E083FC259183FE21918F013F
:10082000522E211103C080E090E092C02E3511F4C9
:10083000009751F1432F50E0481759073CF42D35EC
:1008400059F12D3219F4772009F103C0772009F40A
:100850006AC0452D469546954695D601A40FB11D13
:10086000452D47708B0102C0000F111F4A95E2F71A
:10087000A8015C91452B4C93651459F0561410F463
:100880005394E7CF5A94E5CF31E004C077247394B2
:1008900001C0712C0196BFCF772019F08E81806244
:1008A0008E83311103C08824839417C0F6019E0102
:1008B0002F5D3F4F8081809581932E173F07D1F7A1
:1008C000F2CFE114F10429F0D7018C93F7013196AE
:1008D0007F019A94812C9920F9F0C5010E94D105DD
:1008E00097FD18C0FC01FF2723E0F595E7952A95B1
:1008F000E1F7EC0DFD1D208130E0AC01477055277C
:1009000002C0359527954A95E2F720FDDACFB5016B
:100910000E940F06811087CFE114F10411F0D70176
:100920001C92C80115C0422F469546954695D601A2
:10093000A40FB11D422F47708B0102C0000F111F81
:100940004A95E2F7A8015C91452B4C93622EA2CF09
:10095000A096EFE00C944A06A0E0B0E0E2EBF4E0F1
:100960000C942E066C01EB015A01FC0117821682D1
:10097000512CF601E380FE01E3FC8591E3FE8191B9
:10098000182FEF01882309F4EEC090E00E94BD0506
:10099000892B21F0C6010E944303EBCF153241F4AD
:1009A000FE01E3FC1591E3FE1191EF01153281F494
:1009B000C6010E94D10597FDD4C0412F50E09C0193
:1009C000332724173507A9F2B6010E940F06CBC0C2
:1009D0001A3239F4E3FC1591E3FE1191EF0101E0C5
:1009E00001C000E0F12C20ED210F2A3080F40260DC
:1009F0006F2D70E080E090E040E20E941C03F62E34
:100A0000FE01E3FC1591E3FE1191EF01ECCF01FF34
:100A100003C0F11003C0A7C0FF24FA94183619F0E0
:100A20001C3651F010C0FE01E3FC1591E3FE11915C
:100A3000EF01183641F408600460FE01E3FC1591F3
:100A4000E3FE1191EF01112309F48DC0612F70E0D5
:100A500088E890E00E94C605892B09F484C000FD57
:100A600007C0F50180809180C50102965C0102C03B
:100A7000812C912C1E3651F4F6014681578160E09D
:100A800070E0202FC4010E94100373CF1336A9F425
:100A900001FD02C0FF24F394C6010E94D10597FD19
:100AA00060C08114910429F0F4018083C40101968F
:100AB0004C01FA94F110F0CF50C01B3559F49E014F
:100AC000A4016F2DC6010E94EE03EC01892B09F0F1
:100AD00044C03EC0C6010E94430397FD42C01F367A
:100AE00061F128F4143639F1193651F128C0133761
:100AF00071F0153701F123C08114910429F0F4013C
:100B00006082C40101964C01FA94FF2071F0C60185
:100B10000E94D1053C0197FD08C00E94BD05892BAC
:100B200059F3B601C3010E940F0681149104A9F084
:100B3000F401108212C0006203C0006101C00064B1
:100B4000202FA4016F2DC6010E945C03811105C0F6
:100B5000F6018381807329F406C000FD0ACF539407
:100B600008CF552019F0852D90E002C08FEF9FEF40
:100B7000CDB7DEB7EFE00C944A0691110C9428062D
:100B8000803219F089508550C8F70895FC0105900E
:100B9000061621F00020D9F7C00108953197CF0142
:100BA0000895CF93DF93EC012B8120FF33C026FF04
:100BB0000AC02F7B2B838E819F8101969F838E831A
:100BC0008A8190E029C022FF0FC0E881F9818081ED
:100BD000082E000C990B009719F420622B831AC081
:100BE0003196F983E8830EC0EA85FB85099597FF66
:100BF00009C02B81019611F080E201C080E1822BB7
:100C00008B8308C02E813F812F5F3F4F3F832E8310
:100C1000992702C08FEF9FEFDF91CF910895FB01DD
:100C2000238120FF12C026FD10C08F3F3FEF9307A6
:100C300061F082832F7D20642383268137812150B8
:100C4000310937832683992708958FEF9FEF089501
:100C50009927882708952F923F924F925F926F9223
:100C60007F928F929F92AF92BF92CF92DF92EF923C
:100C7000FF920F931F93CF93DF93CDB7DEB7CA1BBD
:100C8000DB0B0FB6F894DEBF0FBECDBF09942A88E8
:100C9000398848885F846E847D848C849B84AA8490
:100CA000B984C884DF80EE80FD800C811B81AA811D
:100CB000B981CE0FD11D0FB6F894DEBF0FBECDBFE8
:080CC000ED010895F894FFCF47
:100CC80000000001000000000000A0020000000079
:100CD800000200000000900200000000416461660C
:100CE800727569742031343338004D6F746F722017
:100CF8006E756D6265723A002564004D6F746F728F
:080D08002073706565643A0078
:00000001FF
