S01400004D6F746F725F6472697665722E7372656314
S11300000C9442000C945F000C945F000C945F000D
S11300100C945F000C945F000C945F000C945F00E0
S11300200C945F000C945F000C945F000C945F00D0
S11300300C945F000C945F000C945F000C945F00C0
S11300400C945F000C945F000C945F000C945F00B0
S11300500C945F000C945F000C945F000C945F00A0
S11300600C945F000C945F009601330199013601F2
S113007090013001930139016364696E6F70737587
S113008078585B0011241FBECFEFD8E0DEBFCDBF90
S113009011E0A0E0B1E0E8E1F1E102C005900D92C9
S11300A0A435B107D9F721E0A4E5B1E001C01D9260
S11300B0AB35B207E1F70E9461000C948A080C94F6
S11300C00000CF93DF9300D000D0CDB7DEB70E94FD
S11300D029020E94C9010E943A028FEF8AB980EF77
S11300E087B98FE388B91BB883E00E949E018CE135
S11300F091E00E94610260E081E00E94230160E0DF
S113010082E00E94230160E083E00E94230160E01A
S113011084E00E94230160E085E00E94230160E006
S113012086E00E94230160E087E00E94230181E0D1
S113013090E09A8389838AE291E00E946102CE0171
S113014001969F938F9381E591E09F938F930E94F3
S113015091020F900F900F900F906E0183E0C80EE4
S1130160D11C0F2EF1E5EF2EF1E0FF2EF02D0CE463
S113017011E088E391E00E946102DF92CF92FF9246
S1130180EF920E9491028C818F938B818F931F93A6
S11301900F930E944B020FB6F894DEBF0FBECDBF83
S11301A0E8CF611110C021E030E0A90102C0440F82
S11301B0551F8A95E2F7CA018095909154018923CD
S11301C08093540110C0613071F421E030E0A90142
S11301D002C0440F551F8A95E2F7CA019091540159
S11301E0892B8093540180E70E94CF0180915401B0
S11301F00E94FF010E94F6010895CF93DF93D82F48
S1130200C62F80EC0E94CF018D2F0E94FF01C111E7
S11302100AC080E00E94FF0180E00E94FF0180E1AB
S11302200E94FF010BC0C13049F480E10E94FF012C
S113023080E00E94FF0180E00E94FF010E94F6011D
S1130240DF91CF910895CF93962F482F50E0FA0174
S11302503197E830F10580F4EC5CFF4F0C944502D3
S1130260C3E082E036C0C7E383E30AC0CFE18BE199
S113027007C0C7E086E02DC0853048F5C0E080E0C7
S1130280923029F0933099F09130C9F408C060E0BD
S11302900E94FD0061E08C2F0E94FD004DC061E0D2
S11302A00E94FD0060E08C2F0E94FD0045C061E0CB
S11302B00E94FD0061E08C2F0E94FD003DC060E0C3
S11302C00E94FD0060E08C2F0E94FD0035C0C0E05C
S11302D080E0923029F0933099F09130C9F408C04D
S11302E060E00E94D10061E08C2F0E94D10024C004
S11302F061E00E94D10060E08C2F0E94D1001CC0FC
S113030061E00E94D10061E08C2F0E94D10014C0F2
S113031060E00E94D10060E08C2F0E94D1000CC0EC
S1130320C1E080E0D6CFC5E084E0D3CFCBE28FE25A
S1130330A7CFC3E187E1A4CFCF910895CF93C82F6E
S113034080EC0E94CF0180E00E94FF0180E30E94C4
S1130350FF010E94F60180EC0E94CF018EEF0E9403
S1130360FF018C2F0E94FF0180EC0E94CF0180E0EE
S11303700E94FF0180E20E94FF010E94F60180E7D3
S11303800E94CF0180E00E94FF010E94F601CF91FC
S113039008951092B9008CE08093B800089594EA0F
S11303A09093BC00ECEBF0E090819923ECF79091F2
S11303B0B900987F983011F09031A1F48093BB007C
S11303C084E88093BC00ECEBF0E080818823ECF7B8
S11303D09091B900987F983139F081E0903429F4F4
S11303E080E0089581E0089580E0089584E9809391
S11303F0BC00ECEBF0E0808184FDFDCF0895809398
S1130400BB0084E88093BC00ECEBF0E0808188239F
S1130410ECF79091B900987F81E0983209F480E07C
S11304200895CF93C82F8A3019F48DE00E941102E9
S1130430E0ECF0E0808185FFFDCFC093C600CF9152
S11304400895E0ECF0E080818823ECF78091C60009
S113045008951092C50087E68093C400E0ECF0E0B4
S113046080818D7F808386E08093C20088E18093C1
S1130470C1000895E5E5F1E08EE091E09383828385
S113048080E091E0918380830895EE0FFF1F059033
S1130490F491E02D0994A0E0B0E0E1E5F2E00C94E1
S11304A06308AE014B5F5F4FFA0161917191AF0137
S11304B080915701909158010E94A702E2E00C94A8
S11304C07F080F931F93CF93DF93E0915701F0912F
S11304D05801238121FF1BC08C01D0E0C0E0F8014A
S11304E081918F016091570170915801DB01189639
S11304F0ED91FC911997882331F00995892B79F3B3
S1130500DFEFCFEFECCF8AE00995892B19F08FEF5D
S11305109FEF02C08D2F9C2FDF91CF911F910F91E0
S11305200895A0E0B0E0E7E9F2E00C946308AE01BE
S11305304B5F5F4FFA0161917191AF018091550159
S1130540909156010E942406E2E00C947F08ABE0EF
S1130550B0E0EDEAF2E00C9453086C017B018A01EF
S1130560FC0117821682838181FFCCC1CE010196E2
S11305703C01F6019381F70193FD859193FF8191ED
S11305807F01882309F4BAC1853239F493FD85913A
S113059093FF81917F01853229F4B60190E00E9496
S11305A09D07E7CF912C212C312CFFE1F315D8F0D6
S11305B08B3279F038F4803279F08332A1F4232D30
S11305C020611DC08D3261F0803369F4232D2160D8
S11305D016C0832D8260382EE32DE4603E2E2AC09F
S11305E0F32DF8601DC037FC2DC020ED280F2A30F4
S11305F040F08E32B9F436FC81C1232D2064322EB2
S113060019C036FE06C08AE0989E200D1124922E51
S113061011C0EAE02E9E200D1124222EF32DF0624B
S11306203F2E08C08C3621F4832D8068382E02C0FA
S1130630883641F4F70193FD859193FF81917F0101
S11306408111B3CF982F9F7D9554933028F40C5F7C
S11306501F4F9FE399830DC0833631F0833771F0C8
S1130660833509F059C021C0F801808189830E5F68
S11306701F4F88248394912C530113C02801F2E066
S11306804F0E511CF801A080B18036FE03C0692DC5
S113069070E002C06FEF7FEFC5010E9454074C0168
S11306A08201F32DFF773F2E16C0280122E0420E6F
S11306B0511CF801A080B18036FE03C0692D70E0A2
S11306C002C06FEF7FEFC5010E9449074C01F32D73
S11306D0F0683F2E820133FC1BC0822D90E0881607
S11306E09906B0F4B60180E290E00E949D072A9436
S11306F0F4CFF50137FC859137FE81915F01B60196
S113070090E00E949D0721102A9421E0821A91080A
S11307108114910471F7E8C0843611F0893641F5EB
S1130720F80137FE07C060817181828193810C5F7B
S11307301F4F08C060817181072E000C880B990B34
S11307400E5F1F4FF32DFF763F2E97FF09C0909544
S11307508095709561957F4F8F4F9F4FF0683F2E26
S11307602AE030E0A3010E94F207882E861845C0D3
S1130770853731F4232D2F7EB22E2AE030E025C0B8
S1130780932D997FB92E8F36C1F018F4883579F0FE
S1130790B5C0803719F0883721F0B0C0E92FE06187
S11307A0BE2EB4FE0DC0FB2DF460BF2E09C034FE76
S11307B00AC0292F2660B22E06C028E030E005C00A
S11307C020E130E002C020E132E0F801B7FE07C0CA
S11307D060817181828193810C5F1F4F06C06081AB
S11307E0718180E090E00E5F1F4FA3010E94F20729
S11307F0882E8618FB2DFF773F2E36FE0DC0232D45
S11308002E7FA22E891458F434FE0BC032FC09C08A
S1130810832D8E7EA82E05C0B82CA32C03C0B82C23
S113082001C0B92CA4FE0FC0FE01E80DF11D8081AA
S1130830803321F49A2D997EA92E09C0A2FE06C008
S1130840B394B39404C08A2D867809F0B394A3FCBE
S113085011C0A0FE06C0B21488F4280C922C9B1878
S11308600EC0B21460F4B60180E290E00E949D07CD
S1130870B394F7CFB21418F42B1802C0982C212C7F
S1130880A4FE10C0B60180E390E00E949D07A2FE82
S113089017C0A1FC03C088E790E002C088E590E09F
S11308A0B6010CC08A2D867859F0A1FE02C08BE2F5
S11308B001C080E2A7FC8DE2B60190E00E949D0792
S11308C0891438F4B60180E390E00E949D079A945D
S11308D0F7CF8A94F301E80DF11D8081B60190E011
S11308E00E949D078110F5CF222009F442CEB60163
S11308F080E290E00E949D072A94F6CFF60186815B
S1130900978102C08FEF9FEF2B96E2E10C946F0862
S113091020FD09C0FC0123FD05C022FF02C0738332
S1130920628351834083089544FD17C046FD17C078
S1130930AB01BC01DA01FB01AA0FBB1FEE1FFF1FB5
S11309401094D1F74A0F5B1F6E1F7F1FCB01BA01B2
S1130950660F771F881F991F09C033E001C034E078
S1130960660F771F881F991F3150D1F7620F711DD1
S1130970811D911D08950F931F93CF93DF938C01D5
S1130980C8010E945F07EC0197FD08C00E9435076B
S1130990892BB1F7B801CE010E94D907CE01DF91AE
S11309A0CF911F910F9108958F929F92AF92BF9212
S11309B0EF92FF920F931F93CF93DF938C01D62F67
S11309C07A01B22E0E945F079C0133272B32310536
S11309D031F02D32310561F48B2D8068B82ED15061
S11309E011F480E068C0C8010E945F0797FDF9CF49
S11309F0CB2DCD7F2B2D207309F58033F9F4AA2458
S1130A00AA94AD0E09F443C0C8010E945F0797FD84
S1130A103EC09C012F7D33272835310549F4C2643B
S1130A20D250A9F1C8010E945F0797FF07C02FC0E9
S1130A30B6FE02C0C26001C0C261DA2D812C912CC5
S1130A40540120ED280F283080F0C4FF04C0B80101
S1130A500E94D90719C02A3040F0C6FFF8CF2F7D75
S1130A603FEE320F363098F727504C2FC501B401B2
S1130A700E9494044B015C01C260D15059F0C8013A
S1130A800E945F0797FFDDCFC1FD04C0AACF812C70
S1130A90912C5401C7FF08C0B094A0949094809402
S1130AA0811C911CA11CB11C2C2FB501A401C701F0
S1130AB00E94880481E0DF91CF911F910F91FF90F4
S1130AC0EF90BF90AF909F908F900895A0E2B0E018
S1130AD0ECE6F5E00C9456085C01962E7A01F901D7
S1130AE08E010F5F1F4F680180E2D8011D928A9525
S1130AF0E9F7D50113968C9080E090E0612C712C7D
S1130B0030E061E070E083FC259183FE21918F0148
S1130B10522E211103C080E090E092C02E3511F4D2
S1130B20009751F1432F50E0481759073CF42D35F5
S1130B3059F12D3219F4772009F103C0772009F413
S1130B406AC0452D469546954695D601A40FB11D1C
S1130B50452D47708B0102C0000F111F4A95E2F723
S1130B60A8015C91452B4C93651459F0561410F46C
S1130B705394E7CF5A94E5CF31E004C077247394BB
S1130B8001C0712C0196BFCF772019F08E8180624D
S1130B908E83311103C08824839417C0F6019E010B
S1130BA02F5D3F4F8081809581932E173F07D1F7AA
S1130BB0F2CFE114F10429F0D7018C93F7013196B7
S1130BC07F019A94812C9920F9F0C5010E945F0756
S1130BD097FD18C0FC01FF2723E0F595E7952A95BA
S1130BE0E1F7EC0DFD1D208130E0AC014770552785
S1130BF002C0359527954A95E2F720FDDACFB50175
S1130C000E94D907811087CFE114F10411F0D701B4
S1130C101C92C80115C0422F469546954695D601AB
S1130C20A40FB11D422F47708B0102C0000F111F8A
S1130C304A95E2F7A8015C91452B4C93622EA2CF12
S1130C40A096EFE00C947208A0E0B0E0EAE2F6E0CF
S1130C500C9456086C01EB015A01FC0117821682B0
S1130C60512CF601E380FE01E3FC8591E3FE8191C2
S1130C70182FEF01882309F4EEC090E00E94350795
S1130C80892B21F0C6010E94BB04EBCF153241F43D
S1130C90FE01E3FC1591E3FE1191EF01153281F49D
S1130CA0C6010E945F0797FDD4C0412F50E09C010C
S1130CB0332724173507A9F2B6010E94D907CBC000
S1130CC01A3239F4E3FC1591E3FE1191EF0101E0CE
S1130CD001C000E0F12C20ED210F2A3080F40260E5
S1130CE06F2D70E080E090E040E20E949404F62EC4
S1130CF0FE01E3FC1591E3FE1191EF01ECCF01FF3E
S1130D0003C0F11003C0A7C0FF24FA94183619F0E9
S1130D101C3651F010C0FE01E3FC1591E3FE119165
S1130D20EF01183641F408600460FE01E3FC1591FC
S1130D30E3FE1191EF01112309F48DC0612F70E0DE
S1130D4088E790E00E943E07892B09F484C000FDE7
S1130D5007C0F50180809180C50102965C0102C044
S1130D60812C912C1E3651F4F6014681578160E0A6
S1130D7070E0202FC4010E94880473CF1336A9F4B5
S1130D8001FD02C0FF24F394C6010E945F0797FD92
S1130D9060C08114910429F0F4018083C401019698
S1130DA04C01FA94F110F0CF50C01B3559F49E0158
S1130DB0A4016F2DC6010E946605EC01892B09F080
S1130DC044C03EC0C6010E94BB0497FD42C01F360A
S1130DD061F128F4143639F1193651F128C013376A
S1130DE071F0153701F123C08114910429F0F40145
S1130DF06082C40101964C01FA94FF2071F0C6018F
S1130E000E945F073C0197FD08C00E943507892BAB
S1130E1059F3B601C3010E94D90781149104A9F0C2
S1130E20F401108212C0006203C0006101C00064BA
S1130E30202FA4016F2DC6010E94D404811105C086
S1130E40F6018381807329F406C000FD0ACF539410
S1130E5008CF552019F0852D90E002C08FEF9FEF49
S1130E60CDB7DEB7EFE00C94720891110C945008E2
S1130E70803219F089508550C8F70895FC01059017
S1130E80061621F00020D9F7C00108953197CF014B
S1130E900895FC010590615070400110D8F78095C9
S1130EA090958E0F9F1F0895FC0161507040019032
S1130EB00110D8F7809590958E0F9F1F0895CF93BA
S1130EC0DF93EC012B8120FF33C026FF0AC02F7B68
S1130ED02B838E819F8101969F838E838A8190E0EC
S1130EE029C022FF0FC0E881F9818081082E000CFF
S1130EF0990B009719F420622B831AC03196F98359
S1130F00E8830EC0EA85FB85099597FF09C02B810C
S1130F10019611F080E201C080E1822B8B8308C02E
S1130F202E813F812F5F3F4F3F832E83992702C03D
S1130F308FEF9FEFDF91CF9108950F931F93CF937E
S1130F40DF93FB01238121FD03C08FEF9FEF2CC0B2
S1130F5022FF16C0468157812481358142175307E9
S1130F6044F4A081B1819D012F5F3F4F31832083E1
S1130F708C93268137812F5F3F4F3783268314C09C
S1130F808B01EC01FB010084F185E02D0995892B8F
S1130F90E1F6D80116968D919C91179701961796B4
S1130FA09C938E931697CE01DF91CF911F910F9151
S1130FB00895FB01238120FF12C026FD10C08F3F3E
S1130FC03FEF930761F082832F7D20642383268182
S1130FD037812150310937832683992708958FEF6C
S1130FE09FEF0895FA01AA27283051F1203181F1A9
S1130FF0E8946F936E7F6E5F7F4F8F4F9F4FAF4F1D
S1131000B1E03ED0B4E03CD0670F781F891F9A1F2F
S1131010A11D680F791F8A1F911DA11D6A0F711DE3
S1131020811D911DA11D20D009F468943F912AE0EF
S1131030269F11243019305D3193DEF6CF010895D7
S1131040462F4770405D4193B3E00FD0C9F7F6CF08
S1131050462F4F70405D4A3318F0495D31FD4052D0
S1131060419302D0A9F7EACFB4E0A6959795879566
S113107077956795BA95C9F7009761057105089545
S11310809B01AC010A2E06945795479537952795F1
S1131090BA95C9F7620F731F841F951FA01D089589
S11310A09927882708952F923F924F925F926F92CB
S11310B07F928F929F92AF92BF92CF92DF92EF92E4
S11310C0FF920F931F93CF93DF93CDB7DEB7CA1B65
S11310D0DB0B0FB6F894DEBF0FBECDBF09942A8890
S11310E0398848885F846E847D848C849B84AA8438
S11310F0B984C884DF80EE80FD800C811B81AA81C5
S1131100B981CE0FD11D0FB6F894DEBF0FBECDBF8F
S10B1110ED010895F894FFCFEE
S1131118000000010000000000002102000000009F
S11311280002000000001102000000004164616632
S1131138727569742031343338004D6F746F7220BE
S11311486E756D6265723A00496E70757420616ED1
S1131158205250532076616C75653A005350453AD5
S107116820256400D6
S9030000FC
