S01400004D6F746F725F6472697665722E7372656314
S11300000C9444000C9461000C9461000C94610005
S11300100C9461000C9461000C9461000C946100D8
S11300200C9461000C9461000C9461000C946100C8
S11300300C9461000C9461000C9461000C946100B8
S11300400C9461000C9461000C9461000C946100A8
S11300500C9461000C9461000C9461000C94610098
S11300600C9461000C9461004701E4004A01E7002C
S11300704101E1004401EA006B01700175017A015C
S11300807F01840189018E0111241FBECFEFD8E0C6
S1130090DEBFCDBF11E0A0E0B1E0E6E4F4E002C0D1
S11300A005900D92A030B107D9F721E0A0E0B1E0AE
S11300B001C01D92A130B207E1F70E9463000C94C5
S11300C021020C94000083E00E94AE0160E081E014
S11300D00E94D40060E082E00E94D40060E083E0EB
S11300E00E94D40060E084E00E94D40062E081E0D9
S11300F00E94D4004FEF51E060E070E081E00E9484
S11301004F01FFCF611110C021E030E0A90102C00E
S1130110440F551F8A95E2F7CA018095909100011A
S113012089238093000110C0613071F421E030E034
S1130130A90102C0440F551F8A95E2F7CA019091A4
S11301400001892B8093000180E70E94D9018091EE
S113015000010E9409020E9400020895CF93DF93D8
S1130160D82FC62F80EC0E94D9018D2F0E9409023E
S1130170C1110AC080E00E94090280E00E940902C5
S113018080E10E9409020BC0C13049F480E10E9461
S1130190090280E00E94090280E00E9409020E9494
S11301A00002DF91CF910895CF93962F482F50E00E
S11301B0FA013197E830F10580F4EC5CFF4F0C94C0
S11301C01B02C3E082E036C0C7E383E30AC0CFE189
S11301D08BE107C0C7E086E02DC0853048F5C0E05C
S11301E080E0923029F0933099F09130C9F408C03E
S11301F060E00E94AE0061E08C2F0E94AE004DC012
S113020061E00E94AE0060E08C2F0E94AE0045C009
S113021061E00E94AE0061E08C2F0E94AE003DC000
S113022060E00E94AE0060E08C2F0E94AE0035C0FA
S1130230C0E080E0923029F0933099F09130C9F415
S113024008C060E00E94820061E08C2F0E9482005E
S113025024C061E00E94820060E08C2F0E94820032
S11302601CC061E00E94820061E08C2F0E94820029
S113027014C060E00E94820060E08C2F0E94820023
S11302800CC0C1E080E0D6CFC5E084E0D3CFCBE2A0
S11302908FE2A7CFC3E187E1A4CFCF910895FF9266
S11302A00F931F93CF93DF938B01EA016115704184
S11302B010F000E010E0C11590E1D90710F0C0E0A3
S11302C0D0E090E0FC013197E830F10560F5E45CA2
S11302D0FF4F0C941B020F2EF6E2FF2EF02D24C0CC
S11302E00F2EFAE3FF2EF02D1FC00F2EFEE0FF2E7F
S11302F0F02D1AC00F2EF2E2FF2EF02D15C00F2E96
S1130300F6E0FF2EF02D10C00F2EFAE0FF2EF02D98
S11303100BC00F2EFEE3FF2EF02D06C00F2EF2E4CD
S1130320FF2EF02D01C0F12C80EC0E94D9018F2DFD
S11303300E940902802F0E940902812F0E94090253
S11303408C2F0E9409028D2F0E9409020E94000234
S1130350DF91CF911F910F91FF900895CF93C82FF4
S113036080EC0E94D90180E00E94090280E30E948F
S113037009020E94000280EC0E94D9018EEF0E94C3
S113038009028C2F0E94090280EC0E94D90180E0AE
S11303900E94090280E20E9409020E94000280E792
S11303A00E94D90180E00E9409020E940002CF91BC
S11303B0089594EA9093BC00ECEBF0E090819923CB
S11303C0ECF79091B900987F983011F09031A1F436
S11303D08093BB0084E88093BC00ECEBF0E0808168
S11303E08823ECF79091B900987F983139F081E037
S11303F0903429F480E0089581E0089580E0089520
S113040084E98093BC00ECEBF0E0808184FDFDCFB7
S113041008958093BB0084E88093BC00ECEBF0E08B
S113042080818823ECF79091B900987F81E098321D
S113043009F480E00895EE0FFF1F0590F491E02D7C
S10904400994F894FFCFBB
S9030000FC
