:100000000C94DB000C94F8000C94F8000C94F800AD
:100010000C94F8000C94F8000C94F8000C94F80080
:100020000C94F8000C94F8000C94F8000C94F80070
:100030000C94F8000C94F8000C94F8000C94F80060
:100040000C94F8000C94F8000C94F8000C94F80050
:100050000C94F8000C94F8000C94F8000C94F80040
:100060000C94F8000C94F800084AD73B3BCE016E84
:1000700084BCBFFDC12F3D6C74319ABD56833DDAFF
:100080003D00C77F11BED9E4BB4C3E916BAAAABE0E
:10009000000000803F05A84CCDB2D44EB93836A937
:1000A000020C50B9918688083CA6AAAA2ABE000074
:1000B00000803F006E616E00696E660000407A103D
:1000C000F35A00A0724E18090010A5D4E80000E809
:1000D0007648170000E40B54020000CA9A3B000067
:1000E00000E1F505000080969800000040420F00F6
:1000F0000000A08601000000102700000000E803B7
:10010000000000006400000000000A000000000081
:100110000100000000002C76D888DC674F0823DF40
:10012000C1DFAE59E1B1B796E5E3E453C63AE65113
:10013000997696E8E6C28426EB898C9B62ED407C3A
:100140006FFCEFBC9C9F40F2BAA56FA5F490055AD6
:100150002AF75C936B6CF9676DC11BFCE0E40D47FB
:10016000FEF520E6B500D0ED902E0300943577051E
:100170000080841E080000204E0A000000C80C33D6
:100180003333330F986E12831141EF8D2114893B65
:10019000E65516CFFEE6DB18D1844B381BF77C1DE5
:1001A000901DA4BBE424203284725E228100C9F138
:1001B00024ECA1E53D2711241FBECFEFD8E0DEBF20
:1001C000CDBF11E0A0E0B1E0E6E9F5E202C00590A4
:1001D0000D92A834B107D9F721E0A8E4B1E001C03D
:1001E0001D92A23BB207E1F70E944A080C94C91283
:1001F0000C940000CF93C82F8EE40E94530A809184
:1002000048018C2B0E94870A0E947E0ACF91089594
:10021000CF93C82F84600E94FA0085E08A95F1F799
:1002200000008C2F8B7F0E94FA0087EC90E00197F2
:10023000F1F700C00000CF910895CF93C82FCD7F74
:100240008C2F0E94FA008C2F0E940801CF910895F4
:10025000CF93DF93D82FC62FC460807F8C2B0E9452
:100260001D018D2F8295807F8C2B0E941D01DF91B7
:10027000CF91089561E00E94280108950E943A01FB
:1002800080E090E0089560E081E00E9428012FEF77
:1002900086E791E0215080409040E1F700C00000E7
:1002A0000895CF93DF93CDB7DEB728970FB6F894B4
:1002B000DEBF0FBECDBF98E0EEE0F1E0DE011196AB
:1002C00001900D929A95E1F790914901691710F00C
:1002D0006FEF690FE62FF0E0EE0FFF1FEC0FFD1F31
:1002E0009181890F60E080680E94280128960FB6EE
:1002F000F894DEBF0FBECDBFDF91CF9108958091FE
:100300004B018B7F80934B0160E088600E94280145
:10031000089580914B01982F946090934B0160E079
:100320008C600E942801089580E091E09093AF01D5
:100330008093AE018091480188608093480184E0F9
:10034000809349012FEF80E792E021508040904058
:10035000E1F700C000008EE40E94530A84E00E948E
:10036000870A8FE891E00197F1F700C0000080E371
:100370000E941D018FE496E40197F1F700C0000090
:1003800080E30E941D0187E592E00197F1F700C02C
:10039000000080E30E941D0187E592E00197F1F7DC
:1003A00000C0000080E20E941D0187E592E00197F5
:1003B000F1F700C0000060E088E20E94280110927E
:1003C0004B010E947F010E94890182E080934C01D1
:1003D00060E086E00E94280180914B0160E0886027
:1003E0000E94280188E080934A0160E088E10E9431
:1003F00028010E9443010895CF93DF93D82FC62F81
:100400008AE30E942C0A8D2F0E94870A8C2F0E945B
:10041000870A0E947E0ADF91CF910895CF93C82F5B
:100420008AE30E942C0A8C2F0E94870A8BE30E9489
:100430007B0A0E94990AC82F0E947E0A8C2FCF91B6
:1004400008958DE00E940E028093590160E48BE2D2
:100450000E94FC018FE39CE90197F1F700C00000C6
:100460008BE20E940E028093910160E08EE00E9478
:10047000FC0162E08BE20E94FC0161E08DE20E94DF
:10048000FC0161E08EE20E94FC0160E481E10E94D7
:10049000FC016DE38AE20E94FC01089580E10E9464
:1004A0000E02877008954F925F926F927F928F92A3
:1004B0009F92AF92BF92CF92DF92EF92FF920F93F3
:1004C0001F93CF93DF9325E33AEF4EE85CE360910F
:1004D00066017091670180916801909169010E94A5
:1004E00051100E94BE102B013C0160935A01709381
:1004F0005B0180935C0190935D0125E33AEF4EE848
:100500005CE36091A8017091A9018091AA0190918A
:10051000AB010E9451100E94BE104B015C01609320
:100520005F0170936001809361019093620125E304
:100530003AEF4EE85CE36091890170918A01809105
:100540008B0190918C010E9451100E94BE106B0192
:100550007C016093550170935601809357019093ED
:1005600058010091920110919301C0919401D09192
:10057000950120E030E0A901602F712F8C2F9D2F75
:100580000E94441018160CF077C020E030E0A9015A
:10059000C301B2010E944410181644F5202F312FD8
:1005A0004C2F5D2FC301B2010E94580E2B013C015C
:1005B0002DEC3CEC4CEC5DE30E94F40E8823B4F48B
:1005C0002DEC3CEC4CEC5DEBC301B2010E944410FD
:1005D000181664F4802F912FAC2FBD2F80935A01F1
:1005E00090935B01A0935C01B0935D0140905A0130
:1005F00050905B0160905C0170905D0120E030E004
:10060000A901C301B2010E94F40E8823ACF5A30135
:100610009201602F712F8C2F9D2F0E94590E2B015C
:100620003C012DEC3CEC4CEC5DE30E94F40E882385
:100630001CF52DEC3CEC4CEC5DEBC301B2010E94CF
:1006400044101816CCF4802F912FAC2FBD2F80931F
:100650005A0190935B01A0935C01B0935D0120E08F
:1006600030E0A901602F712F8C2F9D2F0E94F40E76
:1006700088230CF088C02AC420E030E0A901602F54
:10068000712F8C2F9D2F0E94F40E88230CF07BC0BD
:1006900040905A0150905B0160905C0170905D0148
:1006A00020E030E0A901C301B2010E9444101816F5
:1006B0006CF5A3019201602F712F8C2F9D2F0E944A
:1006C000590E2B013C012DEC3CEC4CEC5DE30E94FF
:1006D000F40E8823DCF42DEC3CEC4CEC5DEBC30118
:1006E000B2010E94441018168CF4802F912FAC2F69
:1006F000BD2F80935A0190935B01A0935C01B0934E
:100700005D01702E612E5C2E4D2E13C070905A012B
:1007100060905B0150905C0140905D0120E030E012
:10072000A901672D762D852D942D0E94F40E882326
:1007300054F5202F312F4C2F5D2F672D762D852DD1
:10074000942D0E94580E2B013C012DEC3CEC4CECFE
:100750005DE30E94F40E8823B4F42DEC3CEC4CECE9
:100760005DEBC301B2010E944410181664F4802F9F
:10077000912FAC2FBD2F80935A0190935B01A093D2
:100780005C01B0935D014090A4015090A501609080
:10079000A6017090A70120E030E0A901642D752D1D
:1007A000862D972D0E94441018160CF077C020E07B
:1007B00030E0A901C501B4010E944410181644F5A7
:1007C000242D352D462D572DC501B4010E94580EFC
:1007D0004B015C012DEC3CEC4CEC5DE30E94F40E13
:1007E0008823B4F42DEC3CEC4CEC5DEBC501B4017A
:1007F0000E944410181664F4842D952DA62DB72D53
:1008000080935F0190936001A0936101B0936201B6
:1008100080905F0190906001A0906101B0906201B2
:1008200020E030E0A901C501B4010E94F40E882344
:10083000ACF5A5019401642D752D862D972D0E9490
:10084000590E4B015C012DEC3CEC4CEC5DE30E943D
:10085000F40E88231CF52DEC3CEC4CEC5DEBC50153
:10086000B4010E9444101816CCF4842D952DA62DA9
:10087000B72D80935F0190936001A0936101B093C5
:10088000620120E030E0A901642D752D862D972DA1
:100890000E94F40E88230CF088C02DC320E030E0C5
:1008A000A901642D752D862D972D0E94F40E8823A5
:1008B0000CF07BC080905F0190906001A09061017E
:1008C000B090620120E030E0A901C501B4010E94AE
:1008D000441018166CF5A5019401642D752D862D14
:1008E000972D0E94590E4B015C012DEC3CEC4CEC19
:1008F0005DE30E94F40E8823DCF42DEC3CEC4CEC20
:100900005DEBC501B4010E94441018168CF4842DCF
:10091000952DA62DB72D80935F0190936001A09334
:100920006101B0936201B42CA52C962C872C13C0C6
:10093000B0905F01A0906001909061018090620191
:1009400020E030E0A9016B2D7A2D892D982D0E9491
:10095000F40E882354F5242D352D462D572D6B2D5F
:100960007A2D892D982D0E94580E4B015C012DEC9B
:100970003CEC4CEC5DE30E94F40E8823B4F42DECC7
:100980003CEC4CEC5DEBC501B4010E944410181620
:1009900064F4842D952DA62DB72D80935F0190933F
:1009A0006001A0936101B093620180909C019090DE
:1009B0009D01A0909E01B0909F0120E030E0A90130
:1009C000682D792D8A2D9B2D0E94441018160CF04D
:1009D00077C020E030E0A901C701B6010E944410B1
:1009E000181644F5282D392D4A2D5B2DC701B60167
:1009F0000E94580E6B017C012DEC3CEC4CEC5DE34D
:100A00000E94F40E8823B4F42DEC3CEC4CEC5DEB2E
:100A1000C701B6010E944410181664F4882D992D60
:100A2000AA2DBB2D8093550190935601A093570199
:100A3000B0935801C0905501D0905601E0905701F5
:100A4000F090580120E030E0A901C701B6010E94F2
:100A5000F40E8823ACF5A7019601682D792D8A2D17
:100A60009B2D0E94590E6B017C012DEC3CEC4CEC53
:100A70005DE30E94F40E88231CF52DEC3CEC4CEC5D
:100A80005DEBC701B6010E9444101816CCF4882D06
:100A9000992DAA2DBB2D8093550190935601A093BB
:100AA0005701B093580120E030E0A901682D792D5D
:100AB0008A2D9B2D0E94F40E88230CF088C030C232
:100AC00020E030E0A901682D792D8A2D9B2D0E9410
:100AD000F40E88230CF07BC0C0905501D0905601D5
:100AE000E0905701F090580120E030E0A901C701E3
:100AF000B6010E94441018166CF5A7019601682DE6
:100B0000792D8A2D9B2D0E94590E6B017C012DECB5
:100B10003CEC4CEC5DE30E94F40E8823DCF42DECFD
:100B20003CEC4CEC5DEBC701B6010E94441018167A
:100B30008CF4882D992DAA2DBB2D8093550190936F
:100B40005601A0935701B0935801F82CE92CDA2CE8
:100B5000CB2C13C0F0905501E0905601D090570176
:100B6000C090580120E030E0A9016F2D7E2D8D2D21
:100B70009C2D0E94F40E882354F5282D392D4A2DE2
:100B80005B2D6F2D7E2D8D2D9C2D0E94580E6B019F
:100B90007C012DEC3CEC4CEC5DE30E94F40E8823D0
:100BA000B4F42DEC3CEC4CEC5DEBC701B6010E94BB
:100BB0004410181664F4882D992DAA2DBB2D80930E
:100BC000550190935601A0935701B0935801C090DE
:100BD0005A01D0905B01E0905C01F0905D0120E053
:100BE00030E0A901C701B6010E9444101816C4F5EF
:100BF00020E030E0A901602F712F8C2F9D2F0E94E3
:100C00004410181684F4A7019601602F712F8C2FC1
:100C10009D2F0E94580E60937C0170937D018093FC
:100C20007E0190937F0120E030E0A901602F712FB9
:100C30008C2F9D2F0E94F40E88230CF047C0A70133
:100C40009601602F712F8C2F9D2F0E94590E60935B
:100C50007C0170937D0180937E0190937F0136C06B
:100C600020E030E0A901602F712F8C2F9D2F0E9472
:100C70004410181684F4A7019601602F712F8C2F51
:100C80009D2F0E94590E60937C0170937D0180938B
:100C90007E0190937F0120E030E0A901602F712F49
:100CA0008C2F9D2F0E94F40E882384F4A7019601B7
:100CB000602F712F8C2F9D2F0E94580E60937C0106
:100CC00070937D0180937E0190937F01C0905F01BE
:100CD000D0906001E0906101F090620120E030E08E
:100CE000A901C701B6010E9444101816C4F58090EE
:100CF000A4019090A501A090A601B090A70120E0CA
:100D000030E0A901C501B4010E944410181674F422
:100D1000A7019601C501B4010E94580E60938D0190
:100D200070938E0180938F019093900120E030E0CA
:100D3000A901C501B4010E94F40E88230CF045C03E
:100D4000A5019401C701B6010E94590E60938D015F
:100D500070938E0180938F019093900136C08090A4
:100D6000A4019090A501A090A601B090A70120E059
:100D700030E0A901C501B4010E944410181674F4B2
:100D8000A5019401C701B6010E94590E60938D011F
:100D900070938E0180938F019093900120E030E05A
:100DA000A901C501B4010E94F40E882374F4A701BF
:100DB0009601C501B4010E94580E60938D01709395
:100DC0008E0180938F0190939001C0905501D09037
:100DD0005601E0905701F090580120E030E0A90161
:100DE000C701B6010E9444101816C4F580909C01FA
:100DF00090909D01A0909E01B0909F0120E030E076
:100E0000A901C501B4010E944410181674F4A70189
:100E10009601C501B4010E94580E60938101709340
:100E20008201809383019093840120E030E0A90146
:100E3000C501B4010E94F40E88230CF0A1C0A501E5
:100E40009401C701B6010E94590E6093810170930D
:100E50008201809383019093840192C080909C01D1
:100E600090909D01A0909E01B0909F0120E030E005
:100E7000A901C501B4010E944410181674F4A5011B
:100E80009401C701B6010E94590E609381017093CD
:100E90008201809383019093840120E030E0A901D6
:100EA000C501B4010E94F40E88230CF069C0A701AB
:100EB0009601C501B4010E94580E609381017093A0
:100EC000820180938301909384015AC0202F312F97
:100ED0004C2F5D2F602F712F8C2F9D2F0E94590E4C
:100EE0002B013C012DEC3CEC4CEC5DE30E94F40E3C
:100EF00088235CF5F0CB242D352D462D572D642D00
:100F0000752D862D972D0E94590E4B015C012DECFD
:100F10003CEC4CEC5DE30E94F40E8823FCF4EDCC39
:100F2000282D392D4A2D5B2D682D792D8A2D9B2D4D
:100F30000E94590E6B017C012DEC3CEC4CEC5DE306
:100F40000E94F40E88239CF4EACD70905A016090C0
:100F50005B0150905C0140905D01EBCBB0905F0174
:100F6000A09060019090610180906201F4CCF090BB
:100F70005501E0905601D0905701C0905801FDCD29
:100F8000DF91CF911F910F91FF90EF90DF90CF9065
:100F9000BF90AF909F908F907F906F905F904F9099
:100FA000089520E030E040E05FE360917C017091C3
:100FB0007D0180917E0190917F010E94511027E177
:100FC00037EB41ED5BE30E9451109B01AC01609156
:100FD00096017091970180919801909199010E94DA
:100FE000590E6093960170939701809398019093A6
:100FF000990120E030E040E05FE360918D01709165
:101000008E0180918F01909190010E94511027E1F3
:1010100037EB41ED5BE30E9451109B01AC01609105
:101020006E0170916F0180917001909171010E9429
:10103000590E60936E0170936F01809370019093CD
:10104000710120E030E040E05FE360918101709148
:10105000820180918301909184010E94511027E1C7
:1010600037EB41ED5BE30E9451109B01AC016091B5
:101070004D0170914E0180914F01909150010E945D
:10108000590E60934D0170934E0180934F019093E0
:1010900050010895CF93DF9300D000D000D0CDB79A
:1010A000DEB70E94260A0E9494010E9421020F2EA0
:1010B000F2E7EF2EF1E0FF2EF02D0F2EF0E42F2EB1
:1010C000F1E03F2EF02D81E00E940E02D7018C93BB
:1010D00082E00E940E02F701818383E00E940E02EB
:1010E000D70112968C9384E00E940E02F70183834D
:1010F00085E00E940E02D70114968C9386E00E9430
:101100000E02C82EF7018583F0812F2F30E0922F39
:1011100088279A838983D70111968C91E981FA8176
:10112000E82BF595E795F595E795FE83ED83BF01EF
:10113000FF0F880B990B0E946D0F20E030E040E814
:1011400058E30E9451104B015C0160935101709370
:1011500052018093530190935401D70112960C9140
:10116000129710E0102F002713968C91082B1595DD
:10117000079515950795B801012E000C880B990B62
:101180000E946D0F20E030E040E858E30E945110CB
:101190002B013C0160938501709386018093870148
:1011A00090938801F7018481D12CD82AD594C794D3
:1011B000D594C794B6010D2C000C880B990B0E9496
:1011C0006D0F20E030E040E858E30E945110698341
:1011D0007A838B839C8360936A0170936B01809305
:1011E0006C0190936D014D815E81552314F4495F2C
:1011F0005F4F559547955595479555954795419519
:101200004093A101C80111230CF407969595879589
:101210009595879595958795582F51955093A00151
:101220002D813E813051C90199230CF40796959583
:101230008795959587959595879581958093630179
:101240002D813E81240F311D30936501209364016F
:10125000050F111D1093A3010093A201C80ED11C0C
:10126000D0929B01C0929A0129813A814B815C8185
:10127000C501B4010E94F90E0E94C50E24EE3EE2A3
:1012800045E652E40E945110609366017093670135
:10129000809368019093690129813A814B815C8137
:1012A000C301B2010E94F90E0E94C50E24EE3EE277
:1012B00045E652E40E9451106093A8017093A90181
:1012C0008093AA019093AB01A3019201C501B401DF
:1012D0000E94F90E0E94C50E24EE3EE245E652E45D
:1012E0000E9451106093890170938A0180938B0151
:1012F00090938C010E9453020E944E0280935E01E3
:101300000E94D1076091640170916501072E000C65
:10131000880B990B0E946D0F20E030E040E859E304
:101320000E945110609392017093930180939401F5
:10133000909395016091A2017091A301072E000C7A
:10134000880B990B0E946D0F20E030E040E859E3D4
:101350000E9451106093A4017093A5018093A6018F
:101360009093A70160919A0170919B01072E000C48
:10137000880B990B0E946D0F20E030E040E859E3A4
:101380000E94511060939C0170939D0180939E0177
:1013900090939F0160E080E00E945101809169017B
:1013A0008F93809168018F93809167018F938091D3
:1013B00066018F9386E191E09F938F930E9455126F
:1013C00061E080E00E9451018091AB018F93809198
:1013D000AA018F938091A9018F938091A8018F9387
:1013E000E4E2F1E0FF93EF930E94551262E080E0A7
:1013F0000E94510180918C018F9380918B018F937A
:1014000080918A018F93809189018F9382E391E08B
:101410009F938F930E94551263E080E00E945101D8
:1014200080919F018F9380919E018F9380919D0168
:101430008F9380919C018F933F922F920E9455121F
:101440000FB6F894DEBF0FBECDBF3DCE1092B900EF
:1014500088E48093B800089594EA9093BC00ECEB84
:10146000F0E090819923ECF79091B900987F983043
:1014700011F09031A1F48093BB0084E88093BC000C
:10148000ECEBF0E080818823ECF79091B900987F35
:10149000983139F081E0903429F480E0089581E0BA
:1014A000089580E00895CF93DF93ECEBF0E024EA19
:1014B000A9EBB0E0CBEBD0E034E844E920839081A5
:1014C0009923ECF79C91987F983011F09031B1F707
:1014D0008883308390819923ECF79C91987F903298
:1014E00011F0983529F44083908194FDFDCFE6CF2B
:1014F000DF91CF9108950E942C0A089584E980938A
:10150000BC00ECEBF0E0808184FDFDCF089580937A
:10151000BB0084E88093BC00ECEBF0E08081882382
:10152000ECF79091B900987F81E0983209F480E05F
:10153000089584E88093BC00ECEBF0E08081882380
:10154000ECF78091BB000895A0E1B0E0EAEAFAE090
:101550000C94210E7C011B016A01FC01178216828A
:10156000838181FF44C39E012F5F3F4F3901F70103
:101570009381F10193FD859193FF81911F01882350
:1015800009F431C3853239F493FD859193FF81913C
:101590001F01853239F4B70190E00E9419125601FB
:1015A0006501E5CF10E0512C912CFFE1F915D8F041
:1015B0008B3279F038F4803279F08332A1F4F92D4E
:1015C000F0612EC08D3261F0803369F4292D2160E5
:1015D0002DC0392D3260932E892D8460982E2AC01B
:1015E000E92DE86015C097FC2DC020ED280F2A30AA
:1015F00088F496FE06C03AE0139F200D1124122FA6
:1016000019C08AE0589E200D1124522EE92DE06267
:101610009E2E10C08E3231F496FCE5C2F92DF06496
:101620009F2E08C08C3621F4292D2068922E02C0EE
:10163000883641F4F10193FD859193FF81911F015B
:101640008111B3CF9BEB980F933020F4992D9061CB
:10165000805E07C09BE9980F933008F066C1992D12
:101660009F7E96FF16E09F73992E853619F490643D
:10167000992E08C0863621F4392F3068932E02C087
:101680001111115097FE07C01C3350F444244394A9
:10169000410E27E00BC0183038F027E017E005C0F6
:1016A00027E09CE3492E02C0212F412C560184E003
:1016B000A80EB11CF6016081718182819381042D95
:1016C000A3010E942B116C01F981FC87F0FF02C07D
:1016D000F3FF06C091FC06C092FE06C000E205C002
:1016E0000DE203C00BE201C000E08C858C7019F0A4
:1016F00001115AC29BC297FE10C04C0CFC85F4FF2E
:1017000004C08A81813309F44A94141474F528E0E2
:10171000241578F588E0482E2CC096FC2AC0812F2D
:1017200090E08C159D059CF03CEFC3163FEFD3066F
:1017300074F0892D8068982E0AC0E2E0F0E0EC0F8A
:10174000FD1FE10FF11D8081803319F4115011113B
:10175000F4CF97FE0EC044244394410E812F90E0B5
:10176000C816D9062CF41C1904C04424439401C0A3
:1017700010E097FE06C01C141D0434F4C601019647
:1017800005C085E090E002C081E090E00111019683
:10179000112331F0212F30E02F5F3F4F820F931F35
:1017A000252D30E08217930714F4581A01C0512CEC
:1017B000892D897049F4552039F0B70180E290E015
:1017C0000E9419125A94F7CF002329F0B701802FF5
:1017D00090E00E94191293FC09C0552039F0B7011E
:1017E00080E390E00E9419125A94F7CF97FE4CC004
:1017F0004601D7FE02C0812C912CC6018819990997
:10180000F301E80FF91FFE87ED87960124193109CE
:10181000388B2F87012F10E01195019511093FEFAB
:101820008316930629F4B7018EE290E00E94191204
:10183000C814D9044CF08F8598898815990524F42B
:10184000ED85FE85818101C080E3F1E08F1A91086A
:101850002D853E852F5F3F4F3E872D878016910651
:101860002CF0B70190E00E941912D9CFC814D90406
:1018700041F49A81963320F4953319F43C8534FF72
:1018800081E3B70190E04EC08A81813319F09C85D5
:101890009F7E9C87B70190E00E941912111105C02C
:1018A00094FC18C085E690E017C0B7018EE290E086
:1018B0000E9419121E5F82E001E0080FF301E80F99
:1018C000F11D8081B70190E00E941912802F011351
:1018D000F3CFE6CF85E490E0B7010E941912D7FC60
:1018E00006C0C114D10441F4EC85E4FF05C0D194D5
:1018F000C194D1088DE201C08BE2B70190E00E9453
:10190000191280E32AE0C216D1042CF08F5FFAE0AE
:10191000CF1AD108F7CFB70190E00E941912B70192
:10192000C601C0960E94191254C1833631F0833724
:1019300079F0833509F056C020C0560132E0A30E7D
:10194000B11CF6018081898301E010E0630112C0BF
:101950005601F2E0AF0EB11CF601C080D18096FEB8
:1019600003C0612F70E002C06FEF7FEFC6010E94DD
:101970000E128C01F92DFF7714C0560122E0A20E41
:10198000B11CF601C080D18096FE03C0612F70E0CB
:1019900002C06FEF7FEFC6010E9403128C01F92D88
:1019A000F0689F2EF3FD1AC0852D90E008171907E7
:1019B000A8F4B70180E290E00E9419125A94F4CF83
:1019C000F60197FC859197FE81916F01B70190E038
:1019D0000E94191251105A94015011090115110554
:1019E00079F7F7C0843611F0893661F5560197FE14
:1019F00009C024E0A20EB11CF601608171818281D0
:101A000093810AC0F2E0AF0EB11CF60160817181D2
:101A1000072E000C880B990BF92DFF769F2E97FF50
:101A200009C090958095709561957F4F8F4F9F4F1E
:101A3000F0689F2E2AE030E0A3010E946B12C82EAE
:101A4000C6183FC0092D853721F40F7E2AE030E00B
:101A50001DC0097F8F3691F018F4883559F0C3C046
:101A6000803719F0883711F0BEC0006104FF09C04B
:101A7000046007C094FE08C0066006C028E030E09D
:101A800005C020E130E002C020E132E0560107FF4E
:101A900009C084E0A80EB11CF601608171818281C9
:101AA000938108C0F2E0AF0EB11CF6016081718134
:101AB00080E090E0A3010E946B12C82EC6180F7739
:101AC000902E96FE0BC0092D0E7FC11650F494FE89
:101AD0000AC092FC08C0092D0E7E05C0DC2C092D21
:101AE00003C0DC2C01C0D12E04FF0DC0FE01EC0DA3
:101AF000F11D8081803311F4097E09C002FF06C008
:101B0000D394D39404C0802F867809F0D39403FD36
:101B100011C000FF06C01C2DD51480F4150D1D1931
:101B20000DC0D51458F4B70180E290E00E9419125C
:101B3000D394F7CFD51410F45D1801C0512C04FFD5
:101B400010C0B70180E390E00E94191202FF17C095
:101B500001FD03C088E790E002C088E590E0B7018E
:101B60000CC0802F867859F001FF02C08BE201C0C3
:101B700080E207FD8DE2B70190E00E941912C116C4
:101B800038F4B70180E390E00E9419121150F7CFAA
:101B9000CA94F301EC0DF11D8081B70190E00E9421
:101BA0001912C110F5CF15C0F4E0F51560F584E009
:101BB000581A93FE1FC0011127C02C8523FF2AC08D
:101BC00004EB10E0392D3071932EF80184918111CE
:101BD00024C0552009F4E4CCB70180E290E00E94D3
:101BE00019125A94F6CFF7018681978126C08FEF9C
:101BF0009FEF23C0B70180E290E00E9419125A942F
:101C00005110F8CFD8CF512CB701802F90E00E940F
:101C10001912D3CF08EB10E0D5CF91108052B70145
:101C200090E00E9419120F5F1F4FCFCF23E02515C0
:101C300010F483E0BDCF512CC0CF6096E2E10C944C
:101C40003D0E2F923F924F925F926F927F928F92B2
:101C50009F92AF92BF92CF92DF92EF92FF920F933B
:101C60001F93CF93DF93CDB7DEB7CA1BDB0B0FB645
:101C7000F894DEBF0FBECDBF09942A883988488802
:101C80005F846E847D848C849B84AA84B984C88498
:101C9000DF80EE80FD800C811B81AA81B981CE0F8F
:101CA000D11D0FB6F894DEBF0FBECDBFED01089574
:101CB0005058BB27AA270E94700E0C940A100E944D
:101CC000FC0F38F00E94031020F039F49F3F19F404
:101CD00026F40C94D20F0EF4E095E7FB0C94CC0F95
:101CE000E92F0E941B1058F3BA1762077307840785
:101CF000950720F079F4A6F50C943D100EF4E095CC
:101D00000B2EBA2FA02D0B01B90190010C01CA01B5
:101D1000A0011124FF27591B99F0593F50F4503E60
:101D200068F11A16F040A22F232F342F4427585F52
:101D3000F3CF469537952795A795F0405395C9F76A
:101D40007EF41F16BA0B620B730B840BBAF0915022
:101D5000A1F0FF0FBB1F661F771F881FC2F70EC0C1
:101D6000BA0F621F731F841F48F487957795679594
:101D7000B795F7959E3F08F0B0CF9395880F08F080
:101D80009927EE0F979587950895DF93DD27B92F53
:101D9000BF7740E85FE31616170648075B0718F49D
:101DA000D92F0E9449109F938F937F936F930E9426
:101DB000C610E8E6F0E00E94D50F0E940A102F91AD
:101DC0003F914F915F910E946410DD2351F0905834
:101DD000A2EA2AED3FE049EC5FE3D0785D270E945C
:101DE000700EDF910C940A100E94A80F08F481E095
:101DF00008950E940D0F0C940A100E94031058F0D1
:101E00000E94FC0F40F029F45F3F29F00C94CC0FA6
:101E100051110C943E100C94D20F0E941B1068F3C9
:101E20009923B1F3552391F3951B550BBB27AA2793
:101E300062177307840738F09F5F5F4F220F331FCD
:101E4000441FAA1FA9F335D00E2E3AF0E0E832D095
:101E500091505040E695001CCAF72BD0FE2F29D098
:101E6000660F771F881FBB1F261737074807AB076A
:101E7000B0E809F0BB0B802DBF01FF2793585F4FDF
:101E80003AF09E3F510578F00C94CC0F0C943E1024
:101E90005F3FE4F3983ED4F3869577956795B795C1
:101EA000F7959F5FC9F7880F911D9695879597F9CC
:101EB0000895E1E0660F771F881FBB1F6217730745
:101EC0008407BA0720F0621B730B840BBA0BEE1F5A
:101ED00088F7E0950895E89409C097FB3EF4909543
:101EE0008095709561957F4F8F4F9F4F9923A9F0F3
:101EF000F92F96E9BB279395F69587957795679582
:101F0000B795F111F8CFFAF4BB0F11F460FF1BC0C5
:101F10006F5F7F4F8F4F9F4F16C0882311F096E958
:101F200011C0772321F09EE8872F762F05C0662306
:101F300071F096E8862F70E060E02AF09A95660FBF
:101F4000771F881FDAF7880F9695879597F9089578
:101F5000990F0008550FAA0BE0E8FEEF16161706BA
:101F6000E807F907C0F012161306E407F50798F022
:101F7000621B730B840B950B39F40A2661F0232B3B
:101F8000242B252B21F408950A2609F4A140A695B7
:101F90008FEF811D811D089597F99F6780E870E09C
:101FA00060E008959FEF80EC0895DF93CF931F9337
:101FB0000F93FF92EF92DF927B018C01689406C031
:101FC000DA2EEF010E946410FE01E894A59125919C
:101FD000359145915591A6F3EF010E94700EFE01D7
:101FE0009701A801DA9469F7DF90EF90FF900F91C5
:101FF0001F91CF91DF91089500240A9416161706B9
:1020000018060906089500240A94121613061406E9
:1020100005060895092E0394000C11F4882352F04C
:10202000BB0F40F4BF2B11F460FF04C06F5F7F4F04
:102030008F4F9F4F089557FD9058440F551F59F0EB
:102040005F3F71F04795880F97FB991F61F09F3FA5
:1020500079F087950895121613061406551FF2CFCE
:102060004695F1DF08C0161617061806991FF1CF1E
:1020700086957105610508940895E894BB27662745
:102080007727CB0197F908950E94A80F08F48FEFE6
:1020900008959B01AC0160E070E080E89FE30C9440
:1020A000F90E0E9464100C940A100E94FC0F38F084
:1020B0000E94031020F0952311F00C94CC0F0C9487
:1020C000D20F11240C943E100E941B1070F3959FA8
:1020D000C1F3950F50E0551F629FF001729FBB271F
:1020E000F00DB11D639FAA27F00DB11DAA1F649FBB
:1020F0006627B00DA11D661F829F2227B00DA11D6E
:10210000621F739FB00DA11D621F839FA00D611DF3
:10211000221F749F3327A00D611D231F849F600D14
:10212000211D822F762F6A2F11249F5750409AF03D
:10213000F1F088234AF0EE0FFF1FBB1F661F771FC9
:10214000881F91505040A9F79E3F510580F00C9494
:10215000CC0F0C943E105F3FE4F3983ED4F3869589
:1021600077956795B795F795E7959F5FC1F7FE2B34
:10217000880F911D9695879597F908959F930E94D2
:10218000CC100F9007FCEE5F0C94F5109B01AC0196
:102190000C9451100C94D20F0E942310D8F3E894A1
:1021A000E0E0BB279F57F0F02AED3FE049EC06C086
:1021B000EE0FBB0F661F771F881F28F0B23A620729
:1021C0007307840728F0B25A620B730B840BE395F4
:1021D0009A9572F7803830F49A95BB0F661F771F77
:1021E000881FD2F790480C940B11EF93E0FF07C0C3
:1021F000A2EA2AED3FE049EC5FEB0E94700E0E94DC
:102200000A100F90039401FC9058E5E9F0E00C945B
:1022100017119F3F31F0915020F48795779567957E
:10222000B795880F911D9695879597F908959F9377
:102230008F937F936F93FF93EF939B01AC010E9469
:102240005110EF91FF910E94D50F2F913F914F9127
:102250005F910C945110283008F027E03327DA0101
:10226000990F311D87FD916000966105710539F464
:1022700032602E5F3D9330E32A95E1F708959F3F4A
:1022800030F080387105610509F03C5F3C5F3D939B
:10229000913008F08068911DDF93CF931F930F93C7
:1022A000FF92EF92192F987F9695E92F9695969524
:1022B000E90FFF27EA5EFE4F99273327EE24FF241C
:1022C000A701E70105900894079428F4360FE71E4C
:1022D000F81E491F511D660F771F881F991F06940E
:1022E000A1F70590079428F4E70EF81E491F561F22
:1022F000C11D770F881F991F661F0694A1F70590CF
:10230000079428F4F80E491F561FC71FD11D880FC8
:10231000991F661F771F0694A1F70590079420F474
:10232000490F561FC71FD81F990F661F771F881F99
:102330000694A9F784911095177041F0D695C7952A
:1023400057954795F794E7941A95C1F7ECEBF0E0B1
:1023500068941590159135916591959105907FE25E
:102360007395E118F10A430B560BC90BD009C0F75E
:10237000E10CF11E431F561FC91FD01D7EF47033A0
:1023800011F48A95E6CFE894015030F0080F0AF472
:102390000027021708F4202F2395022F7A3328F004
:1023A00079E37D932A95E9F710C07D932A9589F604
:1023B000069497956795379517951794E118F10A44
:1023C000430B560BC90BD00998F023957E9173955A
:1023D0007A3308F070E37C932013B8F77E91706134
:1023E0007D9330F0839571E37D9370E32A95E1F757
:1023F0001124EF90FF900F911F91CF91DF919927BA
:1024000087FD90950895FC01059061507040011082
:10241000D8F7809590958E0F9F1F0895FC0161500D
:10242000704001900110D8F7809590958E0F9F1FF6
:1024300008950F931F93CF93DF93FB01238121FD19
:1024400003C08FEF9FEF2CC022FF16C0468157813B
:10245000248135814217530744F4A081B1819D0145
:102460002F5F3F4F318320838C93268137812F5FED
:102470003F4F3783268314C08B01EC01FB0100849E
:10248000F185E02D0995892BE1F6D80116968D91FD
:102490009C911797019617969C938E931697CE0151
:1024A000DF91CF911F910F910895A0E0B0E0EBE58F
:1024B000F2E10C94310EAE014B5F5F4FFA01619176
:1024C0007191AF018091AE019091AF010E94A40A79
:1024D000E2E00C944D0EFA01AA27283051F1203188
:1024E00081F1E8946F936E7F6E5F7F4F8F4F9F4FA8
:1024F000AF4FB1E03ED0B4E03CD0670F781F891FEA
:102500009A1FA11D680F791F8A1F911DA11D6A0FB7
:10251000711D811D911DA11D20D009F468943F916A
:102520002AE0269F11243019305D3193DEF6CF0169
:102530000895462F4770405D4193B3E00FD0C9F72F
:10254000F6CF462F4F70405D4A3318F0495D31FD9C
:102550004052419302D0A9F7EACFB4E0A6959795EF
:10256000879577956795BA95C9F7009761057105C5
:1025700008959B01AC010A2E06945795479537950F
:102580002795BA95C9F7620F731F841F951FA01D69
:062590000895F894FFCF4E
:1025960000000002000000003E01000000000000F4
:1025A600400014005400583A25362E3266205B440B
:1025B60065675D00593A25362E3266205B446567AD
:1025C6005D005A3A25362E3266205B4465675D000B
:0825D6005A3A25662067000057
:00000001FF
