:100000000C94CC000C94E9000C94E9000C94E900E9
:100010000C94E9000C94E9000C94E9000C94E900BC
:100020000C94E9000C94E9000C94E9000C94E900AC
:100030000C94E9000C94E9000C94E9000C94E9009C
:100040000C94E9000C94E9000C94E9000C94E9008C
:100050000C94E9000C94E9000C94E9000C94E9007C
:100060000C94E9000C94E900084AD73B3BCE016EA2
:1000700084BCBFFDC12F3D6C74319ABD56833DDAFF
:100080003D00C77F11BED9E4BB4C3E916BAAAABE0E
:10009000000000803F006E616E00696E66000040E7
:1000A0007A10F35A00A0724E18090010A5D4E80087
:1000B00000E87648170000E40B54020000CA9A3B9F
:1000C000000000E1F5050000809698000000404225
:1000D0000F000000A08601000000102700000000B3
:1000E000E803000000006400000000000A000000B7
:1000F00000000100000000002C76D888DC674F0863
:1001000023DFC1DFAE59E1B1B796E5E3E453C63A68
:10011000E651997696E8E6C28426EB898C9B62EDDF
:10012000407C6FFCEFBC9C9F40F2BAA56FA5F49099
:10013000055A2AF75C936B6CF9676DC11BFCE0E410
:100140000D47FEF520E6B500D0ED902E0300943566
:1001500077050080841E080000204E0A000000C8B9
:100160000C333333330F986E12831141EF8D21140A
:10017000893BE65516CFFEE6DB18D1844B381BF7DA
:100180007C1D901DA4BBE424203284725E22810079
:10019000C9F124ECA1E53D2711241FBECFEFD8E023
:1001A000DEBFCDBF11E0A0E0B1E0E8EFF7E102C0B3
:1001B00005900D92A433B107D9F721E0A4E3B1E093
:1001C00001C01D92A937B207E1F70E943F020C94CB
:1001D000FA0B0C940000CF93C82F8EE40E942204E7
:1001E000809134018C2B0E9456040E944D04CF91C3
:1001F0000895CF93C82F84600E94EB0085E08A9514
:10020000F1F700008C2F8B7F0E94EB0087EC90E0D1
:100210000197F1F700C00000CF910895CF93C82F48
:10022000CD7F8C2F0E94EB008C2F0E94F900CF9184
:100230000895CF93DF93D82FC62FC460807F8C2B77
:100240000E940E018D2F8295807F8C2B0E940E01C3
:10025000DF91CF91089561E00E94190108950E94F5
:100260002B0180E090E0089560E081E00E94190198
:100270002FEF86E791E0215080409040E1F700C0E9
:1002800000000895CF93DF93CDB7DEB728970FB660
:10029000F894DEBF0FBECDBF98E0EEE0F1E0DE01E6
:1002A000119601900D929A95E1F790913501691799
:1002B00010F06FEF690FE62FF0E0EE0FFF1FEC0F6D
:1002C000FD1F9181890F60E080680E9419012896C6
:1002D0000FB6F894DEBF0FBECDBFDF91CF9108956A
:1002E000809137018B7F8093370160E088600E94A6
:1002F0001901089580913701982F946090933701E8
:1003000060E08C600E941901089580E091E0909374
:100310007601809375018091340188608093340167
:1003200084E0809335012FEF80E792E021508040F8
:100330009040E1F700C000008EE40E94220484E0B7
:100340000E9456048FE891E00197F1F700C0000089
:1003500080E30E940E018FE496E40197F1F700C05C
:10036000000080E30E940E0187E592E00197F1F71B
:1003700000C0000080E30E940E0187E592E0019733
:10038000F1F700C0000080E20E940E0187E592E0D4
:100390000197F1F700C0000060E088E20E941901B7
:1003A000109237010E9470010E947A0182E08093CE
:1003B000380160E086E00E9419018091370160E019
:1003C00088600E94190188E08093360160E088E12E
:1003D0000E9419010E9434010895CF93DF93D82F12
:1003E000C62F8AE30E94FB038D2F0E9456048C2F98
:1003F0000E9456040E944D04DF91CF910895CF933F
:10040000C82F8AE30E94FB038C2F0E9456048BE3C3
:100410000E944A040E946804C82F0E944D048C2F39
:10042000CF9108958DE00E94FF0180933D0160E42B
:100430008BE20E94ED018FE39CE90197F1F700C088
:1004400000008BE20E94FF0180935C0160E08EE07F
:100450000E94ED0162E08BE20E94ED0161E08DE21D
:100460000E94ED0161E08EE20E94ED0160E481E115
:100470000E94ED016DE38AE20E94ED010895CF93A1
:10048000DF9300D000D000D0CDB7DEB70E94F503D7
:100490000E9485010E9412020F2EF9E4EF2EF1E076
:1004A000FF2EF02D0F2EFCE22F2EF1E03F2EF02D2F
:1004B00081E00E94FF01D7018C9382E00E94FF013E
:1004C000F701818383E00E94FF01D70112968C938C
:1004D00084E00E94FF01F701838385E00E94FF0111
:1004E000D70114968C9386E00E94FF01C82EF70175
:1004F0008583F0812F2F30E0922F88279A8389837C
:10050000D70111968C91E981FA81E82BF595E79551
:10051000F595E795FE83ED83BF01FF0F880B990BDF
:100520000E94CA0820E030E040E858E30E948509B4
:100530004B015C016093390170933A0180933B0158
:1005400090933C01D70112960C91129710E0102F56
:10055000002713968C91082B1595079515950795EF
:10056000B801012E000C880B990B0E94CA0820E0EC
:1005700030E040E858E30E9485092B013C0160937C
:100580005401709355018093560190935701F701E0
:100590008481D12CD82AD594C794D594C794B60118
:1005A0000D2C000C880B990B0E94CA0820E030E04B
:1005B00040E858E30E94850969837A838B839C8392
:1005C00060934501709346018093470190934801E1
:1005D0004D815E81552314F4495F5F4F55954795D2
:1005E0005595479555954795419540936801C801A4
:1005F00011230CF407969595879595958795959574
:100600008795582F5195509367012D813E81345025
:10061000C90199230CF4079695958795959587952B
:1006200095958795819580933E012D813E81240F7C
:10063000311D3E832D833093400120933F01050FF0
:10064000111D10936A0100936901C80ED11CD0924C
:100650006201C092610129813A814B815C81C501AF
:10066000B4010E9456080E94270824EE3EE245E6A7
:1006700052E40E9485096093410170934201809386
:1006800043019093440129813A814B815C81C301EC
:10069000B2010E9456080E94270824EE3EE245E679
:1006A00052E40E94850960936F01709370018093FA
:1006B000710190937201A3019201C501B4010E94DE
:1006C00056080E94270824EE3EE245E652E40E94C6
:1006D0008509609358017093590180935A01909352
:1006E0005B01AD81BE81BD01BB0F880B990B0E94E0
:1006F000CA0820E030E040E85AE30E948509609390
:100700005D0170935E0180935F0190936001B80179
:10071000110F880B990B0E94CA0820E030E040E8D6
:100720005AE30E94850960936B0170936C0180937A
:100730006D0190936E01B601DD0C880B990B0E9440
:10074000CA0820E030E040E85AE30E94850960933F
:10075000630170936401809365019093660160E08A
:1007600080E00E944201809144018F938091430177
:100770008F93809142018F93809141018F93E6E1A5
:10078000F1E0FF93EF930E94860B61E080E00E940E
:100790004201809172018F93809171018F938091BA
:1007A00070018F9380916F018F9384E291E09F930A
:1007B0008F930E94860B61E089E00E944201809144
:1007C0005B018F9380915A018F93809159018F9390
:1007D000809158018F933F922F920E94860B0FB603
:1007E000F894DEBF0FBECDBF63CE1092B90088E48F
:1007F0008093B800089594EA9093BC00ECEBF0E08D
:1008000090819923ECF79091B900987F983011F07E
:100810009031A1F48093BB0084E88093BC00ECEBA2
:10082000F0E080818823ECF79091B900987F9831AF
:1008300039F081E0903429F480E0089581E0089552
:1008400080E00895CF93DF93ECEBF0E024EAA9EB8E
:10085000B0E0CBEBD0E034E844E9208390819923E9
:10086000ECF79C91987F983011F09031B1F7888324
:10087000308390819923ECF79C91987F903211F00E
:10088000983529F44083908194FDFDCFE6CFDF9128
:10089000CF9108950E94FB03089584E98093BC00E2
:1008A000ECEBF0E0808184FDFDCF08958093BB00E8
:1008B00084E88093BC00ECEBF0E080818823ECF7C7
:1008C0009091B900987F81E0983209F480E0089512
:1008D00084E88093BC00ECEBF0E080818823ECF7A7
:1008E0008091BB000895A0E1B0E0E9E7F4E00C944A
:1008F000F0077C011B016A01FC01178216828381CB
:1009000081FF44C39E012F5F3F4F3901F70193815F
:10091000F10193FD859193FF81911F01882309F4D3
:1009200031C3853239F493FD859193FF81911F0185
:10093000853239F4B70190E00E944A0B56016501F7
:10094000E5CF10E0512C912CFFE1F915D8F08B3256
:1009500079F038F4803279F08332A1F4F92DF06126
:100960002EC08D3261F0803369F4292D21602DC0B5
:10097000392D3260932E892D8460982E2AC0E92D5E
:10098000E86015C097FC2DC020ED280F2A3088F4B0
:1009900096FE06C03AE0139F200D1124122F19C0B5
:1009A0008AE0589E200D1124522EE92DE0629E2EE1
:1009B00010C08E3231F496FCE5C2F92DF0649F2E02
:1009C00008C08C3621F4292D2068922E02C088366A
:1009D00041F4F10193FD859193FF81911F018111F4
:1009E000B3CF9BEB980F933020F4992D9061805EEC
:1009F00007C09BE9980F933008F066C1992D9F7E40
:100A000096FF16E09F73992E853619F49064992EFF
:100A100008C0863621F4392F3068932E02C0111198
:100A2000115097FE07C01C3350F444244394410EE8
:100A300027E00BC0183038F027E017E005C027E0AA
:100A40009CE3492E02C0212F412C560184E0A80EC0
:100A5000B11CF6016081718182819381042DA30113
:100A60000E945C0A6C01F981FC87F0FF02C0F3FF71
:100A700006C091FC06C092FE06C000E205C00DE271
:100A800003C00BE201C000E08C858C7019F00111ED
:100A90005AC29BC297FE10C04C0CFC85F4FF04C0E8
:100AA0008A81813309F44A94141474F528E02415DA
:100AB00078F588E0482E2CC096FC2AC0812F90E063
:100AC0008C159D059CF03CEFC3163FEFD30674F0E8
:100AD000892D8068982E0AC0E2E0F0E0EC0FFD1F3F
:100AE000E10FF11D8081803319F411501111F4CF01
:100AF00097FE0EC044244394410E812F90E0C81607
:100B0000D9062CF41C1904C04424439401C010E0FD
:100B100097FE06C01C141D0434F4C601019605C0DE
:100B200085E090E002C081E090E001110196112380
:100B300031F0212F30E02F5F3F4F820F931F252D83
:100B400030E08217930714F4581A01C0512C892DF4
:100B5000897049F4552039F0B70180E290E00E9495
:100B60004A0B5A94F7CF002329F0B701802F90E069
:100B70000E944A0B93FC09C0552039F0B70180E36D
:100B800090E00E944A0B5A94F7CF97FE4CC0460162
:100B9000D7FE02C0812C912CC60188199909F30156
:100BA000E80FF91FFE87ED87960124193109388B6C
:100BB0002F87012F10E01195019511093FEF831642
:100BC000930629F4B7018EE290E00E944A0BC81404
:100BD000D9044CF08F8598898815990524F4ED8502
:100BE000FE85818101C080E3F1E08F1A91082D8597
:100BF0003E852F5F3F4F3E872D87801691062CF054
:100C0000B70190E00E944A0BD9CFC814D90441F42F
:100C10009A81963320F4953319F43C8534FF81E3AF
:100C2000B70190E04EC08A81813319F09C859F7E88
:100C30009C87B70190E00E944A0B111105C094FCFB
:100C400018C085E690E017C0B7018EE290E00E94E0
:100C50004A0B1E5F82E001E0080FF301E80FF11D6F
:100C60008081B70190E00E944A0B802F0113F3CFDF
:100C7000E6CF85E490E0B7010E944A0BD7FC06C09E
:100C8000C114D10441F4EC85E4FF05C0D194C194B2
:100C9000D1088DE201C08BE2B70190E00E944A0BBF
:100CA00080E32AE0C216D1042CF08F5FFAE0CF1A5D
:100CB000D108F7CFB70190E00E944A0BB701C601F7
:100CC000C0960E944A0B54C1833631F0833779F0C5
:100CD000833509F056C020C0560132E0A30EB11C86
:100CE000F6018081898301E010E0630112C05601A2
:100CF000F2E0AF0EB11CF601C080D18096FE03C0B9
:100D0000612F70E002C06FEF7FEFC6010E943F0BC2
:100D10008C01F92DFF7714C0560122E0A20EB11C00
:100D2000F601C080D18096FE03C0612F70E002C042
:100D30006FEF7FEFC6010E94340B8C01F92DF06834
:100D40009F2EF3FD1AC0852D90E008171907A8F40F
:100D5000B70180E290E00E944A0B5A94F4CFF6016A
:100D600097FC859197FE81916F01B70190E00E94F9
:100D70004A0B51105A94015011090115110579F7C8
:100D8000F7C0843611F0893661F5560197FE09C027
:100D900024E0A20EB11CF6016081718182819381F1
:100DA0000AC0F2E0AF0EB11CF60160817181072E1E
:100DB000000C880B990BF92DFF769F2E97FF09C029
:100DC00090958095709561957F4F8F4F9F4FF068FC
:100DD0009F2E2AE030E0A3010E949C0BC82EC6186B
:100DE0003FC0092D853721F40F7E2AE030E01DC079
:100DF000097F8F3691F018F4883559F0C3C08037D9
:100E000019F0883711F0BEC0006104FF09C004600A
:100E100007C094FE08C0066006C028E030E005C0A8
:100E200020E130E002C020E132E0560107FF09C0B6
:100E300084E0A80EB11CF6016081718182819381EA
:100E400008C0F2E0AF0EB11CF6016081718180E054
:100E500090E0A3010E949C0BC82EC6180F77902E1D
:100E600096FE0BC0092D0E7FC11650F494FE0AC0E9
:100E700092FC08C0092D0E7E05C0DC2C092D03C094
:100E8000DC2C01C0D12E04FF0DC0FE01EC0DF11DC4
:100E90008081803311F4097E09C002FF06C0D3941B
:100EA000D39404C0802F867809F0D39403FD11C039
:100EB00000FF06C01C2DD51480F4150D1D190DC0A2
:100EC000D51458F4B70180E290E00E944A0BD39405
:100ED000F7CFD51410F45D1801C0512C04FF10C0D9
:100EE000B70180E390E00E944A0B02FF17C001FDAA
:100EF00003C088E790E002C088E590E0B7010CC02D
:100F0000802F867859F001FF02C08BE201C080E299
:100F100007FD8DE2B70190E00E944A0BC11638F43C
:100F2000B70180E390E00E944A0B1150F7CFCA94BA
:100F3000F301EC0DF11D8081B70190E00E944A0B96
:100F4000C110F5CF15C0F4E0F51560F584E0581A2E
:100F500093FE1FC0011127C02C8523FF2AC006E97C
:100F600010E0392D3071932EF8018491811124C045
:100F7000552009F4E4CCB70180E290E00E944A0BCE
:100F80005A94F6CFF7018681978126C08FEF9FEFA5
:100F900023C0B70180E290E00E944A0B5A9451109E
:100FA000F8CFD8CF512CB701802F90E00E944A0B88
:100FB000D3CF0AE910E0D5CF91108052B70190E06D
:100FC0000E944A0B0F5F1F4FCFCF23E0251510F46F
:100FD00083E0BDCF512CC0CF6096E2E10C940C08A9
:100FE0002F923F924F925F926F927F928F929F9239
:100FF000AF92BF92CF92DF92EF92FF920F931F9327
:10100000CF93DF93CDB7DEB7CA1BDB0B0FB6F894D7
:10101000DEBF0FBECDBF09942A88398848885F8417
:101020006E847D848C849B84AA84B984C884DF8088
:10103000EE80FD800C811B81AA81B981CE0FD11D6C
:101040000FB6F894DEBF0FBECDBFED010895DF935C
:10105000DD27B92FBF7740E85FE31616170648076C
:101060005B0718F4D92F0E947D099F938F937F937C
:101070006F930E94F209E8E6F0E00E940E090E94D8
:1010800043092F913F914F915F910E949809DD2371
:1010900051F09058A2EA2AED3FE049EC5FE3D078A6
:1010A0005D270E94070ADF910C9443090E946A0899
:1010B0000C9443090E943C0958F00E94350940F005
:1010C00029F45F3F29F00C94050951110C9477091C
:1010D0000C940B090E94540968F39923B1F355232A
:1010E00091F3951B550BBB27AA276217730784073B
:1010F00038F09F5F5F4F220F331F441FAA1FA9F3D1
:1011000035D00E2E3AF0E0E832D091505040E695BE
:10111000001CCAF72BD0FE2F29D0660F771F881F1F
:10112000BB1F261737074807AB07B0E809F0BB0B12
:10113000802DBF01FF2793585F4F3AF09E3F510526
:1011400078F00C9405090C9477095F3FE4F3983E1E
:10115000D4F3869577956795B795F7959F5FC9F70F
:10116000880F911D9695879597F90895E1E0660F90
:10117000771F881FBB1F621773078407BA0720F009
:10118000621B730B840BBA0BEE1F88F7E095089572
:10119000E89409C097FB3EF4909580957095619511
:1011A0007F4F8F4F9F4F9923A9F0F92F96E9BB27C7
:1011B0009395F695879577956795B795F111F8CF43
:1011C000FAF4BB0F11F460FF1BC06F5F7F4F8F4FAE
:1011D0009F4F16C0882311F096E911C0772321F0A4
:1011E0009EE8872F762F05C0662371F096E8862F3C
:1011F00070E060E02AF09A95660F771F881FDAF793
:10120000880F9695879597F9089597F99F6780E8D5
:1012100070E060E008959FEF80EC0895DF93CF9336
:101220001F930F93FF92EF92DF927B018C016894E2
:1012300006C0DA2EEF010E949809FE01E894A591FC
:101240002591359145915591A6F3EF010E94070A2A
:10125000FE019701A801DA9469F7DF90EF90FF9003
:101260000F911F91CF91DF91089500240A941616D3
:10127000170618060906089500240A941216130684
:10128000140605060895092E0394000C11F4882312
:1012900052F0BB0F40F4BF2B11F460FF04C06F5F2E
:1012A0007F4F8F4F9F4F089557FD9058440F551F04
:1012B00059F05F3F71F04795880F97FB991F61F0D8
:1012C0009F3F79F087950895121613061406551F4F
:1012D000F2CF4695F1DF08C0161617061806991FBB
:1012E000F1CF86957105610508940895E894BB27B0
:1012F00066277727CB0197F908959B01AC0160E041
:1013000070E080E89FE30C9456080E9498090C94C2
:1013100043090E94350938F00E943C0920F09523CA
:1013200011F00C9405090C940B0911240C94770905
:101330000E94540970F3959FC1F3950F50E0551F1B
:10134000629FF001729FBB27F00DB11D639FAA271A
:10135000F00DB11DAA1F649F6627B00DA11D661F69
:10136000829F2227B00DA11D621F739FB00DA11D8A
:10137000621F839FA00D611D221F749F3327A00D44
:10138000611D231F849F600D211D822F762F6A2FE0
:1013900011249F5750409AF0F1F088234AF0EE0F45
:1013A000FF1FBB1F661F771F881F91505040A9F772
:1013B0009E3F510580F00C9405090C9477095F3F1E
:1013C000E4F3983ED4F3869577956795B795F795AE
:1013D000E7959F5FC1F7FE2B880F911D9695879526
:1013E00097F908959B01AC010C9485090E94350979
:1013F00038F00E943C0920F039F49F3F19F426F49C
:101400000C940B090EF4E095E7FB0C940509E92F09
:101410000E94540958F3BA176207730784079507A7
:1014200020F079F4A6F50C9476090EF4E0950B2ED5
:10143000BA2FA02D0B01B90190010C01CA01A00126
:101440001124FF27591B99F0593F50F4503E68F181
:101450001A16F040A22F232F342F4427585FF3CFC2
:10146000469537952795A795F0405395C9F77EF493
:101470001F16BA0B620B730B840BBAF09150A1F0DC
:10148000FF0FBB1F661F771F881FC2F70EC0BA0F62
:10149000621F731F841F48F4879577956795B795EA
:1014A000F7959E3F08F0B0CF9395880F08F09927E5
:1014B000EE0F979587950895283008F027E0332799
:1014C000DA01990F311D87FD916000966105710564
:1014D00039F432602E5F3D9330E32A95E1F70895A9
:1014E0009F3F30F080387105610509F03C5F3C5F3B
:1014F0003D93913008F08068911DDF93CF931F9347
:101500000F93FF92EF92192F987F9695E92F96955A
:101510009695E90FFF27E850FF4F99273327EE24D0
:10152000FF24A701E70105900894079428F4360FDB
:10153000E71EF81E491F511D660F771F881F991F50
:101540000694A1F70590079428F4E70EF81E491FAA
:10155000561FC11D770F881F991F661F0694A1F79C
:101560000590079428F4F80E491F561FC71FD11D78
:10157000880F991F661F771F0694A1F7059007949F
:1015800020F4490F561FC71FD81F990F661F771FDA
:10159000881F0694A9F784911095177041F0D6958D
:1015A000C79557954795F794E7941A95C1F7EEE9D3
:1015B000F0E068941590159135916591959105909D
:1015C0007FE27395E118F10A430B560BC90BD00962
:1015D000C0F7E10CF11E431F561FC91FD01D7EF43A
:1015E000703311F48A95E6CFE894015030F0080F7B
:1015F0000AF40027021708F4202F2395022F7A33CC
:1016000028F079E37D932A95E9F710C07D932A9518
:1016100089F6069497956795379517951794E1186D
:10162000F10A430B560BC90BD00998F023957E9114
:1016300073957A3308F070E37C932013B8F77E91AA
:1016400070617D9330F0839571E37D9370E32A950B
:10165000E1F71124EF90FF900F911F91CF91DF914F
:10166000992787FD90950895FC0105906150704081
:101670000110D8F7809590958E0F9F1F0895FC015B
:101680006150704001900110D8F7809590958E0FB1
:101690009F1F08950F931F93CF93DF93FB01238127
:1016A00021FD03C08FEF9FEF2CC022FF16C04681A3
:1016B0005781248135814217530744F4A081B181B9
:1016C0009D012F5F3F4F318320838C93268137818B
:1016D0002F5F3F4F3783268314C08B01EC01FB0142
:1016E0000084F185E02D0995892BE1F6D801169645
:1016F0008D919C911797019617969C938E931697B0
:10170000CE01DF91CF911F910F910895A0E0B0E03D
:10171000ECE8FBE00C940008AE014B5F5F4FFA0170
:1017200061917191AF0180917501909176010E9454
:101730007304E2E00C941C08FA01AA27283051F146
:10174000203181F1E8946F936E7F6E5F7F4F8F4FF2
:101750009F4FAF4FB1E03ED0B4E03CD0670F781F51
:10176000891F9A1FA11D680F791F8A1F911DA11D36
:101770006A0F711D811D911DA11D20D009F468946F
:101780003F912AE0269F11243019305D3193DEF617
:10179000CF010895462F4770405D4193B3E00FD0CD
:1017A000C9F7F6CF462F4F70405D4A3318F0495DB8
:1017B00031FD4052419302D0A9F7EACFB4E0A6959B
:1017C0009795879577956795BA95C9F700976105BD
:1017D000710508959B01AC010A2E06945795479513
:1017E00037952795BA95C9F7620F731F841F951F08
:0817F000A01D0895F894FFCF3D
:1017F80000000002000000002F01000000000000AF
:10180800400014005400583A25362E3266205B44B6
:1018180065675D00593A25362E3266005A3A2536F4
:041828002E326600F6
:00000001FF
