:100000000C94DB000C94F8000C94F8000C94F800AD
:100010000C94F8000C94F8000C94F8000C94F80080
:100020000C94F8000C94F8000C94F8000C94F80070
:100030000C94F8000C94F8000C94F8000C94F80060
:100040000C94F8000C94F8000C94F8000C94F80050
:100050000C94F8000C94F8000C94F8000C94F80040
:100060000C94F8000C94F800084AD73B3BCE016E84
:1000700084BCBFFDC12F3D6C74319ABD56833DDAFF
:100080003D00C77F11BED9E4BB4C3E916BAAAABE0E
:10009000000000803F05A84CCDB2D44EB93836A937
:1000A000020C50B9918688083CA6AAAA2ABE000074
:1000B00000803F006E616E00696E660000407A103D
:1000C000F35A00A0724E18090010A5D4E80000E809
:1000D0007648170000E40B54020000CA9A3B000067
:1000E00000E1F505000080969800000040420F00F6
:1000F0000000A08601000000102700000000E803B7
:10010000000000006400000000000A000000000081
:100110000100000000002C76D888DC674F0823DF40
:10012000C1DFAE59E1B1B796E5E3E453C63AE65113
:10013000997696E8E6C28426EB898C9B62ED407C3A
:100140006FFCEFBC9C9F40F2BAA56FA5F490055AD6
:100150002AF75C936B6CF9676DC11BFCE0E40D47FB
:10016000FEF520E6B500D0ED902E0300943577051E
:100170000080841E080000204E0A000000C80C33D6
:100180003333330F986E12831141EF8D2114893B65
:10019000E65516CFFEE6DB18D1844B381BF77C1DE5
:1001A000901DA4BBE424203284725E228100C9F138
:1001B00024ECA1E53D2711241FBECFEFD8E0DEBF20
:1001C000CDBF11E0A0E0B1E0EEEBFBE102C0059095
:1001D0000D92AC32B107D9F721E0ACE2B1E001C039
:1001E0001D92A239B207E1F70E948A030C94DD0D3B
:1001F0000C940000CF93C82F8EE40E946705809175
:100200002C018C2B0E949B050E949205CF91089592
:10021000CF93C82F84600E94FA0085E08A95F1F799
:1002200000008C2F8B7F0E94FA0087EC90E00197F2
:10023000F1F700C00000CF910895CF93C82FCD7F74
:100240008C2F0E94FA008C2F0E940801CF910895F4
:10025000CF93DF93D82FC62FC460807F8C2B0E9452
:100260001D018D2F8295807F8C2B0E941D01DF91B7
:10027000CF91089561E00E94280108950E943A01FB
:1002800080E090E0089560E081E00E9428012FEF77
:1002900086E791E0215080409040E1F700C00000E7
:1002A0000895CF93DF93CDB7DEB728970FB6F894B4
:1002B000DEBF0FBECDBF98E0EEE0F1E0DE011196AB
:1002C00001900D929A95E1F790912D01691710F028
:1002D0006FEF690FE62FF0E0EE0FFF1FEC0FFD1F31
:1002E0009181890F60E080680E94280128960FB6EE
:1002F000F894DEBF0FBECDBFDF91CF9108958091FE
:100300002F018B7F80932F0160E088600E9428017D
:10031000089580912F01982F946090932F0160E0B1
:100320008C600E942801089580E091E090938F01F5
:1003300080938E0180912C01886080932C0184E051
:1003400080932D012FEF80E792E021508040904074
:10035000E1F700C000008EE40E94670584E00E947F
:100360009B058FE891E00197F1F700C0000080E362
:100370000E941D018FE496E40197F1F700C0000090
:1003800080E30E941D0187E592E00197F1F700C02C
:10039000000080E30E941D0187E592E00197F1F7DC
:1003A00000C0000080E20E941D0187E592E00197F5
:1003B000F1F700C0000060E088E20E94280110927E
:1003C0002F010E947F010E94890182E08093300109
:1003D00060E086E00E94280180912F0160E0886043
:1003E0000E94280188E080932E0160E088E10E944D
:1003F00028010E9443010895CF93DF93D82FC62F81
:100400008AE30E9440058D2F0E949B058C2F0E943D
:100410009B050E949205DF91CF910895CF93C82F3D
:100420008AE30E9440058C2F0E949B058BE30E946B
:100430008F050E94AD05C82F0E9492058C2FCF9189
:1004400008958DE00E940E028093390160E48BE2F2
:100450000E94FC018FE39CE90197F1F700C00000C6
:100460008BE20E940E028093710160E08EE00E9498
:10047000FC0162E08BE20E94FC0161E08DE20E94DF
:10048000FC0161E08EE20E94FC0160E481E10E94D7
:10049000FC016DE38AE20E94FC01089580E10E9464
:1004A0000E02877008954F925F926F927F928F92A3
:1004B0009F92AF92BF92CF92DF92EF92FF92CF9333
:1004C000DF9300D000D0CDB7DEB725E33AEF4EE89A
:1004D0005CE36091460170914701809148019091E1
:1004E00049010E94650B0E94D20B2B013C016093D5
:1004F0003A0170933B0180933C0190933D0125E3C9
:100500003AEF4EE85CE36091880170918901809137
:100510008A0190918B010E94650B0E94D20B4B01C6
:100520005C0160933F01709340018093410190937F
:10053000420125E33AEF4EE85CE360916901709176
:100540006A0180916B0190916C010E94650B0E9481
:10055000D20B6B017C01609335017093360180935F
:100560003701909338018091720190917301A091AD
:100570007401B091750189839A83AB83BC839C011C
:10058000AD01C301B2010E946C092B013C012DECAD
:100590003CEC4CEC5DE30E94080A8823B4F42DEC9B
:1005A0003CEC4CEC5DEBC301B2010E94580B1816F9
:1005B00064F489819A81AB81BC8180933A019093E4
:1005C0003B01A0933C01B0933D01409084015090C9
:1005D00085016090860170908701A3019201C50199
:1005E000B4010E946C094B015C012DEC3CEC4CEC1D
:1005F0005DE30E94080A882394F42DEC3CEC4CEC5B
:100600005DEBC501B4010E94580B181644F44092EA
:100610003F015092400160924101709242018090EE
:100620007C0190907D01A0907E01B0907F01A5019A
:100630009401C701B6010E946C096B017C012DEC8D
:100640003CEC4CEC5DE30E94080A882394F42DEC0A
:100650003CEC4CEC5DEBC701B6010E94580B181640
:1006600044F48092350190923601A0923701B09205
:10067000380120913A0130913B0140913C01509169
:100680003D0169817A818B819C810E946C09609314
:100690005C0170935D0180935E0190935F012091F6
:1006A0003F01309140014091410150914201C3010D
:1006B000B2010E946C0960936D0170936E0180938A
:1006C0006F01909370012091350130913601409176
:1006D000370150913801C501B4010E946C09609343
:1006E00061017093620180936301909364010F90A4
:1006F0000F900F900F90DF91CF91FF90EF90DF90D0
:10070000CF90BF90AF909F908F907F906F905F90B1
:100710004F900895CF93DF9300D000D0CDB7DEB7D0
:100720000E943A050E9494010E94210281E00E94E9
:100730000E02A2E5B1E08C9382E00E940E0280934B
:10074000530183E00E940E028093540184E00E94D2
:100750000E028093550185E00E940E02809356019F
:1007600086E00E940E02782E80935701E2E5F1E0C8
:10077000008110E0102F002780915301082B159560
:10078000079515950795B801012E000C880B990B5C
:100790000E94810A20E030E040E858E30E94650BA7
:1007A00069837A838B839C836093310170933201D8
:1007B000809333019093340120905401312C322CDA
:1007C000222480915501282A359427943594279422
:1007D000B101032C000C880B990B0E94810A20E0C8
:1007E00030E040E858E30E94650B4B015C016093E8
:1007F0006501709366018093670190936801209171
:100800005601872D90E0922B7C01F594E794F594A6
:10081000E794B7010F2C000C880B990B0E94810AFA
:1008200020E030E040E858E30E94650B2B013C01DA
:1008300060934A0170934B0180934C0190934D015A
:10084000C80111230CF40796959587959595879582
:1008500095958795482F419540938101C10133209B
:100860000CF4079695958795959587959595879519
:10087000582F51955093800198013051C901992307
:100880000CF40796959587959595879595958795F9
:10089000819580934301040F111D1093450100932E
:1008A0004401250E311C3092830120928201970170
:1008B000280F311D30937B0120937A01A30192010F
:1008C00069817A818B819C810E940D0A0E94D909DD
:1008D00024EE3EE245E652E40E94650B6093460139
:1008E000709347018093480190934901A3019201BD
:1008F000C501B4010E940D0A0E94D90924EE3EE20E
:1009000045E652E40E94650B60938801709389016B
:1009100080938A0190938B01A501940169817A816A
:100920008B819C810E940D0A0E94D90924EE3EE22F
:1009300045E652E40E94650B6093690170936A0179
:1009400080936B0190936C010E9453020E944E02AF
:1009500080933E016091440170914501072E000C87
:10096000880B990B0E94810A20E030E040E859E3AF
:100970000E94650B60937201709373018093740100
:10098000909375016091820170918301072E000C94
:10099000880B990B0E94810A20E030E040E859E37F
:1009A0000E94650B6093840170938501809386019A
:1009B0009093870160917A0170917B01072E000C62
:1009C000880B990B0E94810A20E030E040E859E34F
:1009D0000E94650B60937C0170937D0180937E0182
:1009E00090937F0160E080E00E94510180918B0133
:1009F0008F9380918A018F93809189018F93809149
:100A000088018F9386E191E09F938F930E94690DF7
:100A100061E080E00E945101809187018F93809175
:100A200086018F93809185018F93809184018F93AC
:100A3000E4E2F1E0FF93EF930E94690D62E080E051
:100A40000E945101809170018F9380916F018F936B
:100A500080916E018F9380916D018F9384E291E07C
:100A60009F938F930E94690D0FB6F894DEBF0FBE5F
:100A7000CDBF5CCE1092B90088E48093B800089591
:100A800094EA9093BC00ECEBF0E090819923ECF7B2
:100A90009091B900987F983011F09031A1F4809333
:100AA000BB0084E88093BC00ECEBF0E080818823FD
:100AB000ECF79091B900987F983139F081E090344B
:100AC00029F480E0089581E0089580E00895CF93AF
:100AD000DF93ECEBF0E024EAA9EBB0E0CBEBD0E065
:100AE00034E844E9208390819923ECF79C91987F26
:100AF000983011F09031B1F7888330839081992339
:100B0000ECF79C91987F903211F0983529F440834E
:100B1000908194FDFDCFE6CFDF91CF9108950E94A3
:100B20004005089584E98093BC00ECEBF0E08081FF
:100B300084FDFDCF08958093BB0084E88093BC00C2
:100B4000ECEBF0E080818823ECF79091B900987F7E
:100B500081E0983209F480E0089584E88093BC0035
:100B6000ECEBF0E080818823ECF78091BB000895E6
:100B7000A0E1B0E0EEEBF5E00C9435097C011B013F
:100B80006A01FC0117821682838181FF44C39E01A2
:100B90002F5F3F4F3901F7019381F10193FD85915B
:100BA00093FF81911F01882309F431C3853239F401
:100BB00093FD859193FF81911F01853239F4B7012F
:100BC00090E00E942D0D56016501E5CF10E0512CFB
:100BD000912CFFE1F915D8F08B3279F038F480329E
:100BE00079F08332A1F4F92DF0612EC08D3261F0DD
:100BF000803369F4292D21602DC0392D3260932E68
:100C0000892D8460982E2AC0E92DE86015C097FCD4
:100C10002DC020ED280F2A3088F496FE06C03AE059
:100C2000139F200D1124122F19C08AE0589E200D09
:100C30001124522EE92DE0629E2E10C08E3231F426
:100C400096FCE5C2F92DF0649F2E08C08C3621F485
:100C5000292D2068922E02C0883641F4F10193FDBF
:100C6000859193FF81911F018111B3CF9BEB980F69
:100C7000933020F4992D9061805E07C09BE9980F16
:100C8000933008F066C1992D9F7E96FF16E09F7302
:100C9000992E853619F49064992E08C0863621F471
:100CA000392F3068932E02C01111115097FE07C0E2
:100CB0001C3350F444244394410E27E00BC01830F9
:100CC00038F027E017E005C027E09CE3492E02C07A
:100CD000212F412C560184E0A80EB11CF601608141
:100CE000718182819381042DA3010E943F0C6C01CC
:100CF000F981FC87F0FF02C0F3FF06C091FC06C03B
:100D000092FE06C000E205C00DE203C00BE201C086
:100D100000E08C858C7019F001115AC29BC297FEBD
:100D200010C04C0CFC85F4FF04C08A81813309F4A7
:100D30004A94141474F528E0241578F588E0482EB8
:100D40002CC096FC2AC0812F90E08C159D059CF04C
:100D50003CEFC3163FEFD30674F0892D8068982EC0
:100D60000AC0E2E0F0E0EC0FFD1FE10FF11D808111
:100D7000803319F411501111F4CF97FE0EC04424A2
:100D80004394410E812F90E0C816D9062CF41C190B
:100D900004C04424439401C010E097FE06C01C1414
:100DA0001D0434F4C601019605C085E090E002C040
:100DB00081E090E001110196112331F0212F30E004
:100DC0002F5F3F4F820F931F252D30E0821793072F
:100DD00014F4581A01C0512C892D897049F45520FA
:100DE00039F0B70180E290E00E942D0D5A94F7CFC0
:100DF000002329F0B701802F90E00E942D0D93FC75
:100E000009C0552039F0B70180E390E00E942D0D14
:100E10005A94F7CF97FE4CC04601D7FE02C0812CF2
:100E2000912CC60188199909F301E80FF91FFE8773
:100E3000ED87960124193109388B2F87012F10E097
:100E40001195019511093FEF8316930629F4B70117
:100E50008EE290E00E942D0DC814D9044CF08F85CD
:100E600098898815990524F4ED85FE85818101C056
:100E700080E3F1E08F1A91082D853E852F5F3F4F6B
:100E80003E872D87801691062CF0B70190E00E94D6
:100E90002D0DD9CFC814D90441F49A81963320F48A
:100EA000953319F43C8534FF81E3B70190E04EC0DF
:100EB0008A81813319F09C859F7E9C87B70190E0E1
:100EC0000E942D0D111105C094FC18C085E690E01C
:100ED00017C0B7018EE290E00E942D0D1E5F82E0E8
:100EE00001E0080FF301E80FF11D8081B70190E0E8
:100EF0000E942D0D802F0113F3CFE6CF85E490E003
:100F0000B7010E942D0DD7FC06C0C114D10441F4D5
:100F1000EC85E4FF05C0D194C194D1088DE201C0F5
:100F20008BE2B70190E00E942D0D80E32AE0C2160B
:100F3000D1042CF08F5FFAE0CF1AD108F7CFB701B8
:100F400090E00E942D0DB701C601C0960E942D0DA4
:100F500054C1833631F0833779F0833509F056C0B8
:100F600020C0560132E0A30EB11CF60180818983B6
:100F700001E010E0630112C05601F2E0AF0EB11CB7
:100F8000F601C080D18096FE03C0612F70E002C0E0
:100F90006FEF7FEFC6010E94220D8C01F92DFF77C4
:100FA00014C0560122E0A20EB11CF601C080D1800F
:100FB00096FE03C0612F70E002C06FEF7FEFC601A5
:100FC0000E94170D8C01F92DF0689F2EF3FD1AC0B9
:100FD000852D90E008171907A8F4B70180E290E08A
:100FE0000E942D0D5A94F4CFF60197FC859197FE3F
:100FF00081916F01B70190E00E942D0D51105A941C
:10100000015011090115110579F7F7C0843611F067
:10101000893661F5560197FE09C024E0A20EB11C85
:10102000F60160817181828193810AC0F2E0AF0E86
:10103000B11CF60160817181072E000C880B990BA1
:10104000F92DFF769F2E97FF09C09095809570959A
:1010500061957F4F8F4F9F4FF0689F2E2AE030E0C1
:10106000A3010E947F0DC82EC6183FC0092D8537E9
:1010700021F40F7E2AE030E01DC0097F8F3691F009
:1010800018F4883559F0C3C0803719F0883711F04B
:10109000BEC0006104FF09C0046007C094FE08C020
:1010A000066006C028E030E005C020E130E002C064
:1010B00020E132E0560107FF09C084E0A80EB11C10
:1010C000F601608171818281938108C0F2E0AF0EE8
:1010D000B11CF6016081718180E090E0A3010E9463
:1010E0007F0DC82EC6180F77902E96FE0BC0092DC7
:1010F0000E7FC11650F494FE0AC092FC08C0092D60
:101100000E7E05C0DC2C092D03C0DC2C01C0D12EC5
:1011100004FF0DC0FE01EC0DF11D8081803311F440
:10112000097E09C002FF06C0D394D39404C0802F67
:10113000867809F0D39403FD11C000FF06C01C2D72
:10114000D51480F4150D1D190DC0D51458F4B70130
:1011500080E290E00E942D0DD394F7CFD51410F4C7
:101160005D1801C0512C04FF10C0B70180E390E06E
:101170000E942D0D02FF17C001FD03C088E790E01B
:1011800002C088E590E0B7010CC0802F867859F046
:1011900001FF02C08BE201C080E207FD8DE2B701D2
:1011A00090E00E942D0DC11638F4B70180E390E065
:1011B0000E942D0D1150F7CFCA94F301EC0DF11DD3
:1011C0008081B70190E00E942D0DC110F5CF15C0B0
:1011D000F4E0F51560F584E0581A93FE1FC0011184
:1011E00027C02C8523FF2AC004EB10E0392D307175
:1011F000932EF8018491811124C0552009F4E4CC88
:10120000B70180E290E00E942D0D5A94F6CFF701CD
:101210008681978126C08FEF9FEF23C0B70180E2C0
:1012200090E00E942D0D5A945110F8CFD8CF512C38
:10123000B701802F90E00E942D0DD3CF08EB10E076
:10124000D5CF91108052B70190E00E942D0D0F5F15
:101250001F4FCFCF23E0251510F483E0BDCF512CD5
:10126000C0CF6096E2E10C9451092F923F924F92C9
:101270005F926F927F928F929F92AF92BF92CF9226
:10128000DF92EF92FF920F931F93CF93DF93CDB72F
:10129000DEB7CA1BDB0B0FB6F894DEBF0FBECDBFA7
:1012A00009942A88398848885F846E847D848C8478
:1012B0009B84AA84B984C884DF80EE80FD800C8181
:1012C0001B81AA81B981CE0FD11D0FB6F894DEBF64
:1012D0000FBECDBFED0108955058BB27AA270E942D
:1012E00084090C941E0B0E94100B38F00E94170BFF
:1012F00020F039F49F3F19F426F40C94E60A0EF41A
:10130000E095E7FB0C94E00AE92F0E942F0B58F3BD
:10131000BA17620773078407950720F079F4A6F5DA
:101320000C94510B0EF4E0950B2EBA2FA02D0B014F
:10133000B90190010C01CA01A0011124FF27591B1A
:1013400099F0593F50F4503E68F11A16F040A22F20
:10135000232F342F4427585FF3CF46953795279591
:10136000A795F0405395C9F77EF41F16BA0B620B90
:10137000730B840BBAF09150A1F0FF0FBB1F661FD7
:10138000771F881FC2F70EC0BA0F621F731F841F1A
:1013900048F4879577956795B795F7959E3F08F040
:1013A000B0CF9395880F08F09927EE0F9795879502
:1013B0000895DF93DD27B92FBF7740E85FE3161666
:1013C000170648075B0718F4D92F0E945D0B9F93FF
:1013D0008F937F936F930E94DA0BE8E6F0E00E9410
:1013E000E90A0E941E0B2F913F914F915F910E943D
:1013F000780BDD2351F09058A2EA2AED3FE049EC4A
:101400005FE3D0785D270E948409DF910C941E0B66
:101410000E94BC0A08F481E008950E94210A0C94FD
:101420001E0B0E94170B58F00E94100B40F029F47D
:101430005F3F29F00C94E00A51110C94520B0C946C
:10144000E60A0E942F0B68F39923B1F3552391F319
:10145000951B550BBB27AA2762177307840738F023
:101460009F5F5F4F220F331F441FAA1FA9F335D080
:101470000E2E3AF0E0E832D091505040E695001C34
:10148000CAF72BD0FE2F29D0660F771F881FBB1FEE
:10149000261737074807AB07B0E809F0BB0B802DCC
:1014A000BF01FF2793585F4F3AF09E3F510578F0F8
:1014B0000C94E00A0C94520B5F3FE4F3983ED4F393
:1014C000869577956795B795F7959F5FC9F7880FCC
:1014D000911D9695879597F90895E1E0660F771F1E
:1014E000881FBB1F621773078407BA0720F0621BAF
:1014F000730B840BBA0BEE1F88F7E0950895E89400
:1015000009C097FB3EF490958095709561957F4F4B
:101510008F4F9F4F9923A9F0F92F96E9BB279395F9
:10152000F695879577956795B795F111F8CFFAF409
:10153000BB0F11F460FF1BC06F5F7F4F8F4F9F4F3A
:1015400016C0882311F096E911C0772321F09EE898
:10155000872F762F05C0662371F096E8862F70E0FE
:1015600060E02AF09A95660F771F881FDAF7880FD8
:101570009695879597F90895990F0008550FAA0B2E
:10158000E0E8FEEF16161706E807F907C0F0121696
:101590001306E407F50798F0621B730B840B950B99
:1015A00039F40A2661F0232B242B252B21F40895EE
:1015B0000A2609F4A140A6958FEF811D811D08958B
:1015C00097F99F6780E870E060E008959FEF80ECF6
:1015D0000895DF93CF931F930F93FF92EF92DF92C3
:1015E0007B018C01689406C0DA2EEF010E94780B13
:1015F000FE01E894A5912591359145915591A6F369
:10160000EF010E948409FE019701A801DA9469F7AD
:10161000DF90EF90FF900F911F91CF91DF91089590
:1016200000240A94161617061806090608950024C1
:101630000A9412161306140605060895092E03943B
:10164000000C11F4882352F0BB0F40F4BF2B11F4AF
:1016500060FF04C06F5F7F4F8F4F9F4F089557FD0E
:101660009058440F551F59F05F3F71F04795880F10
:1016700097FB991F61F09F3F79F0879508951216A7
:1016800013061406551FF2CF4695F1DF08C0161653
:1016900017061806991FF1CF869571056105089404
:1016A0000895E894BB2766277727CB0197F908951B
:1016B0000E94BC0A08F48FEF08959B01AC0160E022
:1016C00070E080E89FE30C940D0A0E94780B0C9464
:1016D0001E0B0E94100B38F00E94170B20F0952370
:1016E00011F00C94E00A0C94E60A11240C94520BAD
:1016F0000E942F0B70F3959FC1F3950F50E0551F7B
:10170000629FF001729FBB27F00DB11D639FAA2756
:10171000F00DB11DAA1F649F6627B00DA11D661FA5
:10172000829F2227B00DA11D621F739FB00DA11DC6
:10173000621F839FA00D611D221F749F3327A00D80
:10174000611D231F849F600D211D822F762F6A2F1C
:1017500011249F5750409AF0F1F088234AF0EE0F81
:10176000FF1FBB1F661F771F881F91505040A9F7AE
:101770009E3F510580F00C94E00A0C94520B5F3FA1
:10178000E4F3983ED4F3869577956795B795F795EA
:10179000E7959F5FC1F7FE2B880F911D9695879562
:1017A00097F908959F930E94E00B0F9007FCEE5F5E
:1017B0000C94090C9B01AC010C94650B0C94E60A8B
:1017C0000E94370BD8F3E894E0E0BB279F57F0F076
:1017D0002AED3FE049EC06C0EE0FBB0F661F771FF6
:1017E000881F28F0B23A62077307840728F0B25ABC
:1017F000620B730B840BE3959A9572F7803830F483
:101800009A95BB0F661F771F881FD2F790480C94DC
:101810001F0CEF93E0FF07C0A2EA2AED3FE049EC7E
:101820005FEB0E9484090E941E0B0F90039401FC41
:101830009058E5E9F0E00C942B0C9F3F31F091506B
:1018400020F4879577956795B795880F911D9695A4
:10185000879597F908959F938F937F936F93FF9345
:10186000EF939B01AC010E94650BEF91FF910E94E9
:10187000E90A2F913F914F915F910C94650B2830AD
:1018800008F027E03327DA01990F311D87FD9160B9
:1018900000966105710539F432602E5F3D9330E3A7
:1018A0002A95E1F708959F3F30F080387105610572
:1018B00009F03C5F3C5F3D93913008F08068911DDA
:1018C000DF93CF931F930F93FF92EF92192F987F7F
:1018D0009695E92F96959695E90FFF27EA5EFE4FBC
:1018E00099273327EE24FF24A701E70105900894E8
:1018F000079428F4360FE71EF81E491F511D660F86
:10190000771F881F991F0694A1F70590079428F464
:10191000E70EF81E491F561FC11D770F881F991F1C
:10192000661F0694A1F70590079428F4F80E491F46
:10193000561FC71FD11D880F991F661F771F06945A
:10194000A1F70590079420F4490F561FC71FD81F11
:10195000990F661F771F881F0694A9F78491109529
:10196000177041F0D695C79557954795F794E7942A
:101970001A95C1F7ECEBF0E068941590159135914C
:101980006591959105907FE27395E118F10A430BFB
:10199000560BC90BD009C0F7E10CF11E431F561FAF
:1019A000C91FD01D7EF4703311F48A95E6CFE894F8
:1019B000015030F0080F0AF40027021708F4202F16
:1019C0002395022F7A3328F079E37D932A95E9F75E
:1019D00010C07D932A9589F606949795679537955B
:1019E00017951794E118F10A430B560BC90BD00950
:1019F00098F023957E9173957A3308F070E37C9389
:101A00002013B8F77E9170617D9330F0839571E378
:101A10007D9370E32A95E1F71124EF90FF900F91E9
:101A20001F91CF91DF91992787FD90950895FC0133
:101A30000590615070400110D8F7809590958E0FF9
:101A40009F1F0895FC016150704001900110D8F76C
:101A5000809590958E0F9F1F08950F931F93CF939E
:101A6000DF93FB01238121FD03C08FEF9FEF2CC08B
:101A700022FF16C0468157812481358142175307C2
:101A800044F4A081B1819D012F5F3F4F31832083BA
:101A90008C93268137812F5F3F4F3783268314C075
:101AA0008B01EC01FB010084F185E02D0995892B68
:101AB000E1F6D80116968D919C911797019617968D
:101AC0009C938E931697CE01DF91CF911F910F912A
:101AD0000895A0E0B0E0EFE6FDE00C944509AE010A
:101AE0004B5F5F4FFA0161917191AF0180918E015F
:101AF00090918F010E94B805E2E00C946109FA010F
:101B0000AA27283051F1203181F1E8946F936E7F3C
:101B10006E5F7F4F8F4F9F4FAF4FB1E03ED0B4E02D
:101B20003CD0670F781F891F9A1FA11D680F791F6E
:101B30008A1F911DA11D6A0F711D811D911DA11D7F
:101B400020D009F468943F912AE0269F112430198F
:101B5000305D3193DEF6CF010895462F4770405D2A
:101B60004193B3E00FD0C9F7F6CF462F4F70405DD9
:101B70004A3318F0495D31FD4052419302D0A9F734
:101B8000EACFB4E0A6959795879577956795BA952E
:101B9000C9F700976105710508959B01AC010A2EF4
:101BA00006945795479537952795BA95C9F7620FCB
:0E1BB000731F841F951FA01D0895F894FFCF8A
:101BBE0000000002000000003E01000000000000D6
:101BCE00400014005400593A25362E3266205B44EC
:0C1BDE0065675D00593A2566206700002D
:00000001FF
