:100000000C94DB000C94F8000C94F8000C94F800AD
:100010000C94F8000C94F8000C94F8000C94F80080
:100020000C94F8000C94F8000C94F8000C94F80070
:100030000C94F8000C94F8000C94F8000C94F80060
:100040000C94F8000C94F8000C94F8000C94F80050
:100050000C94F8000C94F8000C94F8000C94F80040
:100060000C94F8000C94F800084AD73B3BCE016E84
:1000700084BCBFFDC12F3D6C74319ABD56833DDAFF
:100080003D00C77F11BED9E4BB4C3E916BAAAABE0E
:10009000000000803F05A84CCDB2D44EB93836A937
:1000A000020C50B9918688083CA6AAAA2ABE000074
:1000B00000803F006E616E00696E660000407A103D
:1000C000F35A00A0724E18090010A5D4E80000E809
:1000D0007648170000E40B54020000CA9A3B000067
:1000E00000E1F505000080969800000040420F00F6
:1000F0000000A08601000000102700000000E803B7
:10010000000000006400000000000A000000000081
:100110000100000000002C76D888DC674F0823DF40
:10012000C1DFAE59E1B1B796E5E3E453C63AE65113
:10013000997696E8E6C28426EB898C9B62ED407C3A
:100140006FFCEFBC9C9F40F2BAA56FA5F490055AD6
:100150002AF75C936B6CF9676DC11BFCE0E40D47FB
:10016000FEF520E6B500D0ED902E0300943577051E
:100170000080841E080000204E0A000000C80C33D6
:100180003333330F986E12831141EF8D2114893B65
:10019000E65516CFFEE6DB18D1844B381BF77C1DE5
:1001A000901DA4BBE424203284725E228100C9F138
:1001B00024ECA1E53D2711241FBECFEFD8E0DEBF20
:1001C000CDBF11E0A0E0B1E0E6E6F3E202C00590A9
:1001D0000D92AE32B107D9F721E0AEE2B1E001C035
:1001E0001D92A939B207E1F70E9448070C94B1119A
:1001F0000C940000CF93C82F8EE40E943B0980919D
:100200002E018C2B0E946F090E946609CF910895E0
:10021000CF93C82F84600E94FA0085E08A95F1F799
:1002200000008C2F8B7F0E94FA0087EC90E00197F2
:10023000F1F700C00000CF910895CF93C82FCD7F74
:100240008C2F0E94FA008C2F0E940801CF910895F4
:10025000CF93DF93D82FC62FC460807F8C2B0E9452
:100260001D018D2F8295807F8C2B0E941D01DF91B7
:10027000CF91089561E00E94280108950E943A01FB
:1002800080E090E0089560E081E00E9428012FEF77
:1002900086E791E0215080409040E1F700C00000E7
:1002A0000895CF93DF93CDB7DEB728970FB6F894B4
:1002B000DEBF0FBECDBF98E0EEE0F1E0DE011196AB
:1002C00001900D929A95E1F790912F01691710F026
:1002D0006FEF690FE62FF0E0EE0FFF1FEC0FFD1F31
:1002E0009181890F60E080680E94280128960FB6EE
:1002F000F894DEBF0FBECDBFDF91CF9108958091FE
:1003000031018B7F8093310160E088600E94280179
:10031000089580913101982F94609093310160E0AD
:100320008C600E942801089580E091E090939601EE
:100330008093950180912E01886080932E0184E046
:1003400080932F012FEF80E792E021508040904072
:10035000E1F700C000008EE40E943B0984E00E94A7
:100360006F098FE891E00197F1F700C0000080E38A
:100370000E941D018FE496E40197F1F700C0000090
:1003800080E30E941D0187E592E00197F1F700C02C
:10039000000080E30E941D0187E592E00197F1F7DC
:1003A00000C0000080E20E941D0187E592E00197F5
:1003B000F1F700C0000060E088E20E94280110927E
:1003C00031010E947F010E94890182E08093320105
:1003D00060E086E00E9428018091310160E0886041
:1003E0000E94280188E08093300160E088E10E944B
:1003F00028010E9443010895CF93DF93D82FC62F81
:100400008AE30E9414098D2F0E946F098C2F0E948D
:100410006F090E946609DF91CF910895CF93C82F8D
:100420008AE30E9414098C2F0E946F098BE30E94BB
:1004300063090E948109C82F0E9466098C2FCF9101
:1004400008958DE00E940E0280933F0160E48BE2EC
:100450000E94FC018FE39CE90197F1F700C00000C6
:100460008BE20E940E028093780160E08EE00E9491
:10047000FC0162E08BE20E94FC0161E08DE20E94DF
:10048000FC0161E08EE20E94FC0160E481E10E94D7
:10049000FC016DE38AE20E94FC01089580E10E9464
:1004A0000E02877008954F925F926F927F928F92A3
:1004B0009F92AF92BF92CF92DF92EF92FF920F93F3
:1004C0001F93CF93DF9325E33AEF4EE85CE360910F
:1004D0004C0170914D0180914E0190914F010E940D
:1004E000390F0E94A60F4B015C016093400170938D
:1004F0004101809342019093430125E33AEF4EE896
:100500005CE360918F0170919001809191019091D5
:1005100092010E94390F0E94A60F6B017C0160932B
:10052000450170934601809347019093480126E668
:1005300036E646E65FE360913B0170913C018091B5
:100540003D0190913E010E94390F2B013C012DECA1
:100550003CEC4CEC5DE360918301709184018091EF
:100560008501909186010E94390F9B01AC01C30166
:10057000B2010E94410D60933B0170933C01809356
:100580003D0190933E010091790110917A01C09153
:100590007B01D0917C0120E030E0A901602F712F18
:1005A0008C2F9D2F0E942C0F18160CF077C020E086
:1005B00030E0A901C501B4010E942C0F181644F5C2
:1005C000202F312F4C2F5D2FC501B4010E94400D0B
:1005D0004B015C012DEC3CEC4CEC5DE30E94DC0D2E
:1005E0008823B4F42DEC3CEC4CEC5DEBC501B4017C
:1005F0000E942C0F181664F4802F912FAC2FBD2F62
:100600008093400190934101A0934201B093430134
:100610008090400190904101A0904201B090430130
:1006200020E030E0A901C501B4010E94DC0D88235F
:10063000ACF5A5019401602F712F8C2F9D2F0E9486
:10064000410D4B015C012DEC3CEC4CEC5DE30E9458
:10065000DC0D88231CF52DEC3CEC4CEC5DEBC5016E
:10066000B4010E942C0F1816CCF4802F912FAC2FC0
:10067000BD2F8093400190934101A0934201B0931C
:10068000430120E030E0A901602F712F8C2F9D2FB6
:100690000E94DC0D88230CF088C018C320E030E0F5
:1006A000A901602F712F8C2F9D2F0E94DC0D8823B4
:1006B0000CF07BC08090400190904101A0904201DD
:1006C000B090430120E030E0A901C501B4010E94CF
:1006D0002C0F18166CF5A5019401602F712F8C2F2B
:1006E0009D2F0E94410D4B015C012DEC3CEC4CEC2C
:1006F0005DE30E94DC0D8823DCF42DEC3CEC4CEC3B
:100700005DEBC501B4010E942C0F18168CF4802FEC
:10071000912FAC2FBD2F8093400190934101A09366
:100720004201B0934301B02EA12E9C2E8D2E13C0FA
:10073000B0904001A090410190904201809043010F
:1007400020E030E0A9016B2D7A2D892D982D0E9493
:10075000DC0D882354F5202F312F4C2F5D2F6B2D6E
:100760007A2D892D982D0E94400D4B015C012DECB6
:100770003CEC4CEC5DE30E94DC0D8823B4F42DECE2
:100780003CEC4CEC5DEBC501B4010E942C0F18163B
:1007900064F4802F912FAC2FBD2F80934001909354
:1007A0004101A0934201B093430180908B0190904E
:1007B0008C01A0908D01B0908E0120E030E0A90165
:1007C000682D792D8A2D9B2D0E942C0F18160CF068
:1007D00077C020E030E0A901C701B6010E942C0FCC
:1007E000181644F5282D392D4A2D5B2DC701B60169
:1007F0000E94400D6B017C012DEC3CEC4CEC5DE368
:100800000E94DC0D8823B4F42DEC3CEC4CEC5DEB49
:10081000C701B6010E942C0F181664F4882D992D7B
:10082000AA2DBB2D8093450190934601A0934701CB
:10083000B0934801C0904501D0904601E090470137
:10084000F090480120E030E0A901C701B6010E9404
:10085000DC0D8823ACF5A7019601682D792D8A2D32
:100860009B2D0E94410D6B017C012DEC3CEC4CEC6E
:100870005DE30E94DC0D88231CF52DEC3CEC4CEC78
:100880005DEBC701B6010E942C0F1816CCF4882D21
:10089000992DAA2DBB2D8093450190934601A093DD
:1008A0004701B093480120E030E0A901682D792D7F
:1008B0008A2D9B2D0E94DC0D88230CF088C01BC262
:1008C00020E030E0A901682D792D8A2D9B2D0E9412
:1008D000DC0D88230CF07BC0C0904501D090460110
:1008E000E0904701F090480120E030E0A901C70105
:1008F000B6010E942C0F18166CF5A7019601682D01
:10090000792D8A2D9B2D0E94410D6B017C012DECD0
:100910003CEC4CEC5DE30E94DC0D8823DCF42DEC18
:100920003CEC4CEC5DEBC701B6010E942C0F181695
:100930008CF4882D992DAA2DBB2D80934501909381
:100940004601A0934701B0934801F82CE92CDA2C1A
:10095000CB2C13C0F0904501E0904601D0904701A8
:10096000C090480120E030E0A9016F2D7E2D8D2D33
:100970009C2D0E94DC0D882354F5282D392D4A2DFD
:100980005B2D6F2D7E2D8D2D9C2D0E94400D6B01BA
:100990007C012DEC3CEC4CEC5DE30E94DC0D8823EB
:1009A000B4F42DEC3CEC4CEC5DEBC701B6010E94BD
:1009B0002C0F181664F4882D992DAA2DBB2D809329
:1009C000450190934601A0934701B0934801C09020
:1009D0004001D0904101E0904201F090430120E0BD
:1009E00030E0A901C701B6010E942C0F1816C4F50A
:1009F00020E030E0A901602F712F8C2F9D2F0E94E5
:100A00002C0F181684F4A7019601602F712F8C2FDC
:100A10009D2F0E94400D609362017093630180934B
:100A200064019093650120E030E0A901602F712FEF
:100A30008C2F9D2F0E94DC0D88230CF047C0A7014E
:100A40009601602F712F8C2F9D2F0E94410D609376
:100A5000620170936301809364019093650136C0D5
:100A600020E030E0A901602F712F8C2F9D2F0E9474
:100A70002C0F181684F4A7019601602F712F8C2F6C
:100A80009D2F0E94410D60936201709363018093DA
:100A900064019093650120E030E0A901602F712F7F
:100AA0008C2F9D2F0E94DC0D882384F4A7019601D2
:100AB000602F712F8C2F9D2F0E94400D609362013B
:100AC000709363018093640190936501C090450128
:100AD000D0904601E0904701F090480120E030E0DE
:100AE000A901C701B6010E942C0F1816C4F5809009
:100AF0008B0190908C01A0908D01B0908E0120E030
:100B000030E0A901C501B4010E942C0F181674F43D
:100B1000A7019601C501B4010E94400D60937401C4
:100B200070937501809376019093770120E030E017
:100B3000A901C501B4010E94DC0D88230CF045C059
:100B4000A5019401C701B6010E94410D6093740193
:100B500070937501809376019093770136C08090F1
:100B60008B0190908C01A0908D01B0908E0120E0BF
:100B700030E0A901C501B4010E942C0F181674F4CD
:100B8000A5019401C701B6010E94410D6093740153
:100B900070937501809376019093770120E030E0A7
:100BA000A901C501B4010E94DC0D882374F4A701DA
:100BB0009601C501B4010E94400D609374017093C9
:100BC00075018093760190937701C0903B01D0909E
:100BD0003C01E0903D01F0903E0120E030E0A901B1
:100BE000C701B6010E942C0F1816C4F5809083012E
:100BF00090908401A0908501B090860120E030E0C3
:100C0000A901C501B4010E942C0F181674F4A701A4
:100C10009601C501B4010E94400D60936801709374
:100C2000690180936A0190936B0120E030E0A90193
:100C3000C501B4010E94DC0D88230CF083C0A5011E
:100C40009401C701B6010E94410D60936801709341
:100C5000690180936A0190936B0174C08090830155
:100C600090908401A0908501B090860120E030E052
:100C7000A901C501B4010E942C0F181674F4A50136
:100C80009401C701B6010E94410D60936801709301
:100C9000690180936A0190936B0120E030E0A90123
:100CA000C501B4010E94DC0D88230CF04BC0A701E4
:100CB0009601C501B4010E94400D609368017093D4
:100CC000690180936A0190936B013CC0202F312F02
:100CD0004C2F5D2F602F712F8C2F9D2F0E94410D67
:100CE0004B015C012DEC3CEC4CEC5DE30E94DC0D17
:100CF0008823B4F402CD282D392D4A2D5B2D682D83
:100D0000792D8A2D9B2D0E94410D6B017C012DECCC
:100D10003CEC4CEC5DE30E94DC0D882354F4FFCDE9
:100D2000B0904001A0904101909042018090430119
:100D300012CDF0904501E0904601D0904701C0905F
:100D400048011BCEDF91CF911F910F91FF90EF9043
:100D5000DF90CF90BF90AF909F908F907F906F90DB
:100D60005F904F90089520E030E040E05FE36091B5
:100D700062017091630180916401909165010E940C
:100D8000390F27E137EB41ED5BE30E94390F20E09B
:100D900030E445E754E40E94390F9B01AC016091B7
:100DA0007D0170917E0180917F01909180010E9470
:100DB000410D60937D0170937E0180937F0190933C
:100DC000800120E030E040E05FE3609174017091C9
:100DD000750180917601909177010E94390F27E18A
:100DE00037EB41ED5BE30E94390F20E030E445E74B
:100DF00054E40E94390F9B01AC0160915401709141
:100E0000550180915601909157010E94410D6093C8
:100E1000540170935501809356019093570180912E
:100E20006701823379F520E030E040E05FE36091D4
:100E300068017091690180916A0190916B010E9433
:100E4000390F27E137EB41ED5BE30E94390F20E0DA
:100E500030E445E754E40E94390F9B01AC016091F6
:100E600033017091340180913501909136010E94D7
:100E7000410D609333017093340180933501909359
:100E800036010895823318F48F5F809367010895C7
:100E9000CF93DF9300D000D000D0CDB7DEB70E9453
:100EA0000E090E9494010E9421020F2EF8E5EF2EF8
:100EB000F1E0FF2EF02D0F2EF6E22F2EF1E03F2E67
:100EC000F02D81E00E940E02D7018C9382E00E94F7
:100ED0000E02F701818383E00E940E02D701129671
:100EE0008C9384E00E940E02F701838385E00E94C8
:100EF0000E02D70114968C9386E00E940E02C82E33
:100F0000F7018583F0812F2F30E0922F88279A8375
:100F10008983D70111968C91E981FA81E82BF595A7
:100F2000E795F595E795FE83ED83BF01FF0F880BED
:100F3000990B0E94550E20E030E040E858E30E94F3
:100F4000390F4B015C016093370170933801809336
:100F5000390190933A01D70112960C91129710E043
:100F6000102F002713968C91082B15950795159532
:100F70000795B801012E000C880B990B0E94550EA5
:100F800020E030E040E858E30E94390F2B013C019B
:100F900060936C0170936D0180936E0190936F016B
:100FA000F7018481D12CD82AD594C794D594C794BD
:100FB000B6010D2C000C880B990B0E94550E20E0F9
:100FC00030E040E858E30E94390F69837A838B83CD
:100FD0009C836093500170935101809352019093D0
:100FE00053014D815E81552314F4495F5F4F559540
:100FF0004795559547955595479541954093880157
:10100000C80111230CF407969595879595958795BA
:1010100095958795582F5195509387012D813E8145
:101020003051C90199230CF40796959587959595AC
:101030008795959587958195809349012D813E816E
:10104000240F311D30934B0120934A01050F111DD0
:1010500010938A0100938901C80ED11CD09282019D
:10106000C092810129813A814B815C81C501B40123
:101070000E94E10D0E94AD0D24EE3EE245E652E4F1
:101080000E94390F60934C0170934D0180934E0183
:1010900090934F0129813A814B815C81C301B20158
:1010A0000E94E10D0E94AD0D24EE3EE245E652E4C1
:1010B0000E94390F60938F0170939001809391018A
:1010C00090939201A3019201C501B4010E94E10D28
:1010D0000E94AD0D24EE3EE245E652E40E94390F37
:1010E000609370017093710180937201909373010A
:1010F0000E9453020E944E02809344010E94B30654
:1011000060914A0170914B01072E000C880B990BDE
:101110000E94550E20E030E040E859E30E94390F6C
:101120006093790170937A0180937B0190937C01A5
:101130006091890170918A01072E000C880B990B30
:101140000E94550E20E030E040E859E30E94390F3C
:1011500060938B0170938C0180938D0190938E012D
:101160006091810170918201072E000C880B990B10
:101170000E94550E20E030E040E859E30E94390F0C
:10118000609383017093840180938501909386011D
:1011900060E080E00E945101809180018F938091F6
:1011A0007F018F9380917E018F9380917D018F933A
:1011B00086E191E09F938F930E943D1161E080E072
:1011C0000E945101809157018F93809156018F9316
:1011D000809155018F93809154018F93EEE1F1E05E
:1011E000FF93EF930E943D1162E080E00E94510165
:1011F000809136018F93809135018F9380913401D6
:101200008F93809133018F933F922F920E943D11D3
:101210000FB6F894DEBF0FBECDBF53CE1092B9000B
:1012200088E48093B800089594EA9093BC00ECEBB6
:10123000F0E090819923ECF79091B900987F983075
:1012400011F09031A1F48093BB0084E88093BC003E
:10125000ECEBF0E080818823ECF79091B900987F67
:10126000983139F081E0903429F480E0089581E0EC
:10127000089580E00895CF93DF93ECEBF0E024EA4B
:10128000A9EBB0E0CBEBD0E034E844E920839081D7
:101290009923ECF79C91987F983011F09031B1F739
:1012A0008883308390819923ECF79C91987F9032CA
:1012B00011F0983529F44083908194FDFDCFE6CF5D
:1012C000DF91CF9108950E941409089584E98093D5
:1012D000BC00ECEBF0E0808184FDFDCF08958093AD
:1012E000BB0084E88093BC00ECEBF0E080818823B5
:1012F000ECF79091B900987F81E0983209F480E092
:10130000089584E88093BC00ECEBF0E080818823B2
:10131000ECF78091BB000895A0E1B0E0E2E9F9E0CC
:101320000C94090D7C011B016A01FC0117821682D5
:10133000838181FF44C39E012F5F3F4F3901F70135
:101340009381F10193FD859193FF81911F01882382
:1013500009F431C3853239F493FD859193FF81916E
:101360001F01853239F4B70190E00E940111560146
:101370006501E5CF10E0512C912CFFE1F915D8F073
:101380008B3279F038F4803279F08332A1F4F92D80
:10139000F0612EC08D3261F0803369F4292D216017
:1013A0002DC0392D3260932E892D8460982E2AC04D
:1013B000E92DE86015C097FC2DC020ED280F2A30DC
:1013C00088F496FE06C03AE0139F200D1124122FD8
:1013D00019C08AE0589E200D1124522EE92DE0629A
:1013E0009E2E10C08E3231F496FCE5C2F92DF064C9
:1013F0009F2E08C08C3621F4292D2068922E02C021
:10140000883641F4F10193FD859193FF81911F018D
:101410008111B3CF9BEB980F933020F4992D9061FD
:10142000805E07C09BE9980F933008F066C1992D44
:101430009F7E96FF16E09F73992E853619F490646F
:10144000992E08C0863621F4392F3068932E02C0B9
:101450001111115097FE07C01C3350F444244394DB
:10146000410E27E00BC0183038F027E017E005C028
:1014700027E09CE3492E02C0212F412C560184E035
:10148000A80EB11CF6016081718182819381042DC7
:10149000A3010E9413106C01F981FC87F0FF02C0C8
:1014A000F3FF06C091FC06C092FE06C000E205C034
:1014B0000DE203C00BE201C000E08C858C7019F0D6
:1014C00001115AC29BC297FE10C04C0CFC85F4FF60
:1014D00004C08A81813309F44A94141474F528E015
:1014E000241578F588E0482E2CC096FC2AC0812F60
:1014F00090E08C159D059CF03CEFC3163FEFD306A2
:1015000074F0892D8068982E0AC0E2E0F0E0EC0FBC
:10151000FD1FE10FF11D8081803319F4115011116D
:10152000F4CF97FE0EC044244394410E812F90E0E7
:10153000C816D9062CF41C1904C04424439401C0D5
:1015400010E097FE06C01C141D0434F4C601019679
:1015500005C085E090E002C081E090E001110196B5
:10156000112331F0212F30E02F5F3F4F820F931F67
:10157000252D30E08217930714F4581A01C0512C1E
:10158000892D897049F4552039F0B70180E290E047
:101590000E9401115A94F7CF002329F0B701802F40
:1015A00090E00E94011193FC09C0552039F0B70169
:1015B00080E390E00E9401115A94F7CF97FE4CC04F
:1015C0004601D7FE02C0812C912CC60188199909C9
:1015D000F301E80FF91FFE87ED8796012419310901
:1015E000388B2F87012F10E01195019511093FEFDE
:1015F0008316930629F4B7018EE290E00E94011150
:10160000C814D9044CF08F8598898815990524F45D
:10161000ED85FE85818101C080E3F1E08F1A91089C
:101620002D853E852F5F3F4F3E872D878016910683
:101630002CF0B70190E00E940111D9CFC814D90451
:1016400041F49A81963320F4953319F43C8534FFA4
:1016500081E3B70190E04EC08A81813319F09C8507
:101660009F7E9C87B70190E00E940111111105C077
:1016700094FC18C085E690E017C0B7018EE290E0B8
:101680000E9401111E5F82E001E0080FF301E80FE4
:10169000F11D8081B70190E00E940111802F01139C
:1016A000F3CFE6CF85E490E0B7010E940111D7FCAB
:1016B00006C0C114D10441F4EC85E4FF05C0D19407
:1016C000C194D1088DE201C08BE2B70190E00E9485
:1016D000011180E32AE0C216D1042CF08F5FFAE0FA
:1016E000CF1AD108F7CFB70190E00E940111B701DE
:1016F000C601C0960E94011154C1833631F0833770
:1017000079F0833509F056C020C0560132E0A30EAF
:10171000B11CF6018081898301E010E0630112C0F1
:101720005601F2E0AF0EB11CF601C080D18096FEEA
:1017300003C0612F70E002C06FEF7FEFC6010E940F
:10174000F6108C01F92DFF7714C0560122E0A20E8D
:10175000B11CF601C080D18096FE03C0612F70E0FD
:1017600002C06FEF7FEFC6010E94EB108C01F92DD4
:10177000F0689F2EF3FD1AC0852D90E00817190719
:10178000A8F4B70180E290E00E9401115A94F4CFCE
:10179000F60197FC859197FE81916F01B70190E06A
:1017A0000E94011151105A9401501109011511059F
:1017B00079F7F7C0843611F0893661F5560197FE46
:1017C00009C024E0A20EB11CF60160817181828102
:1017D00093810AC0F2E0AF0EB11CF6016081718105
:1017E000072E000C880B990BF92DFF769F2E97FF83
:1017F00009C090958095709561957F4F8F4F9F4F51
:10180000F0689F2E2AE030E0A3010E945311C82EF9
:10181000C6183FC0092D853721F40F7E2AE030E03D
:101820001DC0097F8F3691F018F4883559F0C3C078
:10183000803719F0883711F0BEC0006104FF09C07D
:10184000046007C094FE08C0066006C028E030E0CF
:1018500005C020E130E002C020E132E0560107FF80
:1018600009C084E0A80EB11CF601608171818281FB
:10187000938108C0F2E0AF0EB11CF6016081718166
:1018800080E090E0A3010E945311C82EC6180F7784
:10189000902E96FE0BC0092D0E7FC11650F494FEBB
:1018A0000AC092FC08C0092D0E7E05C0DC2C092D53
:1018B00003C0DC2C01C0D12E04FF0DC0FE01EC0DD5
:1018C000F11D8081803311F4097E09C002FF06C03A
:1018D000D394D39404C0802F867809F0D39403FD69
:1018E00011C000FF06C01C2DD51480F4150D1D1964
:1018F0000DC0D51458F4B70180E290E00E940111A8
:10190000D394F7CFD51410F45D1801C0512C04FF07
:1019100010C0B70180E390E00E94011102FF17C0E0
:1019200001FD03C088E790E002C088E590E0B701C0
:101930000CC0802F867859F001FF02C08BE201C0F5
:1019400080E207FD8DE2B70190E00E940111C1160F
:1019500038F4B70180E390E00E9401111150F7CFF5
:10196000CA94F301EC0DF11D8081B70190E00E9453
:101970000111C110F5CF15C0F4E0F51560F584E054
:10198000581A93FE1FC0011127C02C8523FF2AC0BF
:1019900004EB10E0392D3071932EF8018491811100
:1019A00024C0552009F4E4CCB70180E290E00E9405
:1019B00001115A94F6CFF7018681978126C08FEFE7
:1019C0009FEF23C0B70180E290E00E9401115A947A
:1019D0005110F8CFD8CF512CB701802F90E00E9442
:1019E0000111D3CF08EB10E0D5CF91108052B70191
:1019F00090E00E9401110F5F1F4FCFCF23E025150C
:101A000010F483E0BDCF512CC0CF6096E2E10C947E
:101A1000250D2F923F924F925F926F927F928F92FD
:101A20009F92AF92BF92CF92DF92EF92FF920F936D
:101A30001F93CF93DF93CDB7DEB7CA1BDB0B0FB677
:101A4000F894DEBF0FBECDBF09942A883988488834
:101A50005F846E847D848C849B84AA84B984C884CA
:101A6000DF80EE80FD800C811B81AA81B981CE0FC1
:101A7000D11D0FB6F894DEBF0FBECDBFED010895A6
:101A80005058BB27AA270E94580D0C94F20E0E94B2
:101A9000E40E38F00E94EB0E20F039F49F3F19F469
:101AA00026F40C94BA0E0EF4E095E7FB0C94B40EF9
:101AB000E92F0E94030F58F3BA17620773078407D0
:101AC000950720F079F4A6F50C94250F0EF4E09517
:101AD0000B2EBA2FA02D0B01B90190010C01CA01E8
:101AE000A0011124FF27591B99F0593F50F4503E93
:101AF00068F11A16F040A22F232F342F4427585F85
:101B0000F3CF469537952795A795F0405395C9F79C
:101B10007EF41F16BA0B620B730B840BBAF0915054
:101B2000A1F0FF0FBB1F661F771F881FC2F70EC0F3
:101B3000BA0F621F731F841F48F4879577956795C6
:101B4000B795F7959E3F08F0B0CF9395880F08F0B2
:101B50009927EE0F979587950895DF93DD27B92F85
:101B6000BF7740E85FE31616170648075B0718F4CF
:101B7000D92F0E94310F9F938F937F936F930E9471
:101B8000AE0FE8E6F0E00E94BD0E0E94F20E2F912B
:101B90003F914F915F910E944C0FDD2351F090587F
:101BA000A2EA2AED3FE049EC5FE3D0785D270E948E
:101BB000580DDF910C94F20E0E94900E08F481E013
:101BC00008950E94F50D0C94F20E0E94EB0E58F051
:101BD0000E94E40E40F029F45F3F29F00C94B40E0B
:101BE00051110C94260F0C94BA0E0E94030F68F347
:101BF0009923B1F3552391F3951B550BBB27AA27C6
:101C000062177307840738F09F5F5F4F220F331FFF
:101C1000441FAA1FA9F335D00E2E3AF0E0E832D0C7
:101C200091505040E695001CCAF72BD0FE2F29D0CA
:101C3000660F771F881FBB1F261737074807AB079C
:101C4000B0E809F0BB0B802DBF01FF2793585F4F11
:101C50003AF09E3F510578F00C94B40E0C94260F88
:101C60005F3FE4F3983ED4F3869577956795B795F3
:101C7000F7959F5FC9F7880F911D9695879597F9FE
:101C80000895E1E0660F771F881FBB1F6217730777
:101C90008407BA0720F0621B730B840BBA0BEE1F8C
:101CA00088F7E0950895E89409C097FB3EF4909575
:101CB0008095709561957F4F8F4F9F4F9923A9F025
:101CC000F92F96E9BB279395F695879577956795B4
:101CD000B795F111F8CFFAF4BB0F11F460FF1BC0F8
:101CE0006F5F7F4F8F4F9F4F16C0882311F096E98B
:101CF00011C0772321F09EE8872F762F05C0662339
:101D000071F096E8862F70E060E02AF09A95660FF1
:101D1000771F881FDAF7880F9695879597F90895AA
:101D2000990F0008550FAA0BE0E8FEEF16161706EC
:101D3000E807F907C0F012161306E407F50798F054
:101D4000621B730B840B950B39F40A2661F0232B6D
:101D5000242B252B21F408950A2609F4A140A695E9
:101D60008FEF811D811D089597F99F6780E870E0CE
:101D700060E008959FEF80EC0895DF93CF931F9369
:101D80000F93FF92EF92DF927B018C01689406C063
:101D9000DA2EEF010E944C0FFE01E894A5912591E7
:101DA000359145915591A6F3EF010E94580DFE0122
:101DB0009701A801DA9469F7DF90EF90FF900F91F7
:101DC0001F91CF91DF91089500240A9416161706EB
:101DD00018060906089500240A941216130614061C
:101DE00005060895092E0394000C11F4882352F07F
:101DF000BB0F40F4BF2B11F460FF04C06F5F7F4F37
:101E00008F4F9F4F089557FD9058440F551F59F01D
:101E10005F3F71F04795880F97FB991F61F09F3FD7
:101E200079F087950895121613061406551FF2CF00
:101E30004695F1DF08C0161617061806991FF1CF50
:101E400086957105610508940895E894BB27662777
:101E50007727CB0197F908950E94900E08F48FEF31
:101E600008959B01AC0160E070E080E89FE30C9472
:101E7000E10D0E944C0F0C94F20E0E94E40E38F01B
:101E80000E94EB0E20F0952311F00C94B40E0C94EC
:101E9000BA0E11240C94260F0E94030F70F3959F25
:101EA000C1F3950F50E0551F629FF001729FBB2751
:101EB000F00DB11D639FAA27F00DB11DAA1F649FED
:101EC0006627B00DA11D661F829F2227B00DA11DA0
:101ED000621F739FB00DA11D621F839FA00D611D26
:101EE000221F749F3327A00D611D231F849F600D47
:101EF000211D822F762F6A2F11249F5750409AF070
:101F0000F1F088234AF0EE0FFF1FBB1F661F771FFB
:101F1000881F91505040A9F79E3F510580F00C94C6
:101F2000B40E0C94260F5F3FE4F3983ED4F38695ED
:101F300077956795B795F795E7959F5FC1F7FE2B66
:101F4000880F911D9695879597F908959F930E9404
:101F5000B40F0F9007FCEE5F0C94DD0F9B01AC01FA
:101F60000C94390F0C94BA0E0E940B0FD8F3E8941E
:101F7000E0E0BB279F57F0F02AED3FE049EC06C0B8
:101F8000EE0FBB0F661F771F881F28F0B23A62075B
:101F90007307840728F0B25A620B730B840BE39526
:101FA0009A9572F7803830F49A95BB0F661F771FA9
:101FB000881FD2F790480C94F30FEF93E0FF07C00F
:101FC000A2EA2AED3FE049EC5FEB0E94580D0E9427
:101FD000F20E0F90039401FC9058E5E9F0E00C94A8
:101FE000FF0F9F3F31F0915020F4879577956795CB
:101FF000B795880F911D9695879597F908959F93AA
:102000008F937F936F93FF93EF939B01AC010E949B
:10201000390FEF91FF910E94BD0E2F913F914F918B
:102020005F910C94390F283008F027E03327DA014C
:10203000990F311D87FD916000966105710539F496
:1020400032602E5F3D9330E32A95E1F708959F3F7C
:1020500030F080387105610509F03C5F3C5F3D93CD
:10206000913008F08068911DDF93CF931F930F93F9
:10207000FF92EF92192F987F9695E92F9695969556
:10208000E90FFF27EA5EFE4F99273327EE24FF244E
:10209000A701E70105900894079428F4360FE71E7E
:1020A000F81E491F511D660F771F881F991F069440
:1020B000A1F70590079428F4E70EF81E491F561F54
:1020C000C11D770F881F991F661F0694A1F7059001
:1020D000079428F4F80E491F561FC71FD11D880FFB
:1020E000991F661F771F0694A1F70590079420F4A7
:1020F000490F561FC71FD81F990F661F771F881FCC
:102100000694A9F784911095177041F0D695C7955C
:1021100057954795F794E7941A95C1F7ECEBF0E0E3
:1021200068941590159135916591959105907FE290
:102130007395E118F10A430B560BC90BD009C0F790
:10214000E10CF11E431F561FC91FD01D7EF47033D2
:1021500011F48A95E6CFE894015030F0080F0AF4A4
:102160000027021708F4202F2395022F7A3328F036
:1021700079E37D932A95E9F710C07D932A9589F636
:10218000069497956795379517951794E118F10A76
:10219000430B560BC90BD00998F023957E9173958C
:1021A0007A3308F070E37C932013B8F77E91706166
:1021B0007D9330F0839571E37D9370E32A95E1F789
:1021C0001124EF90FF900F911F91CF91DF919927EC
:1021D00087FD90950895FC010590615070400110B5
:1021E000D8F7809590958E0F9F1F0895FC01615040
:1021F000704001900110D8F7809590958E0F9F1F29
:1022000008950F931F93CF93DF93FB01238121FD4B
:1022100003C08FEF9FEF2CC022FF16C0468157816D
:10222000248135814217530744F4A081B1819D0177
:102230002F5F3F4F318320838C93268137812F5F1F
:102240003F4F3783268314C08B01EC01FB010084D0
:10225000F185E02D0995892BE1F6D80116968D912F
:102260009C911797019617969C938E931697CE0183
:10227000DF91CF911F910F910895A0E0B0E0E3E4CA
:10228000F1E10C94190DAE014B5F5F4FFA016191C2
:102290007191AF0180919501909196010E948C09F6
:1022A000E2E00C94350DFA01AA27283051F12031D3
:1022B00081F1E8946F936E7F6E5F7F4F8F4F9F4FDA
:1022C000AF4FB1E03ED0B4E03CD0670F781F891F1C
:1022D0009A1FA11D680F791F8A1F911DA11D6A0FEA
:1022E000711D811D911DA11D20D009F468943F919D
:1022F0002AE0269F11243019305D3193DEF6CF019C
:102300000895462F4770405D4193B3E00FD0C9F761
:10231000F6CF462F4F70405D4A3318F0495D31FDCE
:102320004052419302D0A9F7EACFB4E0A695979521
:10233000879577956795BA95C9F7009761057105F7
:1023400008959B01AC010A2E069457954795379541
:102350002795BA95C9F7620F731F841F951FA01D9B
:062360000895F894FFCF80
:1023660000000002000000003E0100000000000026
:10237600400014005400583A20252E316600593A80
:0E23860020252E3166005A3A20252E316600A1
:00000001FF
